{
	"contracts/Practical_14.sol": {
		"OperatorsExample": {
			"abi": [
				{
					"inputs": [],
					"name": "addResult",
					"outputs": [
						{
							"internalType": "uint256",
							"name": "",
							"type": "uint256"
						}
					],
					"stateMutability": "view",
					"type": "function"
				},
				{
					"inputs": [],
					"name": "andResult",
					"outputs": [
						{
							"internalType": "bool",
							"name": "",
							"type": "bool"
						}
					],
					"stateMutability": "view",
					"type": "function"
				},
				{
					"inputs": [
						{
							"internalType": "uint256",
							"name": "a",
							"type": "uint256"
						},
						{
							"internalType": "uint256",
							"name": "b",
							"type": "uint256"
						}
					],
					"name": "calculate",
					"outputs": [],
					"stateMutability": "nonpayable",
					"type": "function"
				},
				{
					"inputs": [],
					"name": "divResult",
					"outputs": [
						{
							"internalType": "uint256",
							"name": "",
							"type": "uint256"
						}
					],
					"stateMutability": "view",
					"type": "function"
				},
				{
					"inputs": [],
					"name": "eqResult",
					"outputs": [
						{
							"internalType": "bool",
							"name": "",
							"type": "bool"
						}
					],
					"stateMutability": "view",
					"type": "function"
				},
				{
					"inputs": [],
					"name": "gtResult",
					"outputs": [
						{
							"internalType": "bool",
							"name": "",
							"type": "bool"
						}
					],
					"stateMutability": "view",
					"type": "function"
				},
				{
					"inputs": [],
					"name": "gteResult",
					"outputs": [
						{
							"internalType": "bool",
							"name": "",
							"type": "bool"
						}
					],
					"stateMutability": "view",
					"type": "function"
				},
				{
					"inputs": [],
					"name": "ltResult",
					"outputs": [
						{
							"internalType": "bool",
							"name": "",
							"type": "bool"
						}
					],
					"stateMutability": "view",
					"type": "function"
				},
				{
					"inputs": [],
					"name": "lteResult",
					"outputs": [
						{
							"internalType": "bool",
							"name": "",
							"type": "bool"
						}
					],
					"stateMutability": "view",
					"type": "function"
				},
				{
					"inputs": [],
					"name": "modResult",
					"outputs": [
						{
							"internalType": "uint256",
							"name": "",
							"type": "uint256"
						}
					],
					"stateMutability": "view",
					"type": "function"
				},
				{
					"inputs": [],
					"name": "mulResult",
					"outputs": [
						{
							"internalType": "uint256",
							"name": "",
							"type": "uint256"
						}
					],
					"stateMutability": "view",
					"type": "function"
				},
				{
					"inputs": [],
					"name": "neqResult",
					"outputs": [
						{
							"internalType": "bool",
							"name": "",
							"type": "bool"
						}
					],
					"stateMutability": "view",
					"type": "function"
				},
				{
					"inputs": [],
					"name": "notResult",
					"outputs": [
						{
							"internalType": "bool",
							"name": "",
							"type": "bool"
						}
					],
					"stateMutability": "view",
					"type": "function"
				},
				{
					"inputs": [],
					"name": "orResult",
					"outputs": [
						{
							"internalType": "bool",
							"name": "",
							"type": "bool"
						}
					],
					"stateMutability": "view",
					"type": "function"
				},
				{
					"inputs": [],
					"name": "subResult",
					"outputs": [
						{
							"internalType": "uint256",
							"name": "",
							"type": "uint256"
						}
					],
					"stateMutability": "view",
					"type": "function"
				}
			],
			"devdoc": {
				"kind": "dev",
				"methods": {},
				"version": 1
			},
			"evm": {
				"assembly": "    /* \"contracts/Practical_14.sol\":60:986  contract OperatorsExample {... */\n  mstore(0x40, 0x80)\n  callvalue\n  dup1\n  iszero\n  tag_1\n  jumpi\n  0x00\n  dup1\n  revert\ntag_1:\n  pop\n  dataSize(sub_0)\n  dup1\n  dataOffset(sub_0)\n  0x00\n  codecopy\n  0x00\n  return\nstop\n\nsub_0: assembly {\n        /* \"contracts/Practical_14.sol\":60:986  contract OperatorsExample {... */\n      mstore(0x40, 0x80)\n      callvalue\n      dup1\n      iszero\n      tag_1\n      jumpi\n      0x00\n      dup1\n      revert\n    tag_1:\n      pop\n      jumpi(tag_2, lt(calldatasize, 0x04))\n      shr(0xe0, calldataload(0x00))\n      dup1\n      0x439c6a79\n      gt\n      tag_18\n      jumpi\n      dup1\n      0x9e542610\n      gt\n      tag_19\n      jumpi\n      dup1\n      0x9e542610\n      eq\n      tag_14\n      jumpi\n      dup1\n      0xa4726a74\n      eq\n      tag_15\n      jumpi\n      dup1\n      0xc9cc0558\n      eq\n      tag_16\n      jumpi\n      dup1\n      0xe05ac5a4\n      eq\n      tag_17\n      jumpi\n      jump(tag_2)\n    tag_19:\n      dup1\n      0x439c6a79\n      eq\n      tag_10\n      jumpi\n      dup1\n      0x533a88b3\n      eq\n      tag_11\n      jumpi\n      dup1\n      0x796e499e\n      eq\n      tag_12\n      jumpi\n      dup1\n      0x8dfa4363\n      eq\n      tag_13\n      jumpi\n      jump(tag_2)\n    tag_18:\n      dup1\n      0x2f94237c\n      gt\n      tag_20\n      jumpi\n      dup1\n      0x2f94237c\n      eq\n      tag_6\n      jumpi\n      dup1\n      0x399d19df\n      eq\n      tag_7\n      jumpi\n      dup1\n      0x411966b2\n      eq\n      tag_8\n      jumpi\n      dup1\n      0x425fbb68\n      eq\n      tag_9\n      jumpi\n      jump(tag_2)\n    tag_20:\n      dup1\n      0x09b30175\n      eq\n      tag_3\n      jumpi\n      dup1\n      0x0a9412bd\n      eq\n      tag_4\n      jumpi\n      dup1\n      0x2a94be88\n      eq\n      tag_5\n      jumpi\n    tag_2:\n      0x00\n      dup1\n      revert\n        /* \"contracts/Practical_14.sol\":248:268  bool public eqResult */\n    tag_3:\n      tag_21\n      tag_22\n      jump\t// in\n    tag_21:\n      mload(0x40)\n      tag_23\n      swap2\n      swap1\n      tag_24\n      jump\t// in\n    tag_23:\n      mload(0x40)\n      dup1\n      swap2\n      sub\n      swap1\n      return\n        /* \"contracts/Practical_14.sol\":124:148  uint256 public subResult */\n    tag_4:\n      tag_25\n      tag_26\n      jump\t// in\n    tag_25:\n      mload(0x40)\n      tag_27\n      swap2\n      swap1\n      tag_28\n      jump\t// in\n    tag_27:\n      mload(0x40)\n      dup1\n      swap2\n      sub\n      swap1\n      return\n        /* \"contracts/Practical_14.sol\":330:350  bool public ltResult */\n    tag_5:\n      tag_29\n      tag_30\n      jump\t// in\n    tag_29:\n      mload(0x40)\n      tag_31\n      swap2\n      swap1\n      tag_24\n      jump\t// in\n    tag_31:\n      mload(0x40)\n      dup1\n      swap2\n      sub\n      swap1\n      return\n        /* \"contracts/Practical_14.sol\":357:378  bool public gteResult */\n    tag_6:\n      tag_32\n      tag_33\n      jump\t// in\n    tag_32:\n      mload(0x40)\n      tag_34\n      swap2\n      swap1\n      tag_24\n      jump\t// in\n    tag_34:\n      mload(0x40)\n      dup1\n      swap2\n      sub\n      swap1\n      return\n        /* \"contracts/Practical_14.sol\":413:434  bool public andResult */\n    tag_7:\n      tag_35\n      tag_36\n      jump\t// in\n    tag_35:\n      mload(0x40)\n      tag_37\n      swap2\n      swap1\n      tag_24\n      jump\t// in\n    tag_37:\n      mload(0x40)\n      dup1\n      swap2\n      sub\n      swap1\n      return\n        /* \"contracts/Practical_14.sol\":385:406  bool public lteResult */\n    tag_8:\n      tag_38\n      tag_39\n      jump\t// in\n    tag_38:\n      mload(0x40)\n      tag_40\n      swap2\n      swap1\n      tag_24\n      jump\t// in\n    tag_40:\n      mload(0x40)\n      dup1\n      swap2\n      sub\n      swap1\n      return\n        /* \"contracts/Practical_14.sol\":155:179  uint256 public mulResult */\n    tag_9:\n      tag_41\n      tag_42\n      jump\t// in\n    tag_41:\n      mload(0x40)\n      tag_43\n      swap2\n      swap1\n      tag_28\n      jump\t// in\n    tag_43:\n      mload(0x40)\n      dup1\n      swap2\n      sub\n      swap1\n      return\n        /* \"contracts/Practical_14.sol\":217:241  uint256 public modResult */\n    tag_10:\n      tag_44\n      tag_45\n      jump\t// in\n    tag_44:\n      mload(0x40)\n      tag_46\n      swap2\n      swap1\n      tag_28\n      jump\t// in\n    tag_46:\n      mload(0x40)\n      dup1\n      swap2\n      sub\n      swap1\n      return\n        /* \"contracts/Practical_14.sol\":93:117  uint256 public addResult */\n    tag_11:\n      tag_47\n      tag_48\n      jump\t// in\n    tag_47:\n      mload(0x40)\n      tag_49\n      swap2\n      swap1\n      tag_28\n      jump\t// in\n    tag_49:\n      mload(0x40)\n      dup1\n      swap2\n      sub\n      swap1\n      return\n        /* \"contracts/Practical_14.sol\":468:489  bool public notResult */\n    tag_12:\n      tag_50\n      tag_51\n      jump\t// in\n    tag_50:\n      mload(0x40)\n      tag_52\n      swap2\n      swap1\n      tag_24\n      jump\t// in\n    tag_52:\n      mload(0x40)\n      dup1\n      swap2\n      sub\n      swap1\n      return\n        /* \"contracts/Practical_14.sol\":498:983  function calculate(uint256 a, uint256 b) public {... */\n    tag_13:\n      tag_53\n      0x04\n      dup1\n      calldatasize\n      sub\n      dup2\n      add\n      swap1\n      tag_54\n      swap2\n      swap1\n      tag_55\n      jump\t// in\n    tag_54:\n      tag_56\n      jump\t// in\n    tag_53:\n      stop\n        /* \"contracts/Practical_14.sol\":186:210  uint256 public divResult */\n    tag_14:\n      tag_57\n      tag_58\n      jump\t// in\n    tag_57:\n      mload(0x40)\n      tag_59\n      swap2\n      swap1\n      tag_28\n      jump\t// in\n    tag_59:\n      mload(0x40)\n      dup1\n      swap2\n      sub\n      swap1\n      return\n        /* \"contracts/Practical_14.sol\":441:461  bool public orResult */\n    tag_15:\n      tag_60\n      tag_61\n      jump\t// in\n    tag_60:\n      mload(0x40)\n      tag_62\n      swap2\n      swap1\n      tag_24\n      jump\t// in\n    tag_62:\n      mload(0x40)\n      dup1\n      swap2\n      sub\n      swap1\n      return\n        /* \"contracts/Practical_14.sol\":303:323  bool public gtResult */\n    tag_16:\n      tag_63\n      tag_64\n      jump\t// in\n    tag_63:\n      mload(0x40)\n      tag_65\n      swap2\n      swap1\n      tag_24\n      jump\t// in\n    tag_65:\n      mload(0x40)\n      dup1\n      swap2\n      sub\n      swap1\n      return\n        /* \"contracts/Practical_14.sol\":275:296  bool public neqResult */\n    tag_17:\n      tag_66\n      tag_67\n      jump\t// in\n    tag_66:\n      mload(0x40)\n      tag_68\n      swap2\n      swap1\n      tag_24\n      jump\t// in\n    tag_68:\n      mload(0x40)\n      dup1\n      swap2\n      sub\n      swap1\n      return\n        /* \"contracts/Practical_14.sol\":248:268  bool public eqResult */\n    tag_22:\n      0x05\n      0x00\n      swap1\n      sload\n      swap1\n      0x0100\n      exp\n      swap1\n      div\n      0xff\n      and\n      dup2\n      jump\t// out\n        /* \"contracts/Practical_14.sol\":124:148  uint256 public subResult */\n    tag_26:\n      sload(0x01)\n      dup2\n      jump\t// out\n        /* \"contracts/Practical_14.sol\":330:350  bool public ltResult */\n    tag_30:\n      0x05\n      0x03\n      swap1\n      sload\n      swap1\n      0x0100\n      exp\n      swap1\n      div\n      0xff\n      and\n      dup2\n      jump\t// out\n        /* \"contracts/Practical_14.sol\":357:378  bool public gteResult */\n    tag_33:\n      0x05\n      0x04\n      swap1\n      sload\n      swap1\n      0x0100\n      exp\n      swap1\n      div\n      0xff\n      and\n      dup2\n      jump\t// out\n        /* \"contracts/Practical_14.sol\":413:434  bool public andResult */\n    tag_36:\n      0x05\n      0x06\n      swap1\n      sload\n      swap1\n      0x0100\n      exp\n      swap1\n      div\n      0xff\n      and\n      dup2\n      jump\t// out\n        /* \"contracts/Practical_14.sol\":385:406  bool public lteResult */\n    tag_39:\n      0x05\n      dup1\n      sload\n      swap1\n      0x0100\n      exp\n      swap1\n      div\n      0xff\n      and\n      dup2\n      jump\t// out\n        /* \"contracts/Practical_14.sol\":155:179  uint256 public mulResult */\n    tag_42:\n      sload(0x02)\n      dup2\n      jump\t// out\n        /* \"contracts/Practical_14.sol\":217:241  uint256 public modResult */\n    tag_45:\n      sload(0x04)\n      dup2\n      jump\t// out\n        /* \"contracts/Practical_14.sol\":93:117  uint256 public addResult */\n    tag_48:\n      sload(0x00)\n      dup2\n      jump\t// out\n        /* \"contracts/Practical_14.sol\":468:489  bool public notResult */\n    tag_51:\n      0x05\n      0x08\n      swap1\n      sload\n      swap1\n      0x0100\n      exp\n      swap1\n      div\n      0xff\n      and\n      dup2\n      jump\t// out\n        /* \"contracts/Practical_14.sol\":498:983  function calculate(uint256 a, uint256 b) public {... */\n    tag_56:\n        /* \"contracts/Practical_14.sol\":573:574  b */\n      dup1\n        /* \"contracts/Practical_14.sol\":569:570  a */\n      dup3\n        /* \"contracts/Practical_14.sol\":569:574  a + b */\n      tag_70\n      swap2\n      swap1\n      tag_71\n      jump\t// in\n    tag_70:\n        /* \"contracts/Practical_14.sol\":557:566  addResult */\n      0x00\n        /* \"contracts/Practical_14.sol\":557:574  addResult = a + b */\n      dup2\n      swap1\n      sstore\n      pop\n        /* \"contracts/Practical_14.sol\":601:602  b */\n      dup1\n        /* \"contracts/Practical_14.sol\":597:598  a */\n      dup3\n        /* \"contracts/Practical_14.sol\":597:602  a - b */\n      tag_72\n      swap2\n      swap1\n      tag_73\n      jump\t// in\n    tag_72:\n        /* \"contracts/Practical_14.sol\":585:594  subResult */\n      0x01\n        /* \"contracts/Practical_14.sol\":585:602  subResult = a - b */\n      dup2\n      swap1\n      sstore\n      pop\n        /* \"contracts/Practical_14.sol\":629:630  b */\n      dup1\n        /* \"contracts/Practical_14.sol\":625:626  a */\n      dup3\n        /* \"contracts/Practical_14.sol\":625:630  a * b */\n      tag_74\n      swap2\n      swap1\n      tag_75\n      jump\t// in\n    tag_74:\n        /* \"contracts/Practical_14.sol\":613:622  mulResult */\n      0x02\n        /* \"contracts/Practical_14.sol\":613:630  mulResult = a * b */\n      dup2\n      swap1\n      sstore\n      pop\n        /* \"contracts/Practical_14.sol\":657:658  b */\n      dup1\n        /* \"contracts/Practical_14.sol\":653:654  a */\n      dup3\n        /* \"contracts/Practical_14.sol\":653:658  a / b */\n      tag_76\n      swap2\n      swap1\n      tag_77\n      jump\t// in\n    tag_76:\n        /* \"contracts/Practical_14.sol\":641:650  divResult */\n      0x03\n        /* \"contracts/Practical_14.sol\":641:658  divResult = a / b */\n      dup2\n      swap1\n      sstore\n      pop\n        /* \"contracts/Practical_14.sol\":685:686  b */\n      dup1\n        /* \"contracts/Practical_14.sol\":681:682  a */\n      dup3\n        /* \"contracts/Practical_14.sol\":681:686  a % b */\n      tag_78\n      swap2\n      swap1\n      tag_79\n      jump\t// in\n    tag_78:\n        /* \"contracts/Practical_14.sol\":669:678  modResult */\n      0x04\n        /* \"contracts/Practical_14.sol\":669:686  modResult = a % b */\n      dup2\n      swap1\n      sstore\n      pop\n        /* \"contracts/Practical_14.sol\":714:715  b */\n      dup1\n        /* \"contracts/Practical_14.sol\":709:710  a */\n      dup3\n        /* \"contracts/Practical_14.sol\":709:715  a == b */\n      eq\n        /* \"contracts/Practical_14.sol\":697:705  eqResult */\n      0x05\n      0x00\n        /* \"contracts/Practical_14.sol\":697:716  eqResult = (a == b) */\n      0x0100\n      exp\n      dup2\n      sload\n      dup2\n      0xff\n      mul\n      not\n      and\n      swap1\n      dup4\n      iszero\n      iszero\n      mul\n      or\n      swap1\n      sstore\n      pop\n        /* \"contracts/Practical_14.sol\":745:746  b */\n      dup1\n        /* \"contracts/Practical_14.sol\":740:741  a */\n      dup3\n        /* \"contracts/Practical_14.sol\":740:746  a != b */\n      eq\n      iszero\n        /* \"contracts/Practical_14.sol\":727:736  neqResult */\n      0x05\n      0x01\n        /* \"contracts/Practical_14.sol\":727:747  neqResult = (a != b) */\n      0x0100\n      exp\n      dup2\n      sload\n      dup2\n      0xff\n      mul\n      not\n      and\n      swap1\n      dup4\n      iszero\n      iszero\n      mul\n      or\n      swap1\n      sstore\n      pop\n        /* \"contracts/Practical_14.sol\":774:775  b */\n      dup1\n        /* \"contracts/Practical_14.sol\":770:771  a */\n      dup3\n        /* \"contracts/Practical_14.sol\":770:775  a > b */\n      gt\n        /* \"contracts/Practical_14.sol\":758:766  gtResult */\n      0x05\n      0x02\n        /* \"contracts/Practical_14.sol\":758:776  gtResult = (a > b) */\n      0x0100\n      exp\n      dup2\n      sload\n      dup2\n      0xff\n      mul\n      not\n      and\n      swap1\n      dup4\n      iszero\n      iszero\n      mul\n      or\n      swap1\n      sstore\n      pop\n        /* \"contracts/Practical_14.sol\":803:804  b */\n      dup1\n        /* \"contracts/Practical_14.sol\":799:800  a */\n      dup3\n        /* \"contracts/Practical_14.sol\":799:804  a < b */\n      lt\n        /* \"contracts/Practical_14.sol\":787:795  ltResult */\n      0x05\n      0x03\n        /* \"contracts/Practical_14.sol\":787:805  ltResult = (a < b) */\n      0x0100\n      exp\n      dup2\n      sload\n      dup2\n      0xff\n      mul\n      not\n      and\n      swap1\n      dup4\n      iszero\n      iszero\n      mul\n      or\n      swap1\n      sstore\n      pop\n        /* \"contracts/Practical_14.sol\":834:835  b */\n      dup1\n        /* \"contracts/Practical_14.sol\":829:830  a */\n      dup3\n        /* \"contracts/Practical_14.sol\":829:835  a >= b */\n      lt\n      iszero\n        /* \"contracts/Practical_14.sol\":816:825  gteResult */\n      0x05\n      0x04\n        /* \"contracts/Practical_14.sol\":816:836  gteResult = (a >= b) */\n      0x0100\n      exp\n      dup2\n      sload\n      dup2\n      0xff\n      mul\n      not\n      and\n      swap1\n      dup4\n      iszero\n      iszero\n      mul\n      or\n      swap1\n      sstore\n      pop\n        /* \"contracts/Practical_14.sol\":865:866  b */\n      dup1\n        /* \"contracts/Practical_14.sol\":860:861  a */\n      dup3\n        /* \"contracts/Practical_14.sol\":860:866  a <= b */\n      gt\n      iszero\n        /* \"contracts/Practical_14.sol\":847:856  lteResult */\n      0x05\n      dup1\n        /* \"contracts/Practical_14.sol\":847:867  lteResult = (a <= b) */\n      0x0100\n      exp\n      dup2\n      sload\n      dup2\n      0xff\n      mul\n      not\n      and\n      swap1\n      dup4\n      iszero\n      iszero\n      mul\n      or\n      swap1\n      sstore\n      pop\n        /* \"contracts/Practical_14.sol\":895:896  0 */\n      0x00\n        /* \"contracts/Practical_14.sol\":891:892  a */\n      dup3\n        /* \"contracts/Practical_14.sol\":891:896  a > 0 */\n      gt\n        /* \"contracts/Practical_14.sol\":891:905  a > 0 && b > 0 */\n      dup1\n      iszero\n      tag_80\n      jumpi\n      pop\n        /* \"contracts/Practical_14.sol\":904:905  0 */\n      0x00\n        /* \"contracts/Practical_14.sol\":900:901  b */\n      dup2\n        /* \"contracts/Practical_14.sol\":900:905  b > 0 */\n      gt\n        /* \"contracts/Practical_14.sol\":891:905  a > 0 && b > 0 */\n    tag_80:\n        /* \"contracts/Practical_14.sol\":878:887  andResult */\n      0x05\n      0x06\n        /* \"contracts/Practical_14.sol\":878:906  andResult = (a > 0 && b > 0) */\n      0x0100\n      exp\n      dup2\n      sload\n      dup2\n      0xff\n      mul\n      not\n      and\n      swap1\n      dup4\n      iszero\n      iszero\n      mul\n      or\n      swap1\n      sstore\n      pop\n        /* \"contracts/Practical_14.sol\":933:934  0 */\n      0x00\n        /* \"contracts/Practical_14.sol\":929:930  a */\n      dup3\n        /* \"contracts/Practical_14.sol\":929:934  a > 0 */\n      gt\n        /* \"contracts/Practical_14.sol\":929:943  a > 0 || b > 0 */\n      dup1\n      tag_81\n      jumpi\n      pop\n        /* \"contracts/Practical_14.sol\":942:943  0 */\n      0x00\n        /* \"contracts/Practical_14.sol\":938:939  b */\n      dup2\n        /* \"contracts/Practical_14.sol\":938:943  b > 0 */\n      gt\n        /* \"contracts/Practical_14.sol\":929:943  a > 0 || b > 0 */\n    tag_81:\n        /* \"contracts/Practical_14.sol\":917:925  orResult */\n      0x05\n      0x07\n        /* \"contracts/Practical_14.sol\":917:944  orResult = (a > 0 || b > 0) */\n      0x0100\n      exp\n      dup2\n      sload\n      dup2\n      0xff\n      mul\n      not\n      and\n      swap1\n      dup4\n      iszero\n      iszero\n      mul\n      or\n      swap1\n      sstore\n      pop\n        /* \"contracts/Practical_14.sol\":973:974  0 */\n      0x00\n        /* \"contracts/Practical_14.sol\":969:970  a */\n      dup3\n        /* \"contracts/Practical_14.sol\":969:974  a > 0 */\n      gt\n        /* \"contracts/Practical_14.sol\":967:975  !(a > 0) */\n      iszero\n        /* \"contracts/Practical_14.sol\":955:964  notResult */\n      0x05\n      0x08\n        /* \"contracts/Practical_14.sol\":955:975  notResult = !(a > 0) */\n      0x0100\n      exp\n      dup2\n      sload\n      dup2\n      0xff\n      mul\n      not\n      and\n      swap1\n      dup4\n      iszero\n      iszero\n      mul\n      or\n      swap1\n      sstore\n      pop\n        /* \"contracts/Practical_14.sol\":498:983  function calculate(uint256 a, uint256 b) public {... */\n      pop\n      pop\n      jump\t// out\n        /* \"contracts/Practical_14.sol\":186:210  uint256 public divResult */\n    tag_58:\n      sload(0x03)\n      dup2\n      jump\t// out\n        /* \"contracts/Practical_14.sol\":441:461  bool public orResult */\n    tag_61:\n      0x05\n      0x07\n      swap1\n      sload\n      swap1\n      0x0100\n      exp\n      swap1\n      div\n      0xff\n      and\n      dup2\n      jump\t// out\n        /* \"contracts/Practical_14.sol\":303:323  bool public gtResult */\n    tag_64:\n      0x05\n      0x02\n      swap1\n      sload\n      swap1\n      0x0100\n      exp\n      swap1\n      div\n      0xff\n      and\n      dup2\n      jump\t// out\n        /* \"contracts/Practical_14.sol\":275:296  bool public neqResult */\n    tag_67:\n      0x05\n      0x01\n      swap1\n      sload\n      swap1\n      0x0100\n      exp\n      swap1\n      div\n      0xff\n      and\n      dup2\n      jump\t// out\n        /* \"#utility.yul\":7:97   */\n    tag_82:\n        /* \"#utility.yul\":41:48   */\n      0x00\n        /* \"#utility.yul\":84:89   */\n      dup2\n        /* \"#utility.yul\":77:90   */\n      iszero\n        /* \"#utility.yul\":70:91   */\n      iszero\n        /* \"#utility.yul\":59:91   */\n      swap1\n      pop\n        /* \"#utility.yul\":7:97   */\n      swap2\n      swap1\n      pop\n      jump\t// out\n        /* \"#utility.yul\":103:212   */\n    tag_83:\n        /* \"#utility.yul\":184:205   */\n      tag_96\n        /* \"#utility.yul\":199:204   */\n      dup2\n        /* \"#utility.yul\":184:205   */\n      tag_82\n      jump\t// in\n    tag_96:\n        /* \"#utility.yul\":179:182   */\n      dup3\n        /* \"#utility.yul\":172:206   */\n      mstore\n        /* \"#utility.yul\":103:212   */\n      pop\n      pop\n      jump\t// out\n        /* \"#utility.yul\":218:428   */\n    tag_24:\n        /* \"#utility.yul\":305:309   */\n      0x00\n        /* \"#utility.yul\":343:345   */\n      0x20\n        /* \"#utility.yul\":332:341   */\n      dup3\n        /* \"#utility.yul\":328:346   */\n      add\n        /* \"#utility.yul\":320:346   */\n      swap1\n      pop\n        /* \"#utility.yul\":356:421   */\n      tag_98\n        /* \"#utility.yul\":418:419   */\n      0x00\n        /* \"#utility.yul\":407:416   */\n      dup4\n        /* \"#utility.yul\":403:420   */\n      add\n        /* \"#utility.yul\":394:400   */\n      dup5\n        /* \"#utility.yul\":356:421   */\n      tag_83\n      jump\t// in\n    tag_98:\n        /* \"#utility.yul\":218:428   */\n      swap3\n      swap2\n      pop\n      pop\n      jump\t// out\n        /* \"#utility.yul\":434:511   */\n    tag_84:\n        /* \"#utility.yul\":471:478   */\n      0x00\n        /* \"#utility.yul\":500:505   */\n      dup2\n        /* \"#utility.yul\":489:505   */\n      swap1\n      pop\n        /* \"#utility.yul\":434:511   */\n      swap2\n      swap1\n      pop\n      jump\t// out\n        /* \"#utility.yul\":517:635   */\n    tag_85:\n        /* \"#utility.yul\":604:628   */\n      tag_101\n        /* \"#utility.yul\":622:627   */\n      dup2\n        /* \"#utility.yul\":604:628   */\n      tag_84\n      jump\t// in\n    tag_101:\n        /* \"#utility.yul\":599:602   */\n      dup3\n        /* \"#utility.yul\":592:629   */\n      mstore\n        /* \"#utility.yul\":517:635   */\n      pop\n      pop\n      jump\t// out\n        /* \"#utility.yul\":641:863   */\n    tag_28:\n        /* \"#utility.yul\":734:738   */\n      0x00\n        /* \"#utility.yul\":772:774   */\n      0x20\n        /* \"#utility.yul\":761:770   */\n      dup3\n        /* \"#utility.yul\":757:775   */\n      add\n        /* \"#utility.yul\":749:775   */\n      swap1\n      pop\n        /* \"#utility.yul\":785:856   */\n      tag_103\n        /* \"#utility.yul\":853:854   */\n      0x00\n        /* \"#utility.yul\":842:851   */\n      dup4\n        /* \"#utility.yul\":838:855   */\n      add\n        /* \"#utility.yul\":829:835   */\n      dup5\n        /* \"#utility.yul\":785:856   */\n      tag_85\n      jump\t// in\n    tag_103:\n        /* \"#utility.yul\":641:863   */\n      swap3\n      swap2\n      pop\n      pop\n      jump\t// out\n        /* \"#utility.yul\":950:1067   */\n    tag_87:\n        /* \"#utility.yul\":1059:1060   */\n      0x00\n        /* \"#utility.yul\":1056:1057   */\n      dup1\n        /* \"#utility.yul\":1049:1061   */\n      revert\n        /* \"#utility.yul\":1196:1318   */\n    tag_89:\n        /* \"#utility.yul\":1269:1293   */\n      tag_108\n        /* \"#utility.yul\":1287:1292   */\n      dup2\n        /* \"#utility.yul\":1269:1293   */\n      tag_84\n      jump\t// in\n    tag_108:\n        /* \"#utility.yul\":1262:1267   */\n      dup2\n        /* \"#utility.yul\":1259:1294   */\n      eq\n        /* \"#utility.yul\":1249:1312   */\n      tag_109\n      jumpi\n        /* \"#utility.yul\":1308:1309   */\n      0x00\n        /* \"#utility.yul\":1305:1306   */\n      dup1\n        /* \"#utility.yul\":1298:1310   */\n      revert\n        /* \"#utility.yul\":1249:1312   */\n    tag_109:\n        /* \"#utility.yul\":1196:1318   */\n      pop\n      jump\t// out\n        /* \"#utility.yul\":1324:1463   */\n    tag_90:\n        /* \"#utility.yul\":1370:1375   */\n      0x00\n        /* \"#utility.yul\":1408:1414   */\n      dup2\n        /* \"#utility.yul\":1395:1415   */\n      calldataload\n        /* \"#utility.yul\":1386:1415   */\n      swap1\n      pop\n        /* \"#utility.yul\":1424:1457   */\n      tag_111\n        /* \"#utility.yul\":1451:1456   */\n      dup2\n        /* \"#utility.yul\":1424:1457   */\n      tag_89\n      jump\t// in\n    tag_111:\n        /* \"#utility.yul\":1324:1463   */\n      swap3\n      swap2\n      pop\n      pop\n      jump\t// out\n        /* \"#utility.yul\":1469:1943   */\n    tag_55:\n        /* \"#utility.yul\":1537:1543   */\n      0x00\n        /* \"#utility.yul\":1545:1551   */\n      dup1\n        /* \"#utility.yul\":1594:1596   */\n      0x40\n        /* \"#utility.yul\":1582:1591   */\n      dup4\n        /* \"#utility.yul\":1573:1580   */\n      dup6\n        /* \"#utility.yul\":1569:1592   */\n      sub\n        /* \"#utility.yul\":1565:1597   */\n      slt\n        /* \"#utility.yul\":1562:1681   */\n      iszero\n      tag_113\n      jumpi\n        /* \"#utility.yul\":1600:1679   */\n      tag_114\n      tag_87\n      jump\t// in\n    tag_114:\n        /* \"#utility.yul\":1562:1681   */\n    tag_113:\n        /* \"#utility.yul\":1720:1721   */\n      0x00\n        /* \"#utility.yul\":1745:1798   */\n      tag_115\n        /* \"#utility.yul\":1790:1797   */\n      dup6\n        /* \"#utility.yul\":1781:1787   */\n      dup3\n        /* \"#utility.yul\":1770:1779   */\n      dup7\n        /* \"#utility.yul\":1766:1788   */\n      add\n        /* \"#utility.yul\":1745:1798   */\n      tag_90\n      jump\t// in\n    tag_115:\n        /* \"#utility.yul\":1735:1798   */\n      swap3\n      pop\n        /* \"#utility.yul\":1691:1808   */\n      pop\n        /* \"#utility.yul\":1847:1849   */\n      0x20\n        /* \"#utility.yul\":1873:1926   */\n      tag_116\n        /* \"#utility.yul\":1918:1925   */\n      dup6\n        /* \"#utility.yul\":1909:1915   */\n      dup3\n        /* \"#utility.yul\":1898:1907   */\n      dup7\n        /* \"#utility.yul\":1894:1916   */\n      add\n        /* \"#utility.yul\":1873:1926   */\n      tag_90\n      jump\t// in\n    tag_116:\n        /* \"#utility.yul\":1863:1926   */\n      swap2\n      pop\n        /* \"#utility.yul\":1818:1936   */\n      pop\n        /* \"#utility.yul\":1469:1943   */\n      swap3\n      pop\n      swap3\n      swap1\n      pop\n      jump\t// out\n        /* \"#utility.yul\":1949:2129   */\n    tag_91:\n        /* \"#utility.yul\":1997:2074   */\n      0x4e487b7100000000000000000000000000000000000000000000000000000000\n        /* \"#utility.yul\":1994:1995   */\n      0x00\n        /* \"#utility.yul\":1987:2075   */\n      mstore\n        /* \"#utility.yul\":2094:2098   */\n      0x11\n        /* \"#utility.yul\":2091:2092   */\n      0x04\n        /* \"#utility.yul\":2084:2099   */\n      mstore\n        /* \"#utility.yul\":2118:2122   */\n      0x24\n        /* \"#utility.yul\":2115:2116   */\n      0x00\n        /* \"#utility.yul\":2108:2123   */\n      revert\n        /* \"#utility.yul\":2135:2326   */\n    tag_71:\n        /* \"#utility.yul\":2175:2178   */\n      0x00\n        /* \"#utility.yul\":2194:2214   */\n      tag_119\n        /* \"#utility.yul\":2212:2213   */\n      dup3\n        /* \"#utility.yul\":2194:2214   */\n      tag_84\n      jump\t// in\n    tag_119:\n        /* \"#utility.yul\":2189:2214   */\n      swap2\n      pop\n        /* \"#utility.yul\":2228:2248   */\n      tag_120\n        /* \"#utility.yul\":2246:2247   */\n      dup4\n        /* \"#utility.yul\":2228:2248   */\n      tag_84\n      jump\t// in\n    tag_120:\n        /* \"#utility.yul\":2223:2248   */\n      swap3\n      pop\n        /* \"#utility.yul\":2271:2272   */\n      dup3\n        /* \"#utility.yul\":2268:2269   */\n      dup3\n        /* \"#utility.yul\":2264:2273   */\n      add\n        /* \"#utility.yul\":2257:2273   */\n      swap1\n      pop\n        /* \"#utility.yul\":2292:2295   */\n      dup1\n        /* \"#utility.yul\":2289:2290   */\n      dup3\n        /* \"#utility.yul\":2286:2296   */\n      gt\n        /* \"#utility.yul\":2283:2319   */\n      iszero\n      tag_121\n      jumpi\n        /* \"#utility.yul\":2299:2317   */\n      tag_122\n      tag_91\n      jump\t// in\n    tag_122:\n        /* \"#utility.yul\":2283:2319   */\n    tag_121:\n        /* \"#utility.yul\":2135:2326   */\n      swap3\n      swap2\n      pop\n      pop\n      jump\t// out\n        /* \"#utility.yul\":2332:2526   */\n    tag_73:\n        /* \"#utility.yul\":2372:2376   */\n      0x00\n        /* \"#utility.yul\":2392:2412   */\n      tag_124\n        /* \"#utility.yul\":2410:2411   */\n      dup3\n        /* \"#utility.yul\":2392:2412   */\n      tag_84\n      jump\t// in\n    tag_124:\n        /* \"#utility.yul\":2387:2412   */\n      swap2\n      pop\n        /* \"#utility.yul\":2426:2446   */\n      tag_125\n        /* \"#utility.yul\":2444:2445   */\n      dup4\n        /* \"#utility.yul\":2426:2446   */\n      tag_84\n      jump\t// in\n    tag_125:\n        /* \"#utility.yul\":2421:2446   */\n      swap3\n      pop\n        /* \"#utility.yul\":2470:2471   */\n      dup3\n        /* \"#utility.yul\":2467:2468   */\n      dup3\n        /* \"#utility.yul\":2463:2472   */\n      sub\n        /* \"#utility.yul\":2455:2472   */\n      swap1\n      pop\n        /* \"#utility.yul\":2494:2495   */\n      dup2\n        /* \"#utility.yul\":2488:2492   */\n      dup2\n        /* \"#utility.yul\":2485:2496   */\n      gt\n        /* \"#utility.yul\":2482:2519   */\n      iszero\n      tag_126\n      jumpi\n        /* \"#utility.yul\":2499:2517   */\n      tag_127\n      tag_91\n      jump\t// in\n    tag_127:\n        /* \"#utility.yul\":2482:2519   */\n    tag_126:\n        /* \"#utility.yul\":2332:2526   */\n      swap3\n      swap2\n      pop\n      pop\n      jump\t// out\n        /* \"#utility.yul\":2532:2942   */\n    tag_75:\n        /* \"#utility.yul\":2572:2579   */\n      0x00\n        /* \"#utility.yul\":2595:2615   */\n      tag_129\n        /* \"#utility.yul\":2613:2614   */\n      dup3\n        /* \"#utility.yul\":2595:2615   */\n      tag_84\n      jump\t// in\n    tag_129:\n        /* \"#utility.yul\":2590:2615   */\n      swap2\n      pop\n        /* \"#utility.yul\":2629:2649   */\n      tag_130\n        /* \"#utility.yul\":2647:2648   */\n      dup4\n        /* \"#utility.yul\":2629:2649   */\n      tag_84\n      jump\t// in\n    tag_130:\n        /* \"#utility.yul\":2624:2649   */\n      swap3\n      pop\n        /* \"#utility.yul\":2684:2685   */\n      dup3\n        /* \"#utility.yul\":2681:2682   */\n      dup3\n        /* \"#utility.yul\":2677:2686   */\n      mul\n        /* \"#utility.yul\":2706:2736   */\n      tag_131\n        /* \"#utility.yul\":2724:2735   */\n      dup2\n        /* \"#utility.yul\":2706:2736   */\n      tag_84\n      jump\t// in\n    tag_131:\n        /* \"#utility.yul\":2695:2736   */\n      swap2\n      pop\n        /* \"#utility.yul\":2885:2886   */\n      dup3\n        /* \"#utility.yul\":2876:2883   */\n      dup3\n        /* \"#utility.yul\":2872:2887   */\n      div\n        /* \"#utility.yul\":2869:2870   */\n      dup5\n        /* \"#utility.yul\":2866:2888   */\n      eq\n        /* \"#utility.yul\":2846:2847   */\n      dup4\n        /* \"#utility.yul\":2839:2848   */\n      iszero\n        /* \"#utility.yul\":2819:2902   */\n      or\n        /* \"#utility.yul\":2796:2935   */\n      tag_132\n      jumpi\n        /* \"#utility.yul\":2915:2933   */\n      tag_133\n      tag_91\n      jump\t// in\n    tag_133:\n        /* \"#utility.yul\":2796:2935   */\n    tag_132:\n        /* \"#utility.yul\":2580:2942   */\n      pop\n        /* \"#utility.yul\":2532:2942   */\n      swap3\n      swap2\n      pop\n      pop\n      jump\t// out\n        /* \"#utility.yul\":2948:3128   */\n    tag_92:\n        /* \"#utility.yul\":2996:3073   */\n      0x4e487b7100000000000000000000000000000000000000000000000000000000\n        /* \"#utility.yul\":2993:2994   */\n      0x00\n        /* \"#utility.yul\":2986:3074   */\n      mstore\n        /* \"#utility.yul\":3093:3097   */\n      0x12\n        /* \"#utility.yul\":3090:3091   */\n      0x04\n        /* \"#utility.yul\":3083:3098   */\n      mstore\n        /* \"#utility.yul\":3117:3121   */\n      0x24\n        /* \"#utility.yul\":3114:3115   */\n      0x00\n        /* \"#utility.yul\":3107:3122   */\n      revert\n        /* \"#utility.yul\":3134:3319   */\n    tag_77:\n        /* \"#utility.yul\":3174:3175   */\n      0x00\n        /* \"#utility.yul\":3191:3211   */\n      tag_136\n        /* \"#utility.yul\":3209:3210   */\n      dup3\n        /* \"#utility.yul\":3191:3211   */\n      tag_84\n      jump\t// in\n    tag_136:\n        /* \"#utility.yul\":3186:3211   */\n      swap2\n      pop\n        /* \"#utility.yul\":3225:3245   */\n      tag_137\n        /* \"#utility.yul\":3243:3244   */\n      dup4\n        /* \"#utility.yul\":3225:3245   */\n      tag_84\n      jump\t// in\n    tag_137:\n        /* \"#utility.yul\":3220:3245   */\n      swap3\n      pop\n        /* \"#utility.yul\":3264:3265   */\n      dup3\n        /* \"#utility.yul\":3254:3289   */\n      tag_138\n      jumpi\n        /* \"#utility.yul\":3269:3287   */\n      tag_139\n      tag_92\n      jump\t// in\n    tag_139:\n        /* \"#utility.yul\":3254:3289   */\n    tag_138:\n        /* \"#utility.yul\":3311:3312   */\n      dup3\n        /* \"#utility.yul\":3308:3309   */\n      dup3\n        /* \"#utility.yul\":3304:3313   */\n      div\n        /* \"#utility.yul\":3299:3313   */\n      swap1\n      pop\n        /* \"#utility.yul\":3134:3319   */\n      swap3\n      swap2\n      pop\n      pop\n      jump\t// out\n        /* \"#utility.yul\":3325:3501   */\n    tag_79:\n        /* \"#utility.yul\":3357:3358   */\n      0x00\n        /* \"#utility.yul\":3374:3394   */\n      tag_141\n        /* \"#utility.yul\":3392:3393   */\n      dup3\n        /* \"#utility.yul\":3374:3394   */\n      tag_84\n      jump\t// in\n    tag_141:\n        /* \"#utility.yul\":3369:3394   */\n      swap2\n      pop\n        /* \"#utility.yul\":3408:3428   */\n      tag_142\n        /* \"#utility.yul\":3426:3427   */\n      dup4\n        /* \"#utility.yul\":3408:3428   */\n      tag_84\n      jump\t// in\n    tag_142:\n        /* \"#utility.yul\":3403:3428   */\n      swap3\n      pop\n        /* \"#utility.yul\":3447:3448   */\n      dup3\n        /* \"#utility.yul\":3437:3472   */\n      tag_143\n      jumpi\n        /* \"#utility.yul\":3452:3470   */\n      tag_144\n      tag_92\n      jump\t// in\n    tag_144:\n        /* \"#utility.yul\":3437:3472   */\n    tag_143:\n        /* \"#utility.yul\":3493:3494   */\n      dup3\n        /* \"#utility.yul\":3490:3491   */\n      dup3\n        /* \"#utility.yul\":3486:3495   */\n      mod\n        /* \"#utility.yul\":3481:3495   */\n      swap1\n      pop\n        /* \"#utility.yul\":3325:3501   */\n      swap3\n      swap2\n      pop\n      pop\n      jump\t// out\n\n    auxdata: 0xa26469706673582212209b654cb45a71da78fef746c069cfed5cd68369430621b555a7aa9ac36eaf758b64736f6c634300081a0033\n}\n",
				"bytecode": {
					"linkReferences": {},
					"object": "6080604052348015600e575f80fd5b506107538061001c5f395ff3fe608060405234801561000f575f80fd5b50600436106100f3575f3560e01c8063439c6a79116100955780639e542610116100645780639e5426101461023f578063a4726a741461025d578063c9cc05581461027b578063e05ac5a414610299576100f3565b8063439c6a79146101c9578063533a88b3146101e7578063796e499e146102055780638dfa436314610223576100f3565b80632f94237c116100d15780632f94237c14610151578063399d19df1461016f578063411966b21461018d578063425fbb68146101ab576100f3565b806309b30175146100f75780630a9412bd146101155780632a94be8814610133575b5f80fd5b6100ff6102b7565b60405161010c9190610506565b60405180910390f35b61011d6102c9565b60405161012a9190610537565b60405180910390f35b61013b6102cf565b6040516101489190610506565b60405180910390f35b6101596102e2565b6040516101669190610506565b60405180910390f35b6101776102f5565b6040516101849190610506565b60405180910390f35b610195610308565b6040516101a29190610506565b60405180910390f35b6101b3610319565b6040516101c09190610537565b60405180910390f35b6101d161031f565b6040516101de9190610537565b60405180910390f35b6101ef610325565b6040516101fc9190610537565b60405180910390f35b61020d61032a565b60405161021a9190610506565b60405180910390f35b61023d6004803603810190610238919061057e565b61033d565b005b6102476104ad565b6040516102549190610537565b60405180910390f35b6102656104b3565b6040516102729190610506565b60405180910390f35b6102836104c6565b6040516102909190610506565b60405180910390f35b6102a16104d9565b6040516102ae9190610506565b60405180910390f35b60055f9054906101000a900460ff1681565b60015481565b600560039054906101000a900460ff1681565b600560049054906101000a900460ff1681565b600560069054906101000a900460ff1681565b60058054906101000a900460ff1681565b60025481565b60045481565b5f5481565b600560089054906101000a900460ff1681565b808261034991906105e9565b5f81905550808261035a919061061c565b600181905550808261036c919061064f565b600281905550808261037e91906106bd565b600381905550808261039091906106ed565b60048190555080821460055f6101000a81548160ff02191690831515021790555080821415600560016101000a81548160ff021916908315150217905550808211600560026101000a81548160ff021916908315150217905550808210600560036101000a81548160ff02191690831515021790555080821015600560046101000a81548160ff021916908315150217905550808211156005806101000a81548160ff0219169083151502179055505f8211801561044d57505f81115b600560066101000a81548160ff0219169083151502179055505f82118061047357505f81115b600560076101000a81548160ff0219169083151502179055505f821115600560086101000a81548160ff0219169083151502179055505050565b60035481565b600560079054906101000a900460ff1681565b600560029054906101000a900460ff1681565b600560019054906101000a900460ff1681565b5f8115159050919050565b610500816104ec565b82525050565b5f6020820190506105195f8301846104f7565b92915050565b5f819050919050565b6105318161051f565b82525050565b5f60208201905061054a5f830184610528565b92915050565b5f80fd5b61055d8161051f565b8114610567575f80fd5b50565b5f8135905061057881610554565b92915050565b5f806040838503121561059457610593610550565b5b5f6105a18582860161056a565b92505060206105b28582860161056a565b9150509250929050565b7f4e487b71000000000000000000000000000000000000000000000000000000005f52601160045260245ffd5b5f6105f38261051f565b91506105fe8361051f565b9250828201905080821115610616576106156105bc565b5b92915050565b5f6106268261051f565b91506106318361051f565b9250828203905081811115610649576106486105bc565b5b92915050565b5f6106598261051f565b91506106648361051f565b92508282026106728161051f565b91508282048414831517610689576106886105bc565b5b5092915050565b7f4e487b71000000000000000000000000000000000000000000000000000000005f52601260045260245ffd5b5f6106c78261051f565b91506106d28361051f565b9250826106e2576106e1610690565b5b828204905092915050565b5f6106f78261051f565b91506107028361051f565b92508261071257610711610690565b5b82820690509291505056fea26469706673582212209b654cb45a71da78fef746c069cfed5cd68369430621b555a7aa9ac36eaf758b64736f6c634300081a0033",
					"opcodes": "PUSH1 0x80 PUSH1 0x40 MSTORE CALLVALUE DUP1 ISZERO PUSH1 0xE JUMPI PUSH0 DUP1 REVERT JUMPDEST POP PUSH2 0x753 DUP1 PUSH2 0x1C PUSH0 CODECOPY PUSH0 RETURN INVALID PUSH1 0x80 PUSH1 0x40 MSTORE CALLVALUE DUP1 ISZERO PUSH2 0xF JUMPI PUSH0 DUP1 REVERT JUMPDEST POP PUSH1 0x4 CALLDATASIZE LT PUSH2 0xF3 JUMPI PUSH0 CALLDATALOAD PUSH1 0xE0 SHR DUP1 PUSH4 0x439C6A79 GT PUSH2 0x95 JUMPI DUP1 PUSH4 0x9E542610 GT PUSH2 0x64 JUMPI DUP1 PUSH4 0x9E542610 EQ PUSH2 0x23F JUMPI DUP1 PUSH4 0xA4726A74 EQ PUSH2 0x25D JUMPI DUP1 PUSH4 0xC9CC0558 EQ PUSH2 0x27B JUMPI DUP1 PUSH4 0xE05AC5A4 EQ PUSH2 0x299 JUMPI PUSH2 0xF3 JUMP JUMPDEST DUP1 PUSH4 0x439C6A79 EQ PUSH2 0x1C9 JUMPI DUP1 PUSH4 0x533A88B3 EQ PUSH2 0x1E7 JUMPI DUP1 PUSH4 0x796E499E EQ PUSH2 0x205 JUMPI DUP1 PUSH4 0x8DFA4363 EQ PUSH2 0x223 JUMPI PUSH2 0xF3 JUMP JUMPDEST DUP1 PUSH4 0x2F94237C GT PUSH2 0xD1 JUMPI DUP1 PUSH4 0x2F94237C EQ PUSH2 0x151 JUMPI DUP1 PUSH4 0x399D19DF EQ PUSH2 0x16F JUMPI DUP1 PUSH4 0x411966B2 EQ PUSH2 0x18D JUMPI DUP1 PUSH4 0x425FBB68 EQ PUSH2 0x1AB JUMPI PUSH2 0xF3 JUMP JUMPDEST DUP1 PUSH4 0x9B30175 EQ PUSH2 0xF7 JUMPI DUP1 PUSH4 0xA9412BD EQ PUSH2 0x115 JUMPI DUP1 PUSH4 0x2A94BE88 EQ PUSH2 0x133 JUMPI JUMPDEST PUSH0 DUP1 REVERT JUMPDEST PUSH2 0xFF PUSH2 0x2B7 JUMP JUMPDEST PUSH1 0x40 MLOAD PUSH2 0x10C SWAP2 SWAP1 PUSH2 0x506 JUMP JUMPDEST PUSH1 0x40 MLOAD DUP1 SWAP2 SUB SWAP1 RETURN JUMPDEST PUSH2 0x11D PUSH2 0x2C9 JUMP JUMPDEST PUSH1 0x40 MLOAD PUSH2 0x12A SWAP2 SWAP1 PUSH2 0x537 JUMP JUMPDEST PUSH1 0x40 MLOAD DUP1 SWAP2 SUB SWAP1 RETURN JUMPDEST PUSH2 0x13B PUSH2 0x2CF JUMP JUMPDEST PUSH1 0x40 MLOAD PUSH2 0x148 SWAP2 SWAP1 PUSH2 0x506 JUMP JUMPDEST PUSH1 0x40 MLOAD DUP1 SWAP2 SUB SWAP1 RETURN JUMPDEST PUSH2 0x159 PUSH2 0x2E2 JUMP JUMPDEST PUSH1 0x40 MLOAD PUSH2 0x166 SWAP2 SWAP1 PUSH2 0x506 JUMP JUMPDEST PUSH1 0x40 MLOAD DUP1 SWAP2 SUB SWAP1 RETURN JUMPDEST PUSH2 0x177 PUSH2 0x2F5 JUMP JUMPDEST PUSH1 0x40 MLOAD PUSH2 0x184 SWAP2 SWAP1 PUSH2 0x506 JUMP JUMPDEST PUSH1 0x40 MLOAD DUP1 SWAP2 SUB SWAP1 RETURN JUMPDEST PUSH2 0x195 PUSH2 0x308 JUMP JUMPDEST PUSH1 0x40 MLOAD PUSH2 0x1A2 SWAP2 SWAP1 PUSH2 0x506 JUMP JUMPDEST PUSH1 0x40 MLOAD DUP1 SWAP2 SUB SWAP1 RETURN JUMPDEST PUSH2 0x1B3 PUSH2 0x319 JUMP JUMPDEST PUSH1 0x40 MLOAD PUSH2 0x1C0 SWAP2 SWAP1 PUSH2 0x537 JUMP JUMPDEST PUSH1 0x40 MLOAD DUP1 SWAP2 SUB SWAP1 RETURN JUMPDEST PUSH2 0x1D1 PUSH2 0x31F JUMP JUMPDEST PUSH1 0x40 MLOAD PUSH2 0x1DE SWAP2 SWAP1 PUSH2 0x537 JUMP JUMPDEST PUSH1 0x40 MLOAD DUP1 SWAP2 SUB SWAP1 RETURN JUMPDEST PUSH2 0x1EF PUSH2 0x325 JUMP JUMPDEST PUSH1 0x40 MLOAD PUSH2 0x1FC SWAP2 SWAP1 PUSH2 0x537 JUMP JUMPDEST PUSH1 0x40 MLOAD DUP1 SWAP2 SUB SWAP1 RETURN JUMPDEST PUSH2 0x20D PUSH2 0x32A JUMP JUMPDEST PUSH1 0x40 MLOAD PUSH2 0x21A SWAP2 SWAP1 PUSH2 0x506 JUMP JUMPDEST PUSH1 0x40 MLOAD DUP1 SWAP2 SUB SWAP1 RETURN JUMPDEST PUSH2 0x23D PUSH1 0x4 DUP1 CALLDATASIZE SUB DUP2 ADD SWAP1 PUSH2 0x238 SWAP2 SWAP1 PUSH2 0x57E JUMP JUMPDEST PUSH2 0x33D JUMP JUMPDEST STOP JUMPDEST PUSH2 0x247 PUSH2 0x4AD JUMP JUMPDEST PUSH1 0x40 MLOAD PUSH2 0x254 SWAP2 SWAP1 PUSH2 0x537 JUMP JUMPDEST PUSH1 0x40 MLOAD DUP1 SWAP2 SUB SWAP1 RETURN JUMPDEST PUSH2 0x265 PUSH2 0x4B3 JUMP JUMPDEST PUSH1 0x40 MLOAD PUSH2 0x272 SWAP2 SWAP1 PUSH2 0x506 JUMP JUMPDEST PUSH1 0x40 MLOAD DUP1 SWAP2 SUB SWAP1 RETURN JUMPDEST PUSH2 0x283 PUSH2 0x4C6 JUMP JUMPDEST PUSH1 0x40 MLOAD PUSH2 0x290 SWAP2 SWAP1 PUSH2 0x506 JUMP JUMPDEST PUSH1 0x40 MLOAD DUP1 SWAP2 SUB SWAP1 RETURN JUMPDEST PUSH2 0x2A1 PUSH2 0x4D9 JUMP JUMPDEST PUSH1 0x40 MLOAD PUSH2 0x2AE SWAP2 SWAP1 PUSH2 0x506 JUMP JUMPDEST PUSH1 0x40 MLOAD DUP1 SWAP2 SUB SWAP1 RETURN JUMPDEST PUSH1 0x5 PUSH0 SWAP1 SLOAD SWAP1 PUSH2 0x100 EXP SWAP1 DIV PUSH1 0xFF AND DUP2 JUMP JUMPDEST PUSH1 0x1 SLOAD DUP2 JUMP JUMPDEST PUSH1 0x5 PUSH1 0x3 SWAP1 SLOAD SWAP1 PUSH2 0x100 EXP SWAP1 DIV PUSH1 0xFF AND DUP2 JUMP JUMPDEST PUSH1 0x5 PUSH1 0x4 SWAP1 SLOAD SWAP1 PUSH2 0x100 EXP SWAP1 DIV PUSH1 0xFF AND DUP2 JUMP JUMPDEST PUSH1 0x5 PUSH1 0x6 SWAP1 SLOAD SWAP1 PUSH2 0x100 EXP SWAP1 DIV PUSH1 0xFF AND DUP2 JUMP JUMPDEST PUSH1 0x5 DUP1 SLOAD SWAP1 PUSH2 0x100 EXP SWAP1 DIV PUSH1 0xFF AND DUP2 JUMP JUMPDEST PUSH1 0x2 SLOAD DUP2 JUMP JUMPDEST PUSH1 0x4 SLOAD DUP2 JUMP JUMPDEST PUSH0 SLOAD DUP2 JUMP JUMPDEST PUSH1 0x5 PUSH1 0x8 SWAP1 SLOAD SWAP1 PUSH2 0x100 EXP SWAP1 DIV PUSH1 0xFF AND DUP2 JUMP JUMPDEST DUP1 DUP3 PUSH2 0x349 SWAP2 SWAP1 PUSH2 0x5E9 JUMP JUMPDEST PUSH0 DUP2 SWAP1 SSTORE POP DUP1 DUP3 PUSH2 0x35A SWAP2 SWAP1 PUSH2 0x61C JUMP JUMPDEST PUSH1 0x1 DUP2 SWAP1 SSTORE POP DUP1 DUP3 PUSH2 0x36C SWAP2 SWAP1 PUSH2 0x64F JUMP JUMPDEST PUSH1 0x2 DUP2 SWAP1 SSTORE POP DUP1 DUP3 PUSH2 0x37E SWAP2 SWAP1 PUSH2 0x6BD JUMP JUMPDEST PUSH1 0x3 DUP2 SWAP1 SSTORE POP DUP1 DUP3 PUSH2 0x390 SWAP2 SWAP1 PUSH2 0x6ED JUMP JUMPDEST PUSH1 0x4 DUP2 SWAP1 SSTORE POP DUP1 DUP3 EQ PUSH1 0x5 PUSH0 PUSH2 0x100 EXP DUP2 SLOAD DUP2 PUSH1 0xFF MUL NOT AND SWAP1 DUP4 ISZERO ISZERO MUL OR SWAP1 SSTORE POP DUP1 DUP3 EQ ISZERO PUSH1 0x5 PUSH1 0x1 PUSH2 0x100 EXP DUP2 SLOAD DUP2 PUSH1 0xFF MUL NOT AND SWAP1 DUP4 ISZERO ISZERO MUL OR SWAP1 SSTORE POP DUP1 DUP3 GT PUSH1 0x5 PUSH1 0x2 PUSH2 0x100 EXP DUP2 SLOAD DUP2 PUSH1 0xFF MUL NOT AND SWAP1 DUP4 ISZERO ISZERO MUL OR SWAP1 SSTORE POP DUP1 DUP3 LT PUSH1 0x5 PUSH1 0x3 PUSH2 0x100 EXP DUP2 SLOAD DUP2 PUSH1 0xFF MUL NOT AND SWAP1 DUP4 ISZERO ISZERO MUL OR SWAP1 SSTORE POP DUP1 DUP3 LT ISZERO PUSH1 0x5 PUSH1 0x4 PUSH2 0x100 EXP DUP2 SLOAD DUP2 PUSH1 0xFF MUL NOT AND SWAP1 DUP4 ISZERO ISZERO MUL OR SWAP1 SSTORE POP DUP1 DUP3 GT ISZERO PUSH1 0x5 DUP1 PUSH2 0x100 EXP DUP2 SLOAD DUP2 PUSH1 0xFF MUL NOT AND SWAP1 DUP4 ISZERO ISZERO MUL OR SWAP1 SSTORE POP PUSH0 DUP3 GT DUP1 ISZERO PUSH2 0x44D JUMPI POP PUSH0 DUP2 GT JUMPDEST PUSH1 0x5 PUSH1 0x6 PUSH2 0x100 EXP DUP2 SLOAD DUP2 PUSH1 0xFF MUL NOT AND SWAP1 DUP4 ISZERO ISZERO MUL OR SWAP1 SSTORE POP PUSH0 DUP3 GT DUP1 PUSH2 0x473 JUMPI POP PUSH0 DUP2 GT JUMPDEST PUSH1 0x5 PUSH1 0x7 PUSH2 0x100 EXP DUP2 SLOAD DUP2 PUSH1 0xFF MUL NOT AND SWAP1 DUP4 ISZERO ISZERO MUL OR SWAP1 SSTORE POP PUSH0 DUP3 GT ISZERO PUSH1 0x5 PUSH1 0x8 PUSH2 0x100 EXP DUP2 SLOAD DUP2 PUSH1 0xFF MUL NOT AND SWAP1 DUP4 ISZERO ISZERO MUL OR SWAP1 SSTORE POP POP POP JUMP JUMPDEST PUSH1 0x3 SLOAD DUP2 JUMP JUMPDEST PUSH1 0x5 PUSH1 0x7 SWAP1 SLOAD SWAP1 PUSH2 0x100 EXP SWAP1 DIV PUSH1 0xFF AND DUP2 JUMP JUMPDEST PUSH1 0x5 PUSH1 0x2 SWAP1 SLOAD SWAP1 PUSH2 0x100 EXP SWAP1 DIV PUSH1 0xFF AND DUP2 JUMP JUMPDEST PUSH1 0x5 PUSH1 0x1 SWAP1 SLOAD SWAP1 PUSH2 0x100 EXP SWAP1 DIV PUSH1 0xFF AND DUP2 JUMP JUMPDEST PUSH0 DUP2 ISZERO ISZERO SWAP1 POP SWAP2 SWAP1 POP JUMP JUMPDEST PUSH2 0x500 DUP2 PUSH2 0x4EC JUMP JUMPDEST DUP3 MSTORE POP POP JUMP JUMPDEST PUSH0 PUSH1 0x20 DUP3 ADD SWAP1 POP PUSH2 0x519 PUSH0 DUP4 ADD DUP5 PUSH2 0x4F7 JUMP JUMPDEST SWAP3 SWAP2 POP POP JUMP JUMPDEST PUSH0 DUP2 SWAP1 POP SWAP2 SWAP1 POP JUMP JUMPDEST PUSH2 0x531 DUP2 PUSH2 0x51F JUMP JUMPDEST DUP3 MSTORE POP POP JUMP JUMPDEST PUSH0 PUSH1 0x20 DUP3 ADD SWAP1 POP PUSH2 0x54A PUSH0 DUP4 ADD DUP5 PUSH2 0x528 JUMP JUMPDEST SWAP3 SWAP2 POP POP JUMP JUMPDEST PUSH0 DUP1 REVERT JUMPDEST PUSH2 0x55D DUP2 PUSH2 0x51F JUMP JUMPDEST DUP2 EQ PUSH2 0x567 JUMPI PUSH0 DUP1 REVERT JUMPDEST POP JUMP JUMPDEST PUSH0 DUP2 CALLDATALOAD SWAP1 POP PUSH2 0x578 DUP2 PUSH2 0x554 JUMP JUMPDEST SWAP3 SWAP2 POP POP JUMP JUMPDEST PUSH0 DUP1 PUSH1 0x40 DUP4 DUP6 SUB SLT ISZERO PUSH2 0x594 JUMPI PUSH2 0x593 PUSH2 0x550 JUMP JUMPDEST JUMPDEST PUSH0 PUSH2 0x5A1 DUP6 DUP3 DUP7 ADD PUSH2 0x56A JUMP JUMPDEST SWAP3 POP POP PUSH1 0x20 PUSH2 0x5B2 DUP6 DUP3 DUP7 ADD PUSH2 0x56A JUMP JUMPDEST SWAP2 POP POP SWAP3 POP SWAP3 SWAP1 POP JUMP JUMPDEST PUSH32 0x4E487B7100000000000000000000000000000000000000000000000000000000 PUSH0 MSTORE PUSH1 0x11 PUSH1 0x4 MSTORE PUSH1 0x24 PUSH0 REVERT JUMPDEST PUSH0 PUSH2 0x5F3 DUP3 PUSH2 0x51F JUMP JUMPDEST SWAP2 POP PUSH2 0x5FE DUP4 PUSH2 0x51F JUMP JUMPDEST SWAP3 POP DUP3 DUP3 ADD SWAP1 POP DUP1 DUP3 GT ISZERO PUSH2 0x616 JUMPI PUSH2 0x615 PUSH2 0x5BC JUMP JUMPDEST JUMPDEST SWAP3 SWAP2 POP POP JUMP JUMPDEST PUSH0 PUSH2 0x626 DUP3 PUSH2 0x51F JUMP JUMPDEST SWAP2 POP PUSH2 0x631 DUP4 PUSH2 0x51F JUMP JUMPDEST SWAP3 POP DUP3 DUP3 SUB SWAP1 POP DUP2 DUP2 GT ISZERO PUSH2 0x649 JUMPI PUSH2 0x648 PUSH2 0x5BC JUMP JUMPDEST JUMPDEST SWAP3 SWAP2 POP POP JUMP JUMPDEST PUSH0 PUSH2 0x659 DUP3 PUSH2 0x51F JUMP JUMPDEST SWAP2 POP PUSH2 0x664 DUP4 PUSH2 0x51F JUMP JUMPDEST SWAP3 POP DUP3 DUP3 MUL PUSH2 0x672 DUP2 PUSH2 0x51F JUMP JUMPDEST SWAP2 POP DUP3 DUP3 DIV DUP5 EQ DUP4 ISZERO OR PUSH2 0x689 JUMPI PUSH2 0x688 PUSH2 0x5BC JUMP JUMPDEST JUMPDEST POP SWAP3 SWAP2 POP POP JUMP JUMPDEST PUSH32 0x4E487B7100000000000000000000000000000000000000000000000000000000 PUSH0 MSTORE PUSH1 0x12 PUSH1 0x4 MSTORE PUSH1 0x24 PUSH0 REVERT JUMPDEST PUSH0 PUSH2 0x6C7 DUP3 PUSH2 0x51F JUMP JUMPDEST SWAP2 POP PUSH2 0x6D2 DUP4 PUSH2 0x51F JUMP JUMPDEST SWAP3 POP DUP3 PUSH2 0x6E2 JUMPI PUSH2 0x6E1 PUSH2 0x690 JUMP JUMPDEST JUMPDEST DUP3 DUP3 DIV SWAP1 POP SWAP3 SWAP2 POP POP JUMP JUMPDEST PUSH0 PUSH2 0x6F7 DUP3 PUSH2 0x51F JUMP JUMPDEST SWAP2 POP PUSH2 0x702 DUP4 PUSH2 0x51F JUMP JUMPDEST SWAP3 POP DUP3 PUSH2 0x712 JUMPI PUSH2 0x711 PUSH2 0x690 JUMP JUMPDEST JUMPDEST DUP3 DUP3 MOD SWAP1 POP SWAP3 SWAP2 POP POP JUMP INVALID LOG2 PUSH5 0x6970667358 0x22 SLT KECCAK256 SWAP12 PUSH6 0x4CB45A71DA78 INVALID 0xF7 CHAINID 0xC0 PUSH10 0xCFED5CD68369430621B5 SSTORE 0xA7 0xAA SWAP11 0xC3 PUSH15 0xAF758B64736F6C634300081A003300 "
				},
				"gasEstimates": {
					"creation": {
						"codeDepositCost": "375000",
						"executionCost": "409",
						"totalCost": "375409"
					},
					"external": {
						"addResult()": "2469",
						"andResult()": "2562",
						"calculate(uint256,uint256)": "infinite",
						"divResult()": "2447",
						"eqResult()": "2490",
						"gtResult()": "2583",
						"gteResult()": "2540",
						"ltResult()": "2585",
						"lteResult()": "2581",
						"modResult()": "2448",
						"mulResult()": "2514",
						"neqResult()": "2605",
						"notResult()": "2584",
						"orResult()": "2561",
						"subResult()": "2471"
					}
				},
				"methodIdentifiers": {
					"addResult()": "533a88b3",
					"andResult()": "399d19df",
					"calculate(uint256,uint256)": "8dfa4363",
					"divResult()": "9e542610",
					"eqResult()": "09b30175",
					"gtResult()": "c9cc0558",
					"gteResult()": "2f94237c",
					"ltResult()": "2a94be88",
					"lteResult()": "411966b2",
					"modResult()": "439c6a79",
					"mulResult()": "425fbb68",
					"neqResult()": "e05ac5a4",
					"notResult()": "796e499e",
					"orResult()": "a4726a74",
					"subResult()": "0a9412bd"
				}
			},
			"storageLayout": {
				"storage": [
					{
						"astId": 3,
						"contract": "contracts/Practical_14.sol:OperatorsExample",
						"label": "addResult",
						"offset": 0,
						"slot": "0",
						"type": "t_uint256"
					},
					{
						"astId": 5,
						"contract": "contracts/Practical_14.sol:OperatorsExample",
						"label": "subResult",
						"offset": 0,
						"slot": "1",
						"type": "t_uint256"
					},
					{
						"astId": 7,
						"contract": "contracts/Practical_14.sol:OperatorsExample",
						"label": "mulResult",
						"offset": 0,
						"slot": "2",
						"type": "t_uint256"
					},
					{
						"astId": 9,
						"contract": "contracts/Practical_14.sol:OperatorsExample",
						"label": "divResult",
						"offset": 0,
						"slot": "3",
						"type": "t_uint256"
					},
					{
						"astId": 11,
						"contract": "contracts/Practical_14.sol:OperatorsExample",
						"label": "modResult",
						"offset": 0,
						"slot": "4",
						"type": "t_uint256"
					},
					{
						"astId": 13,
						"contract": "contracts/Practical_14.sol:OperatorsExample",
						"label": "eqResult",
						"offset": 0,
						"slot": "5",
						"type": "t_bool"
					},
					{
						"astId": 15,
						"contract": "contracts/Practical_14.sol:OperatorsExample",
						"label": "neqResult",
						"offset": 1,
						"slot": "5",
						"type": "t_bool"
					},
					{
						"astId": 17,
						"contract": "contracts/Practical_14.sol:OperatorsExample",
						"label": "gtResult",
						"offset": 2,
						"slot": "5",
						"type": "t_bool"
					},
					{
						"astId": 19,
						"contract": "contracts/Practical_14.sol:OperatorsExample",
						"label": "ltResult",
						"offset": 3,
						"slot": "5",
						"type": "t_bool"
					},
					{
						"astId": 21,
						"contract": "contracts/Practical_14.sol:OperatorsExample",
						"label": "gteResult",
						"offset": 4,
						"slot": "5",
						"type": "t_bool"
					},
					{
						"astId": 23,
						"contract": "contracts/Practical_14.sol:OperatorsExample",
						"label": "lteResult",
						"offset": 5,
						"slot": "5",
						"type": "t_bool"
					},
					{
						"astId": 25,
						"contract": "contracts/Practical_14.sol:OperatorsExample",
						"label": "andResult",
						"offset": 6,
						"slot": "5",
						"type": "t_bool"
					},
					{
						"astId": 27,
						"contract": "contracts/Practical_14.sol:OperatorsExample",
						"label": "orResult",
						"offset": 7,
						"slot": "5",
						"type": "t_bool"
					},
					{
						"astId": 29,
						"contract": "contracts/Practical_14.sol:OperatorsExample",
						"label": "notResult",
						"offset": 8,
						"slot": "5",
						"type": "t_bool"
					}
				],
				"types": {
					"t_bool": {
						"encoding": "inplace",
						"label": "bool",
						"numberOfBytes": "1"
					},
					"t_uint256": {
						"encoding": "inplace",
						"label": "uint256",
						"numberOfBytes": "32"
					}
				}
			},
			"userdoc": {
				"kind": "user",
				"methods": {},
				"version": 1
			}
		}
	}
}