{
	"contracts/Practical_12.sol": {
		"ValueTypesExample": {
			"abi": [
				{
					"inputs": [],
					"name": "dynamicData",
					"outputs": [
						{
							"internalType": "bytes",
							"name": "",
							"type": "bytes"
						}
					],
					"stateMutability": "view",
					"type": "function"
				},
				{
					"inputs": [],
					"name": "fixedData",
					"outputs": [
						{
							"internalType": "bytes32",
							"name": "",
							"type": "bytes32"
						}
					],
					"stateMutability": "view",
					"type": "function"
				},
				{
					"inputs": [],
					"name": "getStatus",
					"outputs": [
						{
							"internalType": "enum ValueTypesExample.Status",
							"name": "",
							"type": "uint8"
						}
					],
					"stateMutability": "view",
					"type": "function"
				},
				{
					"inputs": [],
					"name": "isTrue",
					"outputs": [
						{
							"internalType": "bool",
							"name": "",
							"type": "bool"
						}
					],
					"stateMutability": "view",
					"type": "function"
				},
				{
					"inputs": [],
					"name": "negativeNumber",
					"outputs": [
						{
							"internalType": "int256",
							"name": "",
							"type": "int256"
						}
					],
					"stateMutability": "view",
					"type": "function"
				},
				{
					"inputs": [],
					"name": "positiveNumber",
					"outputs": [
						{
							"internalType": "uint256",
							"name": "",
							"type": "uint256"
						}
					],
					"stateMutability": "view",
					"type": "function"
				},
				{
					"inputs": [
						{
							"internalType": "enum ValueTypesExample.Status",
							"name": "_status",
							"type": "uint8"
						}
					],
					"name": "setStatus",
					"outputs": [],
					"stateMutability": "nonpayable",
					"type": "function"
				},
				{
					"inputs": [],
					"name": "status",
					"outputs": [
						{
							"internalType": "enum ValueTypesExample.Status",
							"name": "",
							"type": "uint8"
						}
					],
					"stateMutability": "view",
					"type": "function"
				},
				{
					"inputs": [],
					"name": "wallet",
					"outputs": [
						{
							"internalType": "address",
							"name": "",
							"type": "address"
						}
					],
					"stateMutability": "view",
					"type": "function"
				}
			],
			"devdoc": {
				"kind": "dev",
				"methods": {},
				"version": 1
			},
			"evm": {
				"assembly": "    /* \"contracts/Practical_12.sol\":60:859  contract ValueTypesExample {... */\n  mstore(0x40, 0x80)\n    /* \"contracts/Practical_12.sol\":142:146  true */\n  0x01\n    /* \"contracts/Practical_12.sol\":121:146  bool public isTrue = true */\n  0x00\n  dup1\n  0x0100\n  exp\n  dup2\n  sload\n  dup2\n  0xff\n  mul\n  not\n  and\n  swap1\n  dup4\n  iszero\n  iszero\n  mul\n  or\n  swap1\n  sstore\n  pop\n    /* \"contracts/Practical_12.sol\":215:217  42 */\n  0x2a\n    /* \"contracts/Practical_12.sol\":183:217  uint256 public positiveNumber = 42 */\n  0x01\n  sstore\n    /* \"contracts/Practical_12.sol\":255:258  -42 */\n  0xffffffffffffffffffffffffffffffffffffffffffffffffffffffffffffffd6\n    /* \"contracts/Practical_12.sol\":224:258  int256 public negativeNumber = -42 */\n  0x02\n  sstore\n    /* \"contracts/Practical_12.sol\":318:360  0x1234567890123456789012345678901234567890 */\n  0x1234567890123456789012345678901234567890\n    /* \"contracts/Practical_12.sol\":294:360  address public wallet = 0x1234567890123456789012345678901234567890 */\n  0x03\n  exp(0x0100, 0x00)\n  dup2\n  sload\n  dup2\n  0xffffffffffffffffffffffffffffffffffffffff\n  mul\n  not\n  and\n  swap1\n  dup4\n  0xffffffffffffffffffffffffffffffffffffffff\n  and\n  mul\n  or\n  swap1\n  sstore\n  pop\n    /* \"contracts/Practical_12.sol\":395:437  bytes32 public fixedData = \"Hello, World!\" */\n  sstore(0x04, 0x48656c6c6f2c20576f726c642100000000000000000000000000000000000000)\n    /* \"contracts/Practical_12.sol\":444:489  bytes public dynamicData = \"Hello, Solidity!\" */\n  mload(0x40)\n  dup1\n  0x40\n  add\n  0x40\n  mstore\n  dup1\n  0x10\n  dup2\n  mstore\n  0x20\n  add\n  0x48656c6c6f2c20536f6c69646974792100000000000000000000000000000000\n  dup2\n  mstore\n  pop\n  0x05\n  swap1\n  dup2\n  tag_1\n  swap2\n  swap1\n  tag_2\n  jump\t// in\ntag_1:\n  pop\n    /* \"contracts/Practical_12.sol\":60:859  contract ValueTypesExample {... */\n  callvalue\n  dup1\n  iszero\n  tag_3\n  jumpi\n  0x00\n  dup1\n  revert\ntag_3:\n  pop\n  jump(tag_4)\n    /* \"#utility.yul\":7:106   */\ntag_5:\n    /* \"#utility.yul\":59:65   */\n  0x00\n    /* \"#utility.yul\":93:98   */\n  dup2\n    /* \"#utility.yul\":87:99   */\n  mload\n    /* \"#utility.yul\":77:99   */\n  swap1\n  pop\n    /* \"#utility.yul\":7:106   */\n  swap2\n  swap1\n  pop\n  jump\t// out\n    /* \"#utility.yul\":112:292   */\ntag_6:\n    /* \"#utility.yul\":160:237   */\n  0x4e487b7100000000000000000000000000000000000000000000000000000000\n    /* \"#utility.yul\":157:158   */\n  0x00\n    /* \"#utility.yul\":150:238   */\n  mstore\n    /* \"#utility.yul\":257:261   */\n  0x41\n    /* \"#utility.yul\":254:255   */\n  0x04\n    /* \"#utility.yul\":247:262   */\n  mstore\n    /* \"#utility.yul\":281:285   */\n  0x24\n    /* \"#utility.yul\":278:279   */\n  0x00\n    /* \"#utility.yul\":271:286   */\n  revert\n    /* \"#utility.yul\":298:478   */\ntag_7:\n    /* \"#utility.yul\":346:423   */\n  0x4e487b7100000000000000000000000000000000000000000000000000000000\n    /* \"#utility.yul\":343:344   */\n  0x00\n    /* \"#utility.yul\":336:424   */\n  mstore\n    /* \"#utility.yul\":443:447   */\n  0x22\n    /* \"#utility.yul\":440:441   */\n  0x04\n    /* \"#utility.yul\":433:448   */\n  mstore\n    /* \"#utility.yul\":467:471   */\n  0x24\n    /* \"#utility.yul\":464:465   */\n  0x00\n    /* \"#utility.yul\":457:472   */\n  revert\n    /* \"#utility.yul\":484:804   */\ntag_8:\n    /* \"#utility.yul\":528:534   */\n  0x00\n    /* \"#utility.yul\":565:566   */\n  0x02\n    /* \"#utility.yul\":559:563   */\n  dup3\n    /* \"#utility.yul\":555:567   */\n  div\n    /* \"#utility.yul\":545:567   */\n  swap1\n  pop\n    /* \"#utility.yul\":612:613   */\n  0x01\n    /* \"#utility.yul\":606:610   */\n  dup3\n    /* \"#utility.yul\":602:614   */\n  and\n    /* \"#utility.yul\":633:651   */\n  dup1\n    /* \"#utility.yul\":623:704   */\n  tag_30\n  jumpi\n    /* \"#utility.yul\":689:693   */\n  0x7f\n    /* \"#utility.yul\":681:687   */\n  dup3\n    /* \"#utility.yul\":677:694   */\n  and\n    /* \"#utility.yul\":667:694   */\n  swap2\n  pop\n    /* \"#utility.yul\":623:704   */\ntag_30:\n    /* \"#utility.yul\":751:753   */\n  0x20\n    /* \"#utility.yul\":743:749   */\n  dup3\n    /* \"#utility.yul\":740:754   */\n  lt\n    /* \"#utility.yul\":720:738   */\n  dup2\n    /* \"#utility.yul\":717:755   */\n  sub\n    /* \"#utility.yul\":714:798   */\n  tag_31\n  jumpi\n    /* \"#utility.yul\":770:788   */\n  tag_32\n  tag_7\n  jump\t// in\ntag_32:\n    /* \"#utility.yul\":714:798   */\ntag_31:\n    /* \"#utility.yul\":535:804   */\n  pop\n    /* \"#utility.yul\":484:804   */\n  swap2\n  swap1\n  pop\n  jump\t// out\n    /* \"#utility.yul\":810:950   */\ntag_9:\n    /* \"#utility.yul\":858:862   */\n  0x00\n    /* \"#utility.yul\":881:884   */\n  dup2\n    /* \"#utility.yul\":873:884   */\n  swap1\n  pop\n    /* \"#utility.yul\":904:907   */\n  dup2\n    /* \"#utility.yul\":901:902   */\n  0x00\n    /* \"#utility.yul\":894:908   */\n  mstore\n    /* \"#utility.yul\":938:942   */\n  0x20\n    /* \"#utility.yul\":935:936   */\n  0x00\n    /* \"#utility.yul\":925:943   */\n  keccak256\n    /* \"#utility.yul\":917:943   */\n  swap1\n  pop\n    /* \"#utility.yul\":810:950   */\n  swap2\n  swap1\n  pop\n  jump\t// out\n    /* \"#utility.yul\":956:1049   */\ntag_10:\n    /* \"#utility.yul\":993:999   */\n  0x00\n    /* \"#utility.yul\":1040:1042   */\n  0x20\n    /* \"#utility.yul\":1035:1037   */\n  0x1f\n    /* \"#utility.yul\":1028:1033   */\n  dup4\n    /* \"#utility.yul\":1024:1038   */\n  add\n    /* \"#utility.yul\":1020:1043   */\n  div\n    /* \"#utility.yul\":1010:1043   */\n  swap1\n  pop\n    /* \"#utility.yul\":956:1049   */\n  swap2\n  swap1\n  pop\n  jump\t// out\n    /* \"#utility.yul\":1055:1162   */\ntag_11:\n    /* \"#utility.yul\":1099:1107   */\n  0x00\n    /* \"#utility.yul\":1149:1154   */\n  dup3\n    /* \"#utility.yul\":1143:1147   */\n  dup3\n    /* \"#utility.yul\":1139:1155   */\n  shl\n    /* \"#utility.yul\":1118:1155   */\n  swap1\n  pop\n    /* \"#utility.yul\":1055:1162   */\n  swap3\n  swap2\n  pop\n  pop\n  jump\t// out\n    /* \"#utility.yul\":1168:1561   */\ntag_12:\n    /* \"#utility.yul\":1237:1243   */\n  0x00\n    /* \"#utility.yul\":1287:1288   */\n  0x08\n    /* \"#utility.yul\":1275:1285   */\n  dup4\n    /* \"#utility.yul\":1271:1289   */\n  mul\n    /* \"#utility.yul\":1310:1407   */\n  tag_37\n    /* \"#utility.yul\":1340:1406   */\n  0xffffffffffffffffffffffffffffffffffffffffffffffffffffffffffffffff\n    /* \"#utility.yul\":1329:1338   */\n  dup3\n    /* \"#utility.yul\":1310:1407   */\n  tag_11\n  jump\t// in\ntag_37:\n    /* \"#utility.yul\":1428:1467   */\n  tag_38\n    /* \"#utility.yul\":1458:1466   */\n  dup7\n    /* \"#utility.yul\":1447:1456   */\n  dup4\n    /* \"#utility.yul\":1428:1467   */\n  tag_11\n  jump\t// in\ntag_38:\n    /* \"#utility.yul\":1416:1467   */\n  swap6\n  pop\n    /* \"#utility.yul\":1500:1504   */\n  dup1\n    /* \"#utility.yul\":1496:1505   */\n  not\n    /* \"#utility.yul\":1489:1494   */\n  dup5\n    /* \"#utility.yul\":1485:1506   */\n  and\n    /* \"#utility.yul\":1476:1506   */\n  swap4\n  pop\n    /* \"#utility.yul\":1549:1553   */\n  dup1\n    /* \"#utility.yul\":1539:1547   */\n  dup7\n    /* \"#utility.yul\":1535:1554   */\n  and\n    /* \"#utility.yul\":1528:1533   */\n  dup5\n    /* \"#utility.yul\":1525:1555   */\n  or\n    /* \"#utility.yul\":1515:1555   */\n  swap3\n  pop\n    /* \"#utility.yul\":1244:1561   */\n  pop\n  pop\n    /* \"#utility.yul\":1168:1561   */\n  swap4\n  swap3\n  pop\n  pop\n  pop\n  jump\t// out\n    /* \"#utility.yul\":1567:1644   */\ntag_13:\n    /* \"#utility.yul\":1604:1611   */\n  0x00\n    /* \"#utility.yul\":1633:1638   */\n  dup2\n    /* \"#utility.yul\":1622:1638   */\n  swap1\n  pop\n    /* \"#utility.yul\":1567:1644   */\n  swap2\n  swap1\n  pop\n  jump\t// out\n    /* \"#utility.yul\":1650:1710   */\ntag_14:\n    /* \"#utility.yul\":1678:1681   */\n  0x00\n    /* \"#utility.yul\":1699:1704   */\n  dup2\n    /* \"#utility.yul\":1692:1704   */\n  swap1\n  pop\n    /* \"#utility.yul\":1650:1710   */\n  swap2\n  swap1\n  pop\n  jump\t// out\n    /* \"#utility.yul\":1716:1858   */\ntag_15:\n    /* \"#utility.yul\":1766:1775   */\n  0x00\n    /* \"#utility.yul\":1799:1852   */\n  tag_42\n    /* \"#utility.yul\":1817:1851   */\n  tag_43\n    /* \"#utility.yul\":1826:1850   */\n  tag_44\n    /* \"#utility.yul\":1844:1849   */\n  dup5\n    /* \"#utility.yul\":1826:1850   */\n  tag_13\n  jump\t// in\ntag_44:\n    /* \"#utility.yul\":1817:1851   */\n  tag_14\n  jump\t// in\ntag_43:\n    /* \"#utility.yul\":1799:1852   */\n  tag_13\n  jump\t// in\ntag_42:\n    /* \"#utility.yul\":1786:1852   */\n  swap1\n  pop\n    /* \"#utility.yul\":1716:1858   */\n  swap2\n  swap1\n  pop\n  jump\t// out\n    /* \"#utility.yul\":1864:1939   */\ntag_16:\n    /* \"#utility.yul\":1907:1910   */\n  0x00\n    /* \"#utility.yul\":1928:1933   */\n  dup2\n    /* \"#utility.yul\":1921:1933   */\n  swap1\n  pop\n    /* \"#utility.yul\":1864:1939   */\n  swap2\n  swap1\n  pop\n  jump\t// out\n    /* \"#utility.yul\":1945:2214   */\ntag_17:\n    /* \"#utility.yul\":2055:2094   */\n  tag_47\n    /* \"#utility.yul\":2086:2093   */\n  dup4\n    /* \"#utility.yul\":2055:2094   */\n  tag_15\n  jump\t// in\ntag_47:\n    /* \"#utility.yul\":2116:2207   */\n  tag_48\n    /* \"#utility.yul\":2165:2206   */\n  tag_49\n    /* \"#utility.yul\":2189:2205   */\n  dup3\n    /* \"#utility.yul\":2165:2206   */\n  tag_16\n  jump\t// in\ntag_49:\n    /* \"#utility.yul\":2157:2163   */\n  dup5\n    /* \"#utility.yul\":2150:2154   */\n  dup5\n    /* \"#utility.yul\":2144:2155   */\n  sload\n    /* \"#utility.yul\":2116:2207   */\n  tag_12\n  jump\t// in\ntag_48:\n    /* \"#utility.yul\":2110:2114   */\n  dup3\n    /* \"#utility.yul\":2103:2208   */\n  sstore\n    /* \"#utility.yul\":2021:2214   */\n  pop\n    /* \"#utility.yul\":1945:2214   */\n  pop\n  pop\n  pop\n  jump\t// out\n    /* \"#utility.yul\":2220:2293   */\ntag_18:\n    /* \"#utility.yul\":2265:2268   */\n  0x00\n    /* \"#utility.yul\":2220:2293   */\n  swap1\n  jump\t// out\n    /* \"#utility.yul\":2299:2488   */\ntag_19:\n    /* \"#utility.yul\":2376:2408   */\n  tag_52\n  tag_18\n  jump\t// in\ntag_52:\n    /* \"#utility.yul\":2417:2482   */\n  tag_53\n    /* \"#utility.yul\":2475:2481   */\n  dup2\n    /* \"#utility.yul\":2467:2473   */\n  dup5\n    /* \"#utility.yul\":2461:2465   */\n  dup5\n    /* \"#utility.yul\":2417:2482   */\n  tag_17\n  jump\t// in\ntag_53:\n    /* \"#utility.yul\":2352:2488   */\n  pop\n    /* \"#utility.yul\":2299:2488   */\n  pop\n  pop\n  jump\t// out\n    /* \"#utility.yul\":2494:2680   */\ntag_20:\n    /* \"#utility.yul\":2554:2674   */\ntag_55:\n    /* \"#utility.yul\":2571:2574   */\n  dup2\n    /* \"#utility.yul\":2564:2569   */\n  dup2\n    /* \"#utility.yul\":2561:2575   */\n  lt\n    /* \"#utility.yul\":2554:2674   */\n  iszero\n  tag_57\n  jumpi\n    /* \"#utility.yul\":2625:2664   */\n  tag_58\n    /* \"#utility.yul\":2662:2663   */\n  0x00\n    /* \"#utility.yul\":2655:2660   */\n  dup3\n    /* \"#utility.yul\":2625:2664   */\n  tag_19\n  jump\t// in\ntag_58:\n    /* \"#utility.yul\":2598:2599   */\n  0x01\n    /* \"#utility.yul\":2591:2596   */\n  dup2\n    /* \"#utility.yul\":2587:2600   */\n  add\n    /* \"#utility.yul\":2578:2600   */\n  swap1\n  pop\n    /* \"#utility.yul\":2554:2674   */\n  jump(tag_55)\ntag_57:\n    /* \"#utility.yul\":2494:2680   */\n  pop\n  pop\n  jump\t// out\n    /* \"#utility.yul\":2686:3227   */\ntag_21:\n    /* \"#utility.yul\":2786:2788   */\n  0x1f\n    /* \"#utility.yul\":2781:2784   */\n  dup3\n    /* \"#utility.yul\":2778:2789   */\n  gt\n    /* \"#utility.yul\":2775:3220   */\n  iszero\n  tag_60\n  jumpi\n    /* \"#utility.yul\":2820:2857   */\n  tag_61\n    /* \"#utility.yul\":2851:2856   */\n  dup2\n    /* \"#utility.yul\":2820:2857   */\n  tag_9\n  jump\t// in\ntag_61:\n    /* \"#utility.yul\":2903:2932   */\n  tag_62\n    /* \"#utility.yul\":2921:2931   */\n  dup5\n    /* \"#utility.yul\":2903:2932   */\n  tag_10\n  jump\t// in\ntag_62:\n    /* \"#utility.yul\":2893:2901   */\n  dup2\n    /* \"#utility.yul\":2889:2933   */\n  add\n    /* \"#utility.yul\":3086:3088   */\n  0x20\n    /* \"#utility.yul\":3074:3084   */\n  dup6\n    /* \"#utility.yul\":3071:3089   */\n  lt\n    /* \"#utility.yul\":3068:3117   */\n  iszero\n  tag_63\n  jumpi\n    /* \"#utility.yul\":3107:3115   */\n  dup2\n    /* \"#utility.yul\":3092:3115   */\n  swap1\n  pop\n    /* \"#utility.yul\":3068:3117   */\ntag_63:\n    /* \"#utility.yul\":3130:3210   */\n  tag_64\n    /* \"#utility.yul\":3186:3208   */\n  tag_65\n    /* \"#utility.yul\":3204:3207   */\n  dup6\n    /* \"#utility.yul\":3186:3208   */\n  tag_10\n  jump\t// in\ntag_65:\n    /* \"#utility.yul\":3176:3184   */\n  dup4\n    /* \"#utility.yul\":3172:3209   */\n  add\n    /* \"#utility.yul\":3159:3170   */\n  dup3\n    /* \"#utility.yul\":3130:3210   */\n  tag_20\n  jump\t// in\ntag_64:\n    /* \"#utility.yul\":2790:3220   */\n  pop\n  pop\n    /* \"#utility.yul\":2775:3220   */\ntag_60:\n    /* \"#utility.yul\":2686:3227   */\n  pop\n  pop\n  pop\n  jump\t// out\n    /* \"#utility.yul\":3233:3350   */\ntag_22:\n    /* \"#utility.yul\":3287:3295   */\n  0x00\n    /* \"#utility.yul\":3337:3342   */\n  dup3\n    /* \"#utility.yul\":3331:3335   */\n  dup3\n    /* \"#utility.yul\":3327:3343   */\n  shr\n    /* \"#utility.yul\":3306:3343   */\n  swap1\n  pop\n    /* \"#utility.yul\":3233:3350   */\n  swap3\n  swap2\n  pop\n  pop\n  jump\t// out\n    /* \"#utility.yul\":3356:3525   */\ntag_23:\n    /* \"#utility.yul\":3400:3406   */\n  0x00\n    /* \"#utility.yul\":3433:3484   */\n  tag_68\n    /* \"#utility.yul\":3481:3482   */\n  0x00\n    /* \"#utility.yul\":3477:3483   */\n  not\n    /* \"#utility.yul\":3469:3474   */\n  dup5\n    /* \"#utility.yul\":3466:3467   */\n  0x08\n    /* \"#utility.yul\":3462:3475   */\n  mul\n    /* \"#utility.yul\":3433:3484   */\n  tag_22\n  jump\t// in\ntag_68:\n    /* \"#utility.yul\":3429:3485   */\n  not\n    /* \"#utility.yul\":3514:3518   */\n  dup1\n    /* \"#utility.yul\":3508:3512   */\n  dup4\n    /* \"#utility.yul\":3504:3519   */\n  and\n    /* \"#utility.yul\":3494:3519   */\n  swap2\n  pop\n    /* \"#utility.yul\":3407:3525   */\n  pop\n    /* \"#utility.yul\":3356:3525   */\n  swap3\n  swap2\n  pop\n  pop\n  jump\t// out\n    /* \"#utility.yul\":3530:3825   */\ntag_24:\n    /* \"#utility.yul\":3606:3610   */\n  0x00\n    /* \"#utility.yul\":3752:3781   */\n  tag_70\n    /* \"#utility.yul\":3777:3780   */\n  dup4\n    /* \"#utility.yul\":3771:3775   */\n  dup4\n    /* \"#utility.yul\":3752:3781   */\n  tag_23\n  jump\t// in\ntag_70:\n    /* \"#utility.yul\":3744:3781   */\n  swap2\n  pop\n    /* \"#utility.yul\":3814:3817   */\n  dup3\n    /* \"#utility.yul\":3811:3812   */\n  0x02\n    /* \"#utility.yul\":3807:3818   */\n  mul\n    /* \"#utility.yul\":3801:3805   */\n  dup3\n    /* \"#utility.yul\":3798:3819   */\n  or\n    /* \"#utility.yul\":3790:3819   */\n  swap1\n  pop\n    /* \"#utility.yul\":3530:3825   */\n  swap3\n  swap2\n  pop\n  pop\n  jump\t// out\n    /* \"#utility.yul\":3830:5222   */\ntag_2:\n    /* \"#utility.yul\":3946:3983   */\n  tag_72\n    /* \"#utility.yul\":3979:3982   */\n  dup3\n    /* \"#utility.yul\":3946:3983   */\n  tag_5\n  jump\t// in\ntag_72:\n    /* \"#utility.yul\":4048:4066   */\n  0xffffffffffffffff\n    /* \"#utility.yul\":4040:4046   */\n  dup2\n    /* \"#utility.yul\":4037:4067   */\n  gt\n    /* \"#utility.yul\":4034:4090   */\n  iszero\n  tag_73\n  jumpi\n    /* \"#utility.yul\":4070:4088   */\n  tag_74\n  tag_6\n  jump\t// in\ntag_74:\n    /* \"#utility.yul\":4034:4090   */\ntag_73:\n    /* \"#utility.yul\":4114:4152   */\n  tag_75\n    /* \"#utility.yul\":4146:4150   */\n  dup3\n    /* \"#utility.yul\":4140:4151   */\n  sload\n    /* \"#utility.yul\":4114:4152   */\n  tag_8\n  jump\t// in\ntag_75:\n    /* \"#utility.yul\":4199:4265   */\n  tag_76\n    /* \"#utility.yul\":4258:4264   */\n  dup3\n    /* \"#utility.yul\":4250:4256   */\n  dup3\n    /* \"#utility.yul\":4244:4248   */\n  dup6\n    /* \"#utility.yul\":4199:4265   */\n  tag_21\n  jump\t// in\ntag_76:\n    /* \"#utility.yul\":4292:4293   */\n  0x00\n    /* \"#utility.yul\":4316:4320   */\n  0x20\n    /* \"#utility.yul\":4303:4320   */\n  swap1\n  pop\n    /* \"#utility.yul\":4348:4350   */\n  0x1f\n    /* \"#utility.yul\":4340:4346   */\n  dup4\n    /* \"#utility.yul\":4337:4351   */\n  gt\n    /* \"#utility.yul\":4365:4366   */\n  0x01\n    /* \"#utility.yul\":4360:4977   */\n  dup2\n  eq\n  tag_78\n  jumpi\n    /* \"#utility.yul\":5021:5022   */\n  0x00\n    /* \"#utility.yul\":5038:5044   */\n  dup5\n    /* \"#utility.yul\":5035:5112   */\n  iszero\n  tag_79\n  jumpi\n    /* \"#utility.yul\":5087:5096   */\n  dup3\n    /* \"#utility.yul\":5082:5085   */\n  dup8\n    /* \"#utility.yul\":5078:5097   */\n  add\n    /* \"#utility.yul\":5072:5098   */\n  mload\n    /* \"#utility.yul\":5063:5098   */\n  swap1\n  pop\n    /* \"#utility.yul\":5035:5112   */\ntag_79:\n    /* \"#utility.yul\":5138:5205   */\n  tag_80\n    /* \"#utility.yul\":5198:5204   */\n  dup6\n    /* \"#utility.yul\":5191:5196   */\n  dup3\n    /* \"#utility.yul\":5138:5205   */\n  tag_24\n  jump\t// in\ntag_80:\n    /* \"#utility.yul\":5132:5136   */\n  dup7\n    /* \"#utility.yul\":5125:5206   */\n  sstore\n    /* \"#utility.yul\":4994:5216   */\n  pop\n    /* \"#utility.yul\":4330:5216   */\n  jump(tag_77)\n    /* \"#utility.yul\":4360:4977   */\ntag_78:\n    /* \"#utility.yul\":4412:4416   */\n  0x1f\n    /* \"#utility.yul\":4408:4417   */\n  not\n    /* \"#utility.yul\":4400:4406   */\n  dup5\n    /* \"#utility.yul\":4396:4418   */\n  and\n    /* \"#utility.yul\":4446:4482   */\n  tag_81\n    /* \"#utility.yul\":4477:4481   */\n  dup7\n    /* \"#utility.yul\":4446:4482   */\n  tag_9\n  jump\t// in\ntag_81:\n    /* \"#utility.yul\":4504:4505   */\n  0x00\n    /* \"#utility.yul\":4518:4726   */\ntag_82:\n    /* \"#utility.yul\":4532:4539   */\n  dup3\n    /* \"#utility.yul\":4529:4530   */\n  dup2\n    /* \"#utility.yul\":4526:4540   */\n  lt\n    /* \"#utility.yul\":4518:4726   */\n  iszero\n  tag_84\n  jumpi\n    /* \"#utility.yul\":4611:4620   */\n  dup5\n    /* \"#utility.yul\":4606:4609   */\n  dup10\n    /* \"#utility.yul\":4602:4621   */\n  add\n    /* \"#utility.yul\":4596:4622   */\n  mload\n    /* \"#utility.yul\":4588:4594   */\n  dup3\n    /* \"#utility.yul\":4581:4623   */\n  sstore\n    /* \"#utility.yul\":4662:4663   */\n  0x01\n    /* \"#utility.yul\":4654:4660   */\n  dup3\n    /* \"#utility.yul\":4650:4664   */\n  add\n    /* \"#utility.yul\":4640:4664   */\n  swap2\n  pop\n    /* \"#utility.yul\":4709:4711   */\n  0x20\n    /* \"#utility.yul\":4698:4707   */\n  dup6\n    /* \"#utility.yul\":4694:4712   */\n  add\n    /* \"#utility.yul\":4681:4712   */\n  swap5\n  pop\n    /* \"#utility.yul\":4555:4559   */\n  0x20\n    /* \"#utility.yul\":4552:4553   */\n  dup2\n    /* \"#utility.yul\":4548:4560   */\n  add\n    /* \"#utility.yul\":4543:4560   */\n  swap1\n  pop\n    /* \"#utility.yul\":4518:4726   */\n  jump(tag_82)\ntag_84:\n    /* \"#utility.yul\":4754:4760   */\n  dup7\n    /* \"#utility.yul\":4745:4752   */\n  dup4\n    /* \"#utility.yul\":4742:4761   */\n  lt\n    /* \"#utility.yul\":4739:4918   */\n  iszero\n  tag_85\n  jumpi\n    /* \"#utility.yul\":4812:4821   */\n  dup5\n    /* \"#utility.yul\":4807:4810   */\n  dup10\n    /* \"#utility.yul\":4803:4822   */\n  add\n    /* \"#utility.yul\":4797:4823   */\n  mload\n    /* \"#utility.yul\":4855:4903   */\n  tag_86\n    /* \"#utility.yul\":4897:4901   */\n  0x1f\n    /* \"#utility.yul\":4889:4895   */\n  dup10\n    /* \"#utility.yul\":4885:4902   */\n  and\n    /* \"#utility.yul\":4874:4883   */\n  dup3\n    /* \"#utility.yul\":4855:4903   */\n  tag_23\n  jump\t// in\ntag_86:\n    /* \"#utility.yul\":4847:4853   */\n  dup4\n    /* \"#utility.yul\":4840:4904   */\n  sstore\n    /* \"#utility.yul\":4762:4918   */\n  pop\n    /* \"#utility.yul\":4739:4918   */\ntag_85:\n    /* \"#utility.yul\":4964:4965   */\n  0x01\n    /* \"#utility.yul\":4960:4961   */\n  0x02\n    /* \"#utility.yul\":4952:4958   */\n  dup9\n    /* \"#utility.yul\":4948:4962   */\n  mul\n    /* \"#utility.yul\":4944:4966   */\n  add\n    /* \"#utility.yul\":4938:4942   */\n  dup9\n    /* \"#utility.yul\":4931:4967   */\n  sstore\n    /* \"#utility.yul\":4367:4977   */\n  pop\n  pop\n  pop\n    /* \"#utility.yul\":4330:5216   */\ntag_77:\n  pop\n    /* \"#utility.yul\":3921:5222   */\n  pop\n  pop\n  pop\n    /* \"#utility.yul\":3830:5222   */\n  pop\n  pop\n  jump\t// out\n    /* \"contracts/Practical_12.sol\":60:859  contract ValueTypesExample {... */\ntag_4:\n  dataSize(sub_0)\n  dup1\n  dataOffset(sub_0)\n  0x00\n  codecopy\n  0x00\n  return\nstop\n\nsub_0: assembly {\n        /* \"contracts/Practical_12.sol\":60:859  contract ValueTypesExample {... */\n      mstore(0x40, 0x80)\n      callvalue\n      dup1\n      iszero\n      tag_1\n      jumpi\n      0x00\n      dup1\n      revert\n    tag_1:\n      pop\n      jumpi(tag_2, lt(calldatasize, 0x04))\n      shr(0xe0, calldataload(0x00))\n      dup1\n      0x4e69d560\n      gt\n      tag_12\n      jumpi\n      dup1\n      0x4e69d560\n      eq\n      tag_7\n      jumpi\n      dup1\n      0x521eb273\n      eq\n      tag_8\n      jumpi\n      dup1\n      0x5a0a4a64\n      eq\n      tag_9\n      jumpi\n      dup1\n      0xaca20a5b\n      eq\n      tag_10\n      jumpi\n      dup1\n      0xc148b074\n      eq\n      tag_11\n      jumpi\n      jump(tag_2)\n    tag_12:\n      dup1\n      0x74530a\n      eq\n      tag_3\n      jumpi\n      dup1\n      0x200d2ed2\n      eq\n      tag_4\n      jumpi\n      dup1\n      0x2e49d78b\n      eq\n      tag_5\n      jumpi\n      dup1\n      0x4b322b28\n      eq\n      tag_6\n      jumpi\n    tag_2:\n      0x00\n      dup1\n      revert\n        /* \"contracts/Practical_12.sol\":121:146  bool public isTrue = true */\n    tag_3:\n      tag_13\n      tag_14\n      jump\t// in\n    tag_13:\n      mload(0x40)\n      tag_15\n      swap2\n      swap1\n      tag_16\n      jump\t// in\n    tag_15:\n      mload(0x40)\n      dup1\n      swap2\n      sub\n      swap1\n      return\n        /* \"contracts/Practical_12.sol\":582:602  Status public status */\n    tag_4:\n      tag_17\n      tag_18\n      jump\t// in\n    tag_17:\n      mload(0x40)\n      tag_19\n      swap2\n      swap1\n      tag_20\n      jump\t// in\n    tag_19:\n      mload(0x40)\n      dup1\n      swap2\n      sub\n      swap1\n      return\n        /* \"contracts/Practical_12.sol\":646:723  function setStatus(Status _status) public {... */\n    tag_5:\n      tag_21\n      0x04\n      dup1\n      calldatasize\n      sub\n      dup2\n      add\n      swap1\n      tag_22\n      swap2\n      swap1\n      tag_23\n      jump\t// in\n    tag_22:\n      tag_24\n      jump\t// in\n    tag_21:\n      stop\n        /* \"contracts/Practical_12.sol\":395:437  bytes32 public fixedData = \"Hello, World!\" */\n    tag_6:\n      tag_25\n      tag_26\n      jump\t// in\n    tag_25:\n      mload(0x40)\n      tag_27\n      swap2\n      swap1\n      tag_28\n      jump\t// in\n    tag_27:\n      mload(0x40)\n      dup1\n      swap2\n      sub\n      swap1\n      return\n        /* \"contracts/Practical_12.sol\":774:856  function getStatus() public view returns (Status) {... */\n    tag_7:\n      tag_29\n      tag_30\n      jump\t// in\n    tag_29:\n      mload(0x40)\n      tag_31\n      swap2\n      swap1\n      tag_20\n      jump\t// in\n    tag_31:\n      mload(0x40)\n      dup1\n      swap2\n      sub\n      swap1\n      return\n        /* \"contracts/Practical_12.sol\":294:360  address public wallet = 0x1234567890123456789012345678901234567890 */\n    tag_8:\n      tag_32\n      tag_33\n      jump\t// in\n    tag_32:\n      mload(0x40)\n      tag_34\n      swap2\n      swap1\n      tag_35\n      jump\t// in\n    tag_34:\n      mload(0x40)\n      dup1\n      swap2\n      sub\n      swap1\n      return\n        /* \"contracts/Practical_12.sol\":444:489  bytes public dynamicData = \"Hello, Solidity!\" */\n    tag_9:\n      tag_36\n      tag_37\n      jump\t// in\n    tag_36:\n      mload(0x40)\n      tag_38\n      swap2\n      swap1\n      tag_39\n      jump\t// in\n    tag_38:\n      mload(0x40)\n      dup1\n      swap2\n      sub\n      swap1\n      return\n        /* \"contracts/Practical_12.sol\":224:258  int256 public negativeNumber = -42 */\n    tag_10:\n      tag_40\n      tag_41\n      jump\t// in\n    tag_40:\n      mload(0x40)\n      tag_42\n      swap2\n      swap1\n      tag_43\n      jump\t// in\n    tag_42:\n      mload(0x40)\n      dup1\n      swap2\n      sub\n      swap1\n      return\n        /* \"contracts/Practical_12.sol\":183:217  uint256 public positiveNumber = 42 */\n    tag_11:\n      tag_44\n      tag_45\n      jump\t// in\n    tag_44:\n      mload(0x40)\n      tag_46\n      swap2\n      swap1\n      tag_47\n      jump\t// in\n    tag_46:\n      mload(0x40)\n      dup1\n      swap2\n      sub\n      swap1\n      return\n        /* \"contracts/Practical_12.sol\":121:146  bool public isTrue = true */\n    tag_14:\n      0x00\n      dup1\n      sload\n      swap1\n      0x0100\n      exp\n      swap1\n      div\n      0xff\n      and\n      dup2\n      jump\t// out\n        /* \"contracts/Practical_12.sol\":582:602  Status public status */\n    tag_18:\n      0x06\n      0x00\n      swap1\n      sload\n      swap1\n      0x0100\n      exp\n      swap1\n      div\n      0xff\n      and\n      dup2\n      jump\t// out\n        /* \"contracts/Practical_12.sol\":646:723  function setStatus(Status _status) public {... */\n    tag_24:\n        /* \"contracts/Practical_12.sol\":708:715  _status */\n      dup1\n        /* \"contracts/Practical_12.sol\":699:705  status */\n      0x06\n      0x00\n        /* \"contracts/Practical_12.sol\":699:715  status = _status */\n      0x0100\n      exp\n      dup2\n      sload\n      dup2\n      0xff\n      mul\n      not\n      and\n      swap1\n      dup4\n      0x03\n      dup2\n      gt\n      iszero\n      tag_49\n      jumpi\n      tag_50\n      tag_51\n      jump\t// in\n    tag_50:\n    tag_49:\n      mul\n      or\n      swap1\n      sstore\n      pop\n        /* \"contracts/Practical_12.sol\":646:723  function setStatus(Status _status) public {... */\n      pop\n      jump\t// out\n        /* \"contracts/Practical_12.sol\":395:437  bytes32 public fixedData = \"Hello, World!\" */\n    tag_26:\n      sload(0x04)\n      dup2\n      jump\t// out\n        /* \"contracts/Practical_12.sol\":774:856  function getStatus() public view returns (Status) {... */\n    tag_30:\n        /* \"contracts/Practical_12.sol\":816:822  Status */\n      0x00\n        /* \"contracts/Practical_12.sol\":842:848  status */\n      0x06\n      0x00\n      swap1\n      sload\n      swap1\n      0x0100\n      exp\n      swap1\n      div\n      0xff\n      and\n        /* \"contracts/Practical_12.sol\":835:848  return status */\n      swap1\n      pop\n        /* \"contracts/Practical_12.sol\":774:856  function getStatus() public view returns (Status) {... */\n      swap1\n      jump\t// out\n        /* \"contracts/Practical_12.sol\":294:360  address public wallet = 0x1234567890123456789012345678901234567890 */\n    tag_33:\n      0x03\n      0x00\n      swap1\n      sload\n      swap1\n      0x0100\n      exp\n      swap1\n      div\n      0xffffffffffffffffffffffffffffffffffffffff\n      and\n      dup2\n      jump\t// out\n        /* \"contracts/Practical_12.sol\":444:489  bytes public dynamicData = \"Hello, Solidity!\" */\n    tag_37:\n      0x05\n      dup1\n      sload\n      tag_53\n      swap1\n      tag_54\n      jump\t// in\n    tag_53:\n      dup1\n      0x1f\n      add\n      0x20\n      dup1\n      swap2\n      div\n      mul\n      0x20\n      add\n      mload(0x40)\n      swap1\n      dup2\n      add\n      0x40\n      mstore\n      dup1\n      swap3\n      swap2\n      swap1\n      dup2\n      dup2\n      mstore\n      0x20\n      add\n      dup3\n      dup1\n      sload\n      tag_55\n      swap1\n      tag_54\n      jump\t// in\n    tag_55:\n      dup1\n      iszero\n      tag_56\n      jumpi\n      dup1\n      0x1f\n      lt\n      tag_57\n      jumpi\n      0x0100\n      dup1\n      dup4\n      sload\n      div\n      mul\n      dup4\n      mstore\n      swap2\n      0x20\n      add\n      swap2\n      jump(tag_56)\n    tag_57:\n      dup3\n      add\n      swap2\n      swap1\n      0x00\n      mstore\n      keccak256(0x00, 0x20)\n      swap1\n    tag_58:\n      dup2\n      sload\n      dup2\n      mstore\n      swap1\n      0x01\n      add\n      swap1\n      0x20\n      add\n      dup1\n      dup4\n      gt\n      tag_58\n      jumpi\n      dup3\n      swap1\n      sub\n      0x1f\n      and\n      dup3\n      add\n      swap2\n    tag_56:\n      pop\n      pop\n      pop\n      pop\n      pop\n      dup2\n      jump\t// out\n        /* \"contracts/Practical_12.sol\":224:258  int256 public negativeNumber = -42 */\n    tag_41:\n      sload(0x02)\n      dup2\n      jump\t// out\n        /* \"contracts/Practical_12.sol\":183:217  uint256 public positiveNumber = 42 */\n    tag_45:\n      sload(0x01)\n      dup2\n      jump\t// out\n        /* \"#utility.yul\":7:97   */\n    tag_59:\n        /* \"#utility.yul\":41:48   */\n      0x00\n        /* \"#utility.yul\":84:89   */\n      dup2\n        /* \"#utility.yul\":77:90   */\n      iszero\n        /* \"#utility.yul\":70:91   */\n      iszero\n        /* \"#utility.yul\":59:91   */\n      swap1\n      pop\n        /* \"#utility.yul\":7:97   */\n      swap2\n      swap1\n      pop\n      jump\t// out\n        /* \"#utility.yul\":103:212   */\n    tag_60:\n        /* \"#utility.yul\":184:205   */\n      tag_88\n        /* \"#utility.yul\":199:204   */\n      dup2\n        /* \"#utility.yul\":184:205   */\n      tag_59\n      jump\t// in\n    tag_88:\n        /* \"#utility.yul\":179:182   */\n      dup3\n        /* \"#utility.yul\":172:206   */\n      mstore\n        /* \"#utility.yul\":103:212   */\n      pop\n      pop\n      jump\t// out\n        /* \"#utility.yul\":218:428   */\n    tag_16:\n        /* \"#utility.yul\":305:309   */\n      0x00\n        /* \"#utility.yul\":343:345   */\n      0x20\n        /* \"#utility.yul\":332:341   */\n      dup3\n        /* \"#utility.yul\":328:346   */\n      add\n        /* \"#utility.yul\":320:346   */\n      swap1\n      pop\n        /* \"#utility.yul\":356:421   */\n      tag_90\n        /* \"#utility.yul\":418:419   */\n      0x00\n        /* \"#utility.yul\":407:416   */\n      dup4\n        /* \"#utility.yul\":403:420   */\n      add\n        /* \"#utility.yul\":394:400   */\n      dup5\n        /* \"#utility.yul\":356:421   */\n      tag_60\n      jump\t// in\n    tag_90:\n        /* \"#utility.yul\":218:428   */\n      swap3\n      swap2\n      pop\n      pop\n      jump\t// out\n        /* \"#utility.yul\":434:614   */\n    tag_51:\n        /* \"#utility.yul\":482:559   */\n      0x4e487b7100000000000000000000000000000000000000000000000000000000\n        /* \"#utility.yul\":479:480   */\n      0x00\n        /* \"#utility.yul\":472:560   */\n      mstore\n        /* \"#utility.yul\":579:583   */\n      0x21\n        /* \"#utility.yul\":576:577   */\n      0x04\n        /* \"#utility.yul\":569:584   */\n      mstore\n        /* \"#utility.yul\":603:607   */\n      0x24\n        /* \"#utility.yul\":600:601   */\n      0x00\n        /* \"#utility.yul\":593:608   */\n      revert\n        /* \"#utility.yul\":620:734   */\n    tag_61:\n        /* \"#utility.yul\":702:703   */\n      0x04\n        /* \"#utility.yul\":695:700   */\n      dup2\n        /* \"#utility.yul\":692:704   */\n      lt\n        /* \"#utility.yul\":682:728   */\n      tag_93\n      jumpi\n        /* \"#utility.yul\":708:726   */\n      tag_94\n      tag_51\n      jump\t// in\n    tag_94:\n        /* \"#utility.yul\":682:728   */\n    tag_93:\n        /* \"#utility.yul\":620:734   */\n      pop\n      jump\t// out\n        /* \"#utility.yul\":740:869   */\n    tag_62:\n        /* \"#utility.yul\":786:793   */\n      0x00\n        /* \"#utility.yul\":815:820   */\n      dup2\n        /* \"#utility.yul\":804:820   */\n      swap1\n      pop\n        /* \"#utility.yul\":821:863   */\n      tag_96\n        /* \"#utility.yul\":857:862   */\n      dup3\n        /* \"#utility.yul\":821:863   */\n      tag_61\n      jump\t// in\n    tag_96:\n        /* \"#utility.yul\":740:869   */\n      swap2\n      swap1\n      pop\n      jump\t// out\n        /* \"#utility.yul\":875:1004   */\n    tag_63:\n        /* \"#utility.yul\":932:941   */\n      0x00\n        /* \"#utility.yul\":965:998   */\n      tag_98\n        /* \"#utility.yul\":992:997   */\n      dup3\n        /* \"#utility.yul\":965:998   */\n      tag_62\n      jump\t// in\n    tag_98:\n        /* \"#utility.yul\":952:998   */\n      swap1\n      pop\n        /* \"#utility.yul\":875:1004   */\n      swap2\n      swap1\n      pop\n      jump\t// out\n        /* \"#utility.yul\":1010:1155   */\n    tag_64:\n        /* \"#utility.yul\":1104:1148   */\n      tag_100\n        /* \"#utility.yul\":1142:1147   */\n      dup2\n        /* \"#utility.yul\":1104:1148   */\n      tag_63\n      jump\t// in\n    tag_100:\n        /* \"#utility.yul\":1099:1102   */\n      dup3\n        /* \"#utility.yul\":1092:1149   */\n      mstore\n        /* \"#utility.yul\":1010:1155   */\n      pop\n      pop\n      jump\t// out\n        /* \"#utility.yul\":1161:1397   */\n    tag_20:\n        /* \"#utility.yul\":1261:1265   */\n      0x00\n        /* \"#utility.yul\":1299:1301   */\n      0x20\n        /* \"#utility.yul\":1288:1297   */\n      dup3\n        /* \"#utility.yul\":1284:1302   */\n      add\n        /* \"#utility.yul\":1276:1302   */\n      swap1\n      pop\n        /* \"#utility.yul\":1312:1390   */\n      tag_102\n        /* \"#utility.yul\":1387:1388   */\n      0x00\n        /* \"#utility.yul\":1376:1385   */\n      dup4\n        /* \"#utility.yul\":1372:1389   */\n      add\n        /* \"#utility.yul\":1363:1369   */\n      dup5\n        /* \"#utility.yul\":1312:1390   */\n      tag_64\n      jump\t// in\n    tag_102:\n        /* \"#utility.yul\":1161:1397   */\n      swap3\n      swap2\n      pop\n      pop\n      jump\t// out\n        /* \"#utility.yul\":1484:1601   */\n    tag_66:\n        /* \"#utility.yul\":1593:1594   */\n      0x00\n        /* \"#utility.yul\":1590:1591   */\n      dup1\n        /* \"#utility.yul\":1583:1595   */\n      revert\n        /* \"#utility.yul\":1730:1838   */\n    tag_68:\n        /* \"#utility.yul\":1812:1813   */\n      0x04\n        /* \"#utility.yul\":1805:1810   */\n      dup2\n        /* \"#utility.yul\":1802:1814   */\n      lt\n        /* \"#utility.yul\":1792:1832   */\n      tag_107\n      jumpi\n        /* \"#utility.yul\":1828:1829   */\n      0x00\n        /* \"#utility.yul\":1825:1826   */\n      dup1\n        /* \"#utility.yul\":1818:1830   */\n      revert\n        /* \"#utility.yul\":1792:1832   */\n    tag_107:\n        /* \"#utility.yul\":1730:1838   */\n      pop\n      jump\t// out\n        /* \"#utility.yul\":1844:2001   */\n    tag_69:\n        /* \"#utility.yul\":1899:1904   */\n      0x00\n        /* \"#utility.yul\":1937:1943   */\n      dup2\n        /* \"#utility.yul\":1924:1944   */\n      calldataload\n        /* \"#utility.yul\":1915:1944   */\n      swap1\n      pop\n        /* \"#utility.yul\":1953:1995   */\n      tag_109\n        /* \"#utility.yul\":1989:1994   */\n      dup2\n        /* \"#utility.yul\":1953:1995   */\n      tag_68\n      jump\t// in\n    tag_109:\n        /* \"#utility.yul\":1844:2001   */\n      swap3\n      swap2\n      pop\n      pop\n      jump\t// out\n        /* \"#utility.yul\":2007:2354   */\n    tag_23:\n        /* \"#utility.yul\":2075:2081   */\n      0x00\n        /* \"#utility.yul\":2124:2126   */\n      0x20\n        /* \"#utility.yul\":2112:2121   */\n      dup3\n        /* \"#utility.yul\":2103:2110   */\n      dup5\n        /* \"#utility.yul\":2099:2122   */\n      sub\n        /* \"#utility.yul\":2095:2127   */\n      slt\n        /* \"#utility.yul\":2092:2211   */\n      iszero\n      tag_111\n      jumpi\n        /* \"#utility.yul\":2130:2209   */\n      tag_112\n      tag_66\n      jump\t// in\n    tag_112:\n        /* \"#utility.yul\":2092:2211   */\n    tag_111:\n        /* \"#utility.yul\":2250:2251   */\n      0x00\n        /* \"#utility.yul\":2275:2337   */\n      tag_113\n        /* \"#utility.yul\":2329:2336   */\n      dup5\n        /* \"#utility.yul\":2320:2326   */\n      dup3\n        /* \"#utility.yul\":2309:2318   */\n      dup6\n        /* \"#utility.yul\":2305:2327   */\n      add\n        /* \"#utility.yul\":2275:2337   */\n      tag_69\n      jump\t// in\n    tag_113:\n        /* \"#utility.yul\":2265:2337   */\n      swap2\n      pop\n        /* \"#utility.yul\":2221:2347   */\n      pop\n        /* \"#utility.yul\":2007:2354   */\n      swap3\n      swap2\n      pop\n      pop\n      jump\t// out\n        /* \"#utility.yul\":2360:2437   */\n    tag_70:\n        /* \"#utility.yul\":2397:2404   */\n      0x00\n        /* \"#utility.yul\":2426:2431   */\n      dup2\n        /* \"#utility.yul\":2415:2431   */\n      swap1\n      pop\n        /* \"#utility.yul\":2360:2437   */\n      swap2\n      swap1\n      pop\n      jump\t// out\n        /* \"#utility.yul\":2443:2561   */\n    tag_71:\n        /* \"#utility.yul\":2530:2554   */\n      tag_116\n        /* \"#utility.yul\":2548:2553   */\n      dup2\n        /* \"#utility.yul\":2530:2554   */\n      tag_70\n      jump\t// in\n    tag_116:\n        /* \"#utility.yul\":2525:2528   */\n      dup3\n        /* \"#utility.yul\":2518:2555   */\n      mstore\n        /* \"#utility.yul\":2443:2561   */\n      pop\n      pop\n      jump\t// out\n        /* \"#utility.yul\":2567:2789   */\n    tag_28:\n        /* \"#utility.yul\":2660:2664   */\n      0x00\n        /* \"#utility.yul\":2698:2700   */\n      0x20\n        /* \"#utility.yul\":2687:2696   */\n      dup3\n        /* \"#utility.yul\":2683:2701   */\n      add\n        /* \"#utility.yul\":2675:2701   */\n      swap1\n      pop\n        /* \"#utility.yul\":2711:2782   */\n      tag_118\n        /* \"#utility.yul\":2779:2780   */\n      0x00\n        /* \"#utility.yul\":2768:2777   */\n      dup4\n        /* \"#utility.yul\":2764:2781   */\n      add\n        /* \"#utility.yul\":2755:2761   */\n      dup5\n        /* \"#utility.yul\":2711:2782   */\n      tag_71\n      jump\t// in\n    tag_118:\n        /* \"#utility.yul\":2567:2789   */\n      swap3\n      swap2\n      pop\n      pop\n      jump\t// out\n        /* \"#utility.yul\":2795:2921   */\n    tag_72:\n        /* \"#utility.yul\":2832:2839   */\n      0x00\n        /* \"#utility.yul\":2872:2914   */\n      0xffffffffffffffffffffffffffffffffffffffff\n        /* \"#utility.yul\":2865:2870   */\n      dup3\n        /* \"#utility.yul\":2861:2915   */\n      and\n        /* \"#utility.yul\":2850:2915   */\n      swap1\n      pop\n        /* \"#utility.yul\":2795:2921   */\n      swap2\n      swap1\n      pop\n      jump\t// out\n        /* \"#utility.yul\":2927:3023   */\n    tag_73:\n        /* \"#utility.yul\":2964:2971   */\n      0x00\n        /* \"#utility.yul\":2993:3017   */\n      tag_121\n        /* \"#utility.yul\":3011:3016   */\n      dup3\n        /* \"#utility.yul\":2993:3017   */\n      tag_72\n      jump\t// in\n    tag_121:\n        /* \"#utility.yul\":2982:3017   */\n      swap1\n      pop\n        /* \"#utility.yul\":2927:3023   */\n      swap2\n      swap1\n      pop\n      jump\t// out\n        /* \"#utility.yul\":3029:3147   */\n    tag_74:\n        /* \"#utility.yul\":3116:3140   */\n      tag_123\n        /* \"#utility.yul\":3134:3139   */\n      dup2\n        /* \"#utility.yul\":3116:3140   */\n      tag_73\n      jump\t// in\n    tag_123:\n        /* \"#utility.yul\":3111:3114   */\n      dup3\n        /* \"#utility.yul\":3104:3141   */\n      mstore\n        /* \"#utility.yul\":3029:3147   */\n      pop\n      pop\n      jump\t// out\n        /* \"#utility.yul\":3153:3375   */\n    tag_35:\n        /* \"#utility.yul\":3246:3250   */\n      0x00\n        /* \"#utility.yul\":3284:3286   */\n      0x20\n        /* \"#utility.yul\":3273:3282   */\n      dup3\n        /* \"#utility.yul\":3269:3287   */\n      add\n        /* \"#utility.yul\":3261:3287   */\n      swap1\n      pop\n        /* \"#utility.yul\":3297:3368   */\n      tag_125\n        /* \"#utility.yul\":3365:3366   */\n      0x00\n        /* \"#utility.yul\":3354:3363   */\n      dup4\n        /* \"#utility.yul\":3350:3367   */\n      add\n        /* \"#utility.yul\":3341:3347   */\n      dup5\n        /* \"#utility.yul\":3297:3368   */\n      tag_74\n      jump\t// in\n    tag_125:\n        /* \"#utility.yul\":3153:3375   */\n      swap3\n      swap2\n      pop\n      pop\n      jump\t// out\n        /* \"#utility.yul\":3381:3479   */\n    tag_75:\n        /* \"#utility.yul\":3432:3438   */\n      0x00\n        /* \"#utility.yul\":3466:3471   */\n      dup2\n        /* \"#utility.yul\":3460:3472   */\n      mload\n        /* \"#utility.yul\":3450:3472   */\n      swap1\n      pop\n        /* \"#utility.yul\":3381:3479   */\n      swap2\n      swap1\n      pop\n      jump\t// out\n        /* \"#utility.yul\":3485:3653   */\n    tag_76:\n        /* \"#utility.yul\":3568:3579   */\n      0x00\n        /* \"#utility.yul\":3602:3608   */\n      dup3\n        /* \"#utility.yul\":3597:3600   */\n      dup3\n        /* \"#utility.yul\":3590:3609   */\n      mstore\n        /* \"#utility.yul\":3642:3646   */\n      0x20\n        /* \"#utility.yul\":3637:3640   */\n      dup3\n        /* \"#utility.yul\":3633:3647   */\n      add\n        /* \"#utility.yul\":3618:3647   */\n      swap1\n      pop\n        /* \"#utility.yul\":3485:3653   */\n      swap3\n      swap2\n      pop\n      pop\n      jump\t// out\n        /* \"#utility.yul\":3659:3798   */\n    tag_77:\n        /* \"#utility.yul\":3748:3754   */\n      dup3\n        /* \"#utility.yul\":3743:3746   */\n      dup2\n        /* \"#utility.yul\":3738:3741   */\n      dup4\n        /* \"#utility.yul\":3732:3755   */\n      mcopy\n        /* \"#utility.yul\":3789:3790   */\n      0x00\n        /* \"#utility.yul\":3780:3786   */\n      dup4\n        /* \"#utility.yul\":3775:3778   */\n      dup4\n        /* \"#utility.yul\":3771:3787   */\n      add\n        /* \"#utility.yul\":3764:3791   */\n      mstore\n        /* \"#utility.yul\":3659:3798   */\n      pop\n      pop\n      pop\n      jump\t// out\n        /* \"#utility.yul\":3804:3906   */\n    tag_78:\n        /* \"#utility.yul\":3845:3851   */\n      0x00\n        /* \"#utility.yul\":3896:3898   */\n      0x1f\n        /* \"#utility.yul\":3892:3899   */\n      not\n        /* \"#utility.yul\":3887:3889   */\n      0x1f\n        /* \"#utility.yul\":3880:3885   */\n      dup4\n        /* \"#utility.yul\":3876:3890   */\n      add\n        /* \"#utility.yul\":3872:3900   */\n      and\n        /* \"#utility.yul\":3862:3900   */\n      swap1\n      pop\n        /* \"#utility.yul\":3804:3906   */\n      swap2\n      swap1\n      pop\n      jump\t// out\n        /* \"#utility.yul\":3912:4285   */\n    tag_79:\n        /* \"#utility.yul\":3998:4001   */\n      0x00\n        /* \"#utility.yul\":4026:4064   */\n      tag_131\n        /* \"#utility.yul\":4058:4063   */\n      dup3\n        /* \"#utility.yul\":4026:4064   */\n      tag_75\n      jump\t// in\n    tag_131:\n        /* \"#utility.yul\":4080:4150   */\n      tag_132\n        /* \"#utility.yul\":4143:4149   */\n      dup2\n        /* \"#utility.yul\":4138:4141   */\n      dup6\n        /* \"#utility.yul\":4080:4150   */\n      tag_76\n      jump\t// in\n    tag_132:\n        /* \"#utility.yul\":4073:4150   */\n      swap4\n      pop\n        /* \"#utility.yul\":4159:4224   */\n      tag_133\n        /* \"#utility.yul\":4217:4223   */\n      dup2\n        /* \"#utility.yul\":4212:4215   */\n      dup6\n        /* \"#utility.yul\":4205:4209   */\n      0x20\n        /* \"#utility.yul\":4198:4203   */\n      dup7\n        /* \"#utility.yul\":4194:4210   */\n      add\n        /* \"#utility.yul\":4159:4224   */\n      tag_77\n      jump\t// in\n    tag_133:\n        /* \"#utility.yul\":4249:4278   */\n      tag_134\n        /* \"#utility.yul\":4271:4277   */\n      dup2\n        /* \"#utility.yul\":4249:4278   */\n      tag_78\n      jump\t// in\n    tag_134:\n        /* \"#utility.yul\":4244:4247   */\n      dup5\n        /* \"#utility.yul\":4240:4279   */\n      add\n        /* \"#utility.yul\":4233:4279   */\n      swap2\n      pop\n        /* \"#utility.yul\":4002:4285   */\n      pop\n        /* \"#utility.yul\":3912:4285   */\n      swap3\n      swap2\n      pop\n      pop\n      jump\t// out\n        /* \"#utility.yul\":4291:4600   */\n    tag_39:\n        /* \"#utility.yul\":4402:4406   */\n      0x00\n        /* \"#utility.yul\":4440:4442   */\n      0x20\n        /* \"#utility.yul\":4429:4438   */\n      dup3\n        /* \"#utility.yul\":4425:4443   */\n      add\n        /* \"#utility.yul\":4417:4443   */\n      swap1\n      pop\n        /* \"#utility.yul\":4489:4498   */\n      dup2\n        /* \"#utility.yul\":4483:4487   */\n      dup2\n        /* \"#utility.yul\":4479:4499   */\n      sub\n        /* \"#utility.yul\":4475:4476   */\n      0x00\n        /* \"#utility.yul\":4464:4473   */\n      dup4\n        /* \"#utility.yul\":4460:4477   */\n      add\n        /* \"#utility.yul\":4453:4500   */\n      mstore\n        /* \"#utility.yul\":4517:4593   */\n      tag_136\n        /* \"#utility.yul\":4588:4592   */\n      dup2\n        /* \"#utility.yul\":4579:4585   */\n      dup5\n        /* \"#utility.yul\":4517:4593   */\n      tag_79\n      jump\t// in\n    tag_136:\n        /* \"#utility.yul\":4509:4593   */\n      swap1\n      pop\n        /* \"#utility.yul\":4291:4600   */\n      swap3\n      swap2\n      pop\n      pop\n      jump\t// out\n        /* \"#utility.yul\":4606:4682   */\n    tag_80:\n        /* \"#utility.yul\":4642:4649   */\n      0x00\n        /* \"#utility.yul\":4671:4676   */\n      dup2\n        /* \"#utility.yul\":4660:4676   */\n      swap1\n      pop\n        /* \"#utility.yul\":4606:4682   */\n      swap2\n      swap1\n      pop\n      jump\t// out\n        /* \"#utility.yul\":4688:4803   */\n    tag_81:\n        /* \"#utility.yul\":4773:4796   */\n      tag_139\n        /* \"#utility.yul\":4790:4795   */\n      dup2\n        /* \"#utility.yul\":4773:4796   */\n      tag_80\n      jump\t// in\n    tag_139:\n        /* \"#utility.yul\":4768:4771   */\n      dup3\n        /* \"#utility.yul\":4761:4797   */\n      mstore\n        /* \"#utility.yul\":4688:4803   */\n      pop\n      pop\n      jump\t// out\n        /* \"#utility.yul\":4809:5027   */\n    tag_43:\n        /* \"#utility.yul\":4900:4904   */\n      0x00\n        /* \"#utility.yul\":4938:4940   */\n      0x20\n        /* \"#utility.yul\":4927:4936   */\n      dup3\n        /* \"#utility.yul\":4923:4941   */\n      add\n        /* \"#utility.yul\":4915:4941   */\n      swap1\n      pop\n        /* \"#utility.yul\":4951:5020   */\n      tag_141\n        /* \"#utility.yul\":5017:5018   */\n      0x00\n        /* \"#utility.yul\":5006:5015   */\n      dup4\n        /* \"#utility.yul\":5002:5019   */\n      add\n        /* \"#utility.yul\":4993:4999   */\n      dup5\n        /* \"#utility.yul\":4951:5020   */\n      tag_81\n      jump\t// in\n    tag_141:\n        /* \"#utility.yul\":4809:5027   */\n      swap3\n      swap2\n      pop\n      pop\n      jump\t// out\n        /* \"#utility.yul\":5033:5110   */\n    tag_82:\n        /* \"#utility.yul\":5070:5077   */\n      0x00\n        /* \"#utility.yul\":5099:5104   */\n      dup2\n        /* \"#utility.yul\":5088:5104   */\n      swap1\n      pop\n        /* \"#utility.yul\":5033:5110   */\n      swap2\n      swap1\n      pop\n      jump\t// out\n        /* \"#utility.yul\":5116:5234   */\n    tag_83:\n        /* \"#utility.yul\":5203:5227   */\n      tag_144\n        /* \"#utility.yul\":5221:5226   */\n      dup2\n        /* \"#utility.yul\":5203:5227   */\n      tag_82\n      jump\t// in\n    tag_144:\n        /* \"#utility.yul\":5198:5201   */\n      dup3\n        /* \"#utility.yul\":5191:5228   */\n      mstore\n        /* \"#utility.yul\":5116:5234   */\n      pop\n      pop\n      jump\t// out\n        /* \"#utility.yul\":5240:5462   */\n    tag_47:\n        /* \"#utility.yul\":5333:5337   */\n      0x00\n        /* \"#utility.yul\":5371:5373   */\n      0x20\n        /* \"#utility.yul\":5360:5369   */\n      dup3\n        /* \"#utility.yul\":5356:5374   */\n      add\n        /* \"#utility.yul\":5348:5374   */\n      swap1\n      pop\n        /* \"#utility.yul\":5384:5455   */\n      tag_146\n        /* \"#utility.yul\":5452:5453   */\n      0x00\n        /* \"#utility.yul\":5441:5450   */\n      dup4\n        /* \"#utility.yul\":5437:5454   */\n      add\n        /* \"#utility.yul\":5428:5434   */\n      dup5\n        /* \"#utility.yul\":5384:5455   */\n      tag_83\n      jump\t// in\n    tag_146:\n        /* \"#utility.yul\":5240:5462   */\n      swap3\n      swap2\n      pop\n      pop\n      jump\t// out\n        /* \"#utility.yul\":5468:5648   */\n    tag_84:\n        /* \"#utility.yul\":5516:5593   */\n      0x4e487b7100000000000000000000000000000000000000000000000000000000\n        /* \"#utility.yul\":5513:5514   */\n      0x00\n        /* \"#utility.yul\":5506:5594   */\n      mstore\n        /* \"#utility.yul\":5613:5617   */\n      0x22\n        /* \"#utility.yul\":5610:5611   */\n      0x04\n        /* \"#utility.yul\":5603:5618   */\n      mstore\n        /* \"#utility.yul\":5637:5641   */\n      0x24\n        /* \"#utility.yul\":5634:5635   */\n      0x00\n        /* \"#utility.yul\":5627:5642   */\n      revert\n        /* \"#utility.yul\":5654:5974   */\n    tag_54:\n        /* \"#utility.yul\":5698:5704   */\n      0x00\n        /* \"#utility.yul\":5735:5736   */\n      0x02\n        /* \"#utility.yul\":5729:5733   */\n      dup3\n        /* \"#utility.yul\":5725:5737   */\n      div\n        /* \"#utility.yul\":5715:5737   */\n      swap1\n      pop\n        /* \"#utility.yul\":5782:5783   */\n      0x01\n        /* \"#utility.yul\":5776:5780   */\n      dup3\n        /* \"#utility.yul\":5772:5784   */\n      and\n        /* \"#utility.yul\":5803:5821   */\n      dup1\n        /* \"#utility.yul\":5793:5874   */\n      tag_149\n      jumpi\n        /* \"#utility.yul\":5859:5863   */\n      0x7f\n        /* \"#utility.yul\":5851:5857   */\n      dup3\n        /* \"#utility.yul\":5847:5864   */\n      and\n        /* \"#utility.yul\":5837:5864   */\n      swap2\n      pop\n        /* \"#utility.yul\":5793:5874   */\n    tag_149:\n        /* \"#utility.yul\":5921:5923   */\n      0x20\n        /* \"#utility.yul\":5913:5919   */\n      dup3\n        /* \"#utility.yul\":5910:5924   */\n      lt\n        /* \"#utility.yul\":5890:5908   */\n      dup2\n        /* \"#utility.yul\":5887:5925   */\n      sub\n        /* \"#utility.yul\":5884:5968   */\n      tag_150\n      jumpi\n        /* \"#utility.yul\":5940:5958   */\n      tag_151\n      tag_84\n      jump\t// in\n    tag_151:\n        /* \"#utility.yul\":5884:5968   */\n    tag_150:\n        /* \"#utility.yul\":5705:5974   */\n      pop\n        /* \"#utility.yul\":5654:5974   */\n      swap2\n      swap1\n      pop\n      jump\t// out\n\n    auxdata: 0xa26469706673582212207196a3aee0ad048dbb109ee3c1721b3878bed5ed12e66113509d33e644ce655364736f6c634300081a0033\n}\n",
				"bytecode": {
					"linkReferences": {},
					"object": "608060405260015f806101000a81548160ff021916908315150217905550602a6001557fffffffffffffffffffffffffffffffffffffffffffffffffffffffffffffffd660025573123456789012345678901234567890123456789060035f6101000a81548173ffffffffffffffffffffffffffffffffffffffff021916908373ffffffffffffffffffffffffffffffffffffffff1602179055507f48656c6c6f2c20576f726c6421000000000000000000000000000000000000006004556040518060400160405280601081526020017f48656c6c6f2c20536f6c6964697479210000000000000000000000000000000081525060059081610102919061034e565b5034801561010e575f80fd5b5061041d565b5f81519050919050565b7f4e487b71000000000000000000000000000000000000000000000000000000005f52604160045260245ffd5b7f4e487b71000000000000000000000000000000000000000000000000000000005f52602260045260245ffd5b5f600282049050600182168061018f57607f821691505b6020821081036101a2576101a161014b565b5b50919050565b5f819050815f5260205f209050919050565b5f6020601f8301049050919050565b5f82821b905092915050565b5f600883026102047fffffffffffffffffffffffffffffffffffffffffffffffffffffffffffffffff826101c9565b61020e86836101c9565b95508019841693508086168417925050509392505050565b5f819050919050565b5f819050919050565b5f61025261024d61024884610226565b61022f565b610226565b9050919050565b5f819050919050565b61026b83610238565b61027f61027782610259565b8484546101d5565b825550505050565b5f90565b610293610287565b61029e818484610262565b505050565b5b818110156102c1576102b65f8261028b565b6001810190506102a4565b5050565b601f821115610306576102d7816101a8565b6102e0846101ba565b810160208510156102ef578190505b6103036102fb856101ba565b8301826102a3565b50505b505050565b5f82821c905092915050565b5f6103265f198460080261030b565b1980831691505092915050565b5f61033e8383610317565b9150826002028217905092915050565b61035782610114565b67ffffffffffffffff8111156103705761036f61011e565b5b61037a8254610178565b6103858282856102c5565b5f60209050601f8311600181146103b6575f84156103a4578287015190505b6103ae8582610333565b865550610415565b601f1984166103c4866101a8565b5f5b828110156103eb578489015182556001820191506020850194506020810190506103c6565b868310156104085784890151610404601f891682610317565b8355505b6001600288020188555050505b505050505050565b6105e58061042a5f395ff3fe608060405234801561000f575f80fd5b5060043610610090575f3560e01c80634e69d560116100645780634e69d5601461010a578063521eb273146101285780635a0a4a6414610146578063aca20a5b14610164578063c148b0741461018257610090565b806274530a14610094578063200d2ed2146100b25780632e49d78b146100d05780634b322b28146100ec575b5f80fd5b61009c6101a0565b6040516100a991906102e0565b60405180910390f35b6100ba6101b0565b6040516100c7919061036c565b60405180910390f35b6100ea60048036038101906100e591906103ac565b6101c2565b005b6100f46101ee565b60405161010191906103ef565b60405180910390f35b6101126101f4565b60405161011f919061036c565b60405180910390f35b610130610209565b60405161013d9190610447565b60405180910390f35b61014e61022e565b60405161015b91906104d0565b60405180910390f35b61016c6102ba565b6040516101799190610508565b60405180910390f35b61018a6102c0565b6040516101979190610539565b60405180910390f35b5f8054906101000a900460ff1681565b60065f9054906101000a900460ff1681565b8060065f6101000a81548160ff021916908360038111156101e6576101e56102f9565b5b021790555050565b60045481565b5f60065f9054906101000a900460ff16905090565b60035f9054906101000a900473ffffffffffffffffffffffffffffffffffffffff1681565b6005805461023b9061057f565b80601f01602080910402602001604051908101604052809291908181526020018280546102679061057f565b80156102b25780601f10610289576101008083540402835291602001916102b2565b820191905f5260205f20905b81548152906001019060200180831161029557829003601f168201915b505050505081565b60025481565b60015481565b5f8115159050919050565b6102da816102c6565b82525050565b5f6020820190506102f35f8301846102d1565b92915050565b7f4e487b71000000000000000000000000000000000000000000000000000000005f52602160045260245ffd5b60048110610337576103366102f9565b5b50565b5f81905061034782610326565b919050565b5f6103568261033a565b9050919050565b6103668161034c565b82525050565b5f60208201905061037f5f83018461035d565b92915050565b5f80fd5b60048110610395575f80fd5b50565b5f813590506103a681610389565b92915050565b5f602082840312156103c1576103c0610385565b5b5f6103ce84828501610398565b91505092915050565b5f819050919050565b6103e9816103d7565b82525050565b5f6020820190506104025f8301846103e0565b92915050565b5f73ffffffffffffffffffffffffffffffffffffffff82169050919050565b5f61043182610408565b9050919050565b61044181610427565b82525050565b5f60208201905061045a5f830184610438565b92915050565b5f81519050919050565b5f82825260208201905092915050565b8281835e5f83830152505050565b5f601f19601f8301169050919050565b5f6104a282610460565b6104ac818561046a565b93506104bc81856020860161047a565b6104c581610488565b840191505092915050565b5f6020820190508181035f8301526104e88184610498565b905092915050565b5f819050919050565b610502816104f0565b82525050565b5f60208201905061051b5f8301846104f9565b92915050565b5f819050919050565b61053381610521565b82525050565b5f60208201905061054c5f83018461052a565b92915050565b7f4e487b71000000000000000000000000000000000000000000000000000000005f52602260045260245ffd5b5f600282049050600182168061059657607f821691505b6020821081036105a9576105a8610552565b5b5091905056fea26469706673582212207196a3aee0ad048dbb109ee3c1721b3878bed5ed12e66113509d33e644ce655364736f6c634300081a0033",
					"opcodes": "PUSH1 0x80 PUSH1 0x40 MSTORE PUSH1 0x1 PUSH0 DUP1 PUSH2 0x100 EXP DUP2 SLOAD DUP2 PUSH1 0xFF MUL NOT AND SWAP1 DUP4 ISZERO ISZERO MUL OR SWAP1 SSTORE POP PUSH1 0x2A PUSH1 0x1 SSTORE PUSH32 0xFFFFFFFFFFFFFFFFFFFFFFFFFFFFFFFFFFFFFFFFFFFFFFFFFFFFFFFFFFFFFFD6 PUSH1 0x2 SSTORE PUSH20 0x1234567890123456789012345678901234567890 PUSH1 0x3 PUSH0 PUSH2 0x100 EXP DUP2 SLOAD DUP2 PUSH20 0xFFFFFFFFFFFFFFFFFFFFFFFFFFFFFFFFFFFFFFFF MUL NOT AND SWAP1 DUP4 PUSH20 0xFFFFFFFFFFFFFFFFFFFFFFFFFFFFFFFFFFFFFFFF AND MUL OR SWAP1 SSTORE POP PUSH32 0x48656C6C6F2C20576F726C642100000000000000000000000000000000000000 PUSH1 0x4 SSTORE PUSH1 0x40 MLOAD DUP1 PUSH1 0x40 ADD PUSH1 0x40 MSTORE DUP1 PUSH1 0x10 DUP2 MSTORE PUSH1 0x20 ADD PUSH32 0x48656C6C6F2C20536F6C69646974792100000000000000000000000000000000 DUP2 MSTORE POP PUSH1 0x5 SWAP1 DUP2 PUSH2 0x102 SWAP2 SWAP1 PUSH2 0x34E JUMP JUMPDEST POP CALLVALUE DUP1 ISZERO PUSH2 0x10E JUMPI PUSH0 DUP1 REVERT JUMPDEST POP PUSH2 0x41D JUMP JUMPDEST PUSH0 DUP2 MLOAD SWAP1 POP SWAP2 SWAP1 POP JUMP JUMPDEST PUSH32 0x4E487B7100000000000000000000000000000000000000000000000000000000 PUSH0 MSTORE PUSH1 0x41 PUSH1 0x4 MSTORE PUSH1 0x24 PUSH0 REVERT JUMPDEST PUSH32 0x4E487B7100000000000000000000000000000000000000000000000000000000 PUSH0 MSTORE PUSH1 0x22 PUSH1 0x4 MSTORE PUSH1 0x24 PUSH0 REVERT JUMPDEST PUSH0 PUSH1 0x2 DUP3 DIV SWAP1 POP PUSH1 0x1 DUP3 AND DUP1 PUSH2 0x18F JUMPI PUSH1 0x7F DUP3 AND SWAP2 POP JUMPDEST PUSH1 0x20 DUP3 LT DUP2 SUB PUSH2 0x1A2 JUMPI PUSH2 0x1A1 PUSH2 0x14B JUMP JUMPDEST JUMPDEST POP SWAP2 SWAP1 POP JUMP JUMPDEST PUSH0 DUP2 SWAP1 POP DUP2 PUSH0 MSTORE PUSH1 0x20 PUSH0 KECCAK256 SWAP1 POP SWAP2 SWAP1 POP JUMP JUMPDEST PUSH0 PUSH1 0x20 PUSH1 0x1F DUP4 ADD DIV SWAP1 POP SWAP2 SWAP1 POP JUMP JUMPDEST PUSH0 DUP3 DUP3 SHL SWAP1 POP SWAP3 SWAP2 POP POP JUMP JUMPDEST PUSH0 PUSH1 0x8 DUP4 MUL PUSH2 0x204 PUSH32 0xFFFFFFFFFFFFFFFFFFFFFFFFFFFFFFFFFFFFFFFFFFFFFFFFFFFFFFFFFFFFFFFF DUP3 PUSH2 0x1C9 JUMP JUMPDEST PUSH2 0x20E DUP7 DUP4 PUSH2 0x1C9 JUMP JUMPDEST SWAP6 POP DUP1 NOT DUP5 AND SWAP4 POP DUP1 DUP7 AND DUP5 OR SWAP3 POP POP POP SWAP4 SWAP3 POP POP POP JUMP JUMPDEST PUSH0 DUP2 SWAP1 POP SWAP2 SWAP1 POP JUMP JUMPDEST PUSH0 DUP2 SWAP1 POP SWAP2 SWAP1 POP JUMP JUMPDEST PUSH0 PUSH2 0x252 PUSH2 0x24D PUSH2 0x248 DUP5 PUSH2 0x226 JUMP JUMPDEST PUSH2 0x22F JUMP JUMPDEST PUSH2 0x226 JUMP JUMPDEST SWAP1 POP SWAP2 SWAP1 POP JUMP JUMPDEST PUSH0 DUP2 SWAP1 POP SWAP2 SWAP1 POP JUMP JUMPDEST PUSH2 0x26B DUP4 PUSH2 0x238 JUMP JUMPDEST PUSH2 0x27F PUSH2 0x277 DUP3 PUSH2 0x259 JUMP JUMPDEST DUP5 DUP5 SLOAD PUSH2 0x1D5 JUMP JUMPDEST DUP3 SSTORE POP POP POP POP JUMP JUMPDEST PUSH0 SWAP1 JUMP JUMPDEST PUSH2 0x293 PUSH2 0x287 JUMP JUMPDEST PUSH2 0x29E DUP2 DUP5 DUP5 PUSH2 0x262 JUMP JUMPDEST POP POP POP JUMP JUMPDEST JUMPDEST DUP2 DUP2 LT ISZERO PUSH2 0x2C1 JUMPI PUSH2 0x2B6 PUSH0 DUP3 PUSH2 0x28B JUMP JUMPDEST PUSH1 0x1 DUP2 ADD SWAP1 POP PUSH2 0x2A4 JUMP JUMPDEST POP POP JUMP JUMPDEST PUSH1 0x1F DUP3 GT ISZERO PUSH2 0x306 JUMPI PUSH2 0x2D7 DUP2 PUSH2 0x1A8 JUMP JUMPDEST PUSH2 0x2E0 DUP5 PUSH2 0x1BA JUMP JUMPDEST DUP2 ADD PUSH1 0x20 DUP6 LT ISZERO PUSH2 0x2EF JUMPI DUP2 SWAP1 POP JUMPDEST PUSH2 0x303 PUSH2 0x2FB DUP6 PUSH2 0x1BA JUMP JUMPDEST DUP4 ADD DUP3 PUSH2 0x2A3 JUMP JUMPDEST POP POP JUMPDEST POP POP POP JUMP JUMPDEST PUSH0 DUP3 DUP3 SHR SWAP1 POP SWAP3 SWAP2 POP POP JUMP JUMPDEST PUSH0 PUSH2 0x326 PUSH0 NOT DUP5 PUSH1 0x8 MUL PUSH2 0x30B JUMP JUMPDEST NOT DUP1 DUP4 AND SWAP2 POP POP SWAP3 SWAP2 POP POP JUMP JUMPDEST PUSH0 PUSH2 0x33E DUP4 DUP4 PUSH2 0x317 JUMP JUMPDEST SWAP2 POP DUP3 PUSH1 0x2 MUL DUP3 OR SWAP1 POP SWAP3 SWAP2 POP POP JUMP JUMPDEST PUSH2 0x357 DUP3 PUSH2 0x114 JUMP JUMPDEST PUSH8 0xFFFFFFFFFFFFFFFF DUP2 GT ISZERO PUSH2 0x370 JUMPI PUSH2 0x36F PUSH2 0x11E JUMP JUMPDEST JUMPDEST PUSH2 0x37A DUP3 SLOAD PUSH2 0x178 JUMP JUMPDEST PUSH2 0x385 DUP3 DUP3 DUP6 PUSH2 0x2C5 JUMP JUMPDEST PUSH0 PUSH1 0x20 SWAP1 POP PUSH1 0x1F DUP4 GT PUSH1 0x1 DUP2 EQ PUSH2 0x3B6 JUMPI PUSH0 DUP5 ISZERO PUSH2 0x3A4 JUMPI DUP3 DUP8 ADD MLOAD SWAP1 POP JUMPDEST PUSH2 0x3AE DUP6 DUP3 PUSH2 0x333 JUMP JUMPDEST DUP7 SSTORE POP PUSH2 0x415 JUMP JUMPDEST PUSH1 0x1F NOT DUP5 AND PUSH2 0x3C4 DUP7 PUSH2 0x1A8 JUMP JUMPDEST PUSH0 JUMPDEST DUP3 DUP2 LT ISZERO PUSH2 0x3EB JUMPI DUP5 DUP10 ADD MLOAD DUP3 SSTORE PUSH1 0x1 DUP3 ADD SWAP2 POP PUSH1 0x20 DUP6 ADD SWAP5 POP PUSH1 0x20 DUP2 ADD SWAP1 POP PUSH2 0x3C6 JUMP JUMPDEST DUP7 DUP4 LT ISZERO PUSH2 0x408 JUMPI DUP5 DUP10 ADD MLOAD PUSH2 0x404 PUSH1 0x1F DUP10 AND DUP3 PUSH2 0x317 JUMP JUMPDEST DUP4 SSTORE POP JUMPDEST PUSH1 0x1 PUSH1 0x2 DUP9 MUL ADD DUP9 SSTORE POP POP POP JUMPDEST POP POP POP POP POP POP JUMP JUMPDEST PUSH2 0x5E5 DUP1 PUSH2 0x42A PUSH0 CODECOPY PUSH0 RETURN INVALID PUSH1 0x80 PUSH1 0x40 MSTORE CALLVALUE DUP1 ISZERO PUSH2 0xF JUMPI PUSH0 DUP1 REVERT JUMPDEST POP PUSH1 0x4 CALLDATASIZE LT PUSH2 0x90 JUMPI PUSH0 CALLDATALOAD PUSH1 0xE0 SHR DUP1 PUSH4 0x4E69D560 GT PUSH2 0x64 JUMPI DUP1 PUSH4 0x4E69D560 EQ PUSH2 0x10A JUMPI DUP1 PUSH4 0x521EB273 EQ PUSH2 0x128 JUMPI DUP1 PUSH4 0x5A0A4A64 EQ PUSH2 0x146 JUMPI DUP1 PUSH4 0xACA20A5B EQ PUSH2 0x164 JUMPI DUP1 PUSH4 0xC148B074 EQ PUSH2 0x182 JUMPI PUSH2 0x90 JUMP JUMPDEST DUP1 PUSH3 0x74530A EQ PUSH2 0x94 JUMPI DUP1 PUSH4 0x200D2ED2 EQ PUSH2 0xB2 JUMPI DUP1 PUSH4 0x2E49D78B EQ PUSH2 0xD0 JUMPI DUP1 PUSH4 0x4B322B28 EQ PUSH2 0xEC JUMPI JUMPDEST PUSH0 DUP1 REVERT JUMPDEST PUSH2 0x9C PUSH2 0x1A0 JUMP JUMPDEST PUSH1 0x40 MLOAD PUSH2 0xA9 SWAP2 SWAP1 PUSH2 0x2E0 JUMP JUMPDEST PUSH1 0x40 MLOAD DUP1 SWAP2 SUB SWAP1 RETURN JUMPDEST PUSH2 0xBA PUSH2 0x1B0 JUMP JUMPDEST PUSH1 0x40 MLOAD PUSH2 0xC7 SWAP2 SWAP1 PUSH2 0x36C JUMP JUMPDEST PUSH1 0x40 MLOAD DUP1 SWAP2 SUB SWAP1 RETURN JUMPDEST PUSH2 0xEA PUSH1 0x4 DUP1 CALLDATASIZE SUB DUP2 ADD SWAP1 PUSH2 0xE5 SWAP2 SWAP1 PUSH2 0x3AC JUMP JUMPDEST PUSH2 0x1C2 JUMP JUMPDEST STOP JUMPDEST PUSH2 0xF4 PUSH2 0x1EE JUMP JUMPDEST PUSH1 0x40 MLOAD PUSH2 0x101 SWAP2 SWAP1 PUSH2 0x3EF JUMP JUMPDEST PUSH1 0x40 MLOAD DUP1 SWAP2 SUB SWAP1 RETURN JUMPDEST PUSH2 0x112 PUSH2 0x1F4 JUMP JUMPDEST PUSH1 0x40 MLOAD PUSH2 0x11F SWAP2 SWAP1 PUSH2 0x36C JUMP JUMPDEST PUSH1 0x40 MLOAD DUP1 SWAP2 SUB SWAP1 RETURN JUMPDEST PUSH2 0x130 PUSH2 0x209 JUMP JUMPDEST PUSH1 0x40 MLOAD PUSH2 0x13D SWAP2 SWAP1 PUSH2 0x447 JUMP JUMPDEST PUSH1 0x40 MLOAD DUP1 SWAP2 SUB SWAP1 RETURN JUMPDEST PUSH2 0x14E PUSH2 0x22E JUMP JUMPDEST PUSH1 0x40 MLOAD PUSH2 0x15B SWAP2 SWAP1 PUSH2 0x4D0 JUMP JUMPDEST PUSH1 0x40 MLOAD DUP1 SWAP2 SUB SWAP1 RETURN JUMPDEST PUSH2 0x16C PUSH2 0x2BA JUMP JUMPDEST PUSH1 0x40 MLOAD PUSH2 0x179 SWAP2 SWAP1 PUSH2 0x508 JUMP JUMPDEST PUSH1 0x40 MLOAD DUP1 SWAP2 SUB SWAP1 RETURN JUMPDEST PUSH2 0x18A PUSH2 0x2C0 JUMP JUMPDEST PUSH1 0x40 MLOAD PUSH2 0x197 SWAP2 SWAP1 PUSH2 0x539 JUMP JUMPDEST PUSH1 0x40 MLOAD DUP1 SWAP2 SUB SWAP1 RETURN JUMPDEST PUSH0 DUP1 SLOAD SWAP1 PUSH2 0x100 EXP SWAP1 DIV PUSH1 0xFF AND DUP2 JUMP JUMPDEST PUSH1 0x6 PUSH0 SWAP1 SLOAD SWAP1 PUSH2 0x100 EXP SWAP1 DIV PUSH1 0xFF AND DUP2 JUMP JUMPDEST DUP1 PUSH1 0x6 PUSH0 PUSH2 0x100 EXP DUP2 SLOAD DUP2 PUSH1 0xFF MUL NOT AND SWAP1 DUP4 PUSH1 0x3 DUP2 GT ISZERO PUSH2 0x1E6 JUMPI PUSH2 0x1E5 PUSH2 0x2F9 JUMP JUMPDEST JUMPDEST MUL OR SWAP1 SSTORE POP POP JUMP JUMPDEST PUSH1 0x4 SLOAD DUP2 JUMP JUMPDEST PUSH0 PUSH1 0x6 PUSH0 SWAP1 SLOAD SWAP1 PUSH2 0x100 EXP SWAP1 DIV PUSH1 0xFF AND SWAP1 POP SWAP1 JUMP JUMPDEST PUSH1 0x3 PUSH0 SWAP1 SLOAD SWAP1 PUSH2 0x100 EXP SWAP1 DIV PUSH20 0xFFFFFFFFFFFFFFFFFFFFFFFFFFFFFFFFFFFFFFFF AND DUP2 JUMP JUMPDEST PUSH1 0x5 DUP1 SLOAD PUSH2 0x23B SWAP1 PUSH2 0x57F JUMP JUMPDEST DUP1 PUSH1 0x1F ADD PUSH1 0x20 DUP1 SWAP2 DIV MUL PUSH1 0x20 ADD PUSH1 0x40 MLOAD SWAP1 DUP2 ADD PUSH1 0x40 MSTORE DUP1 SWAP3 SWAP2 SWAP1 DUP2 DUP2 MSTORE PUSH1 0x20 ADD DUP3 DUP1 SLOAD PUSH2 0x267 SWAP1 PUSH2 0x57F JUMP JUMPDEST DUP1 ISZERO PUSH2 0x2B2 JUMPI DUP1 PUSH1 0x1F LT PUSH2 0x289 JUMPI PUSH2 0x100 DUP1 DUP4 SLOAD DIV MUL DUP4 MSTORE SWAP2 PUSH1 0x20 ADD SWAP2 PUSH2 0x2B2 JUMP JUMPDEST DUP3 ADD SWAP2 SWAP1 PUSH0 MSTORE PUSH1 0x20 PUSH0 KECCAK256 SWAP1 JUMPDEST DUP2 SLOAD DUP2 MSTORE SWAP1 PUSH1 0x1 ADD SWAP1 PUSH1 0x20 ADD DUP1 DUP4 GT PUSH2 0x295 JUMPI DUP3 SWAP1 SUB PUSH1 0x1F AND DUP3 ADD SWAP2 JUMPDEST POP POP POP POP POP DUP2 JUMP JUMPDEST PUSH1 0x2 SLOAD DUP2 JUMP JUMPDEST PUSH1 0x1 SLOAD DUP2 JUMP JUMPDEST PUSH0 DUP2 ISZERO ISZERO SWAP1 POP SWAP2 SWAP1 POP JUMP JUMPDEST PUSH2 0x2DA DUP2 PUSH2 0x2C6 JUMP JUMPDEST DUP3 MSTORE POP POP JUMP JUMPDEST PUSH0 PUSH1 0x20 DUP3 ADD SWAP1 POP PUSH2 0x2F3 PUSH0 DUP4 ADD DUP5 PUSH2 0x2D1 JUMP JUMPDEST SWAP3 SWAP2 POP POP JUMP JUMPDEST PUSH32 0x4E487B7100000000000000000000000000000000000000000000000000000000 PUSH0 MSTORE PUSH1 0x21 PUSH1 0x4 MSTORE PUSH1 0x24 PUSH0 REVERT JUMPDEST PUSH1 0x4 DUP2 LT PUSH2 0x337 JUMPI PUSH2 0x336 PUSH2 0x2F9 JUMP JUMPDEST JUMPDEST POP JUMP JUMPDEST PUSH0 DUP2 SWAP1 POP PUSH2 0x347 DUP3 PUSH2 0x326 JUMP JUMPDEST SWAP2 SWAP1 POP JUMP JUMPDEST PUSH0 PUSH2 0x356 DUP3 PUSH2 0x33A JUMP JUMPDEST SWAP1 POP SWAP2 SWAP1 POP JUMP JUMPDEST PUSH2 0x366 DUP2 PUSH2 0x34C JUMP JUMPDEST DUP3 MSTORE POP POP JUMP JUMPDEST PUSH0 PUSH1 0x20 DUP3 ADD SWAP1 POP PUSH2 0x37F PUSH0 DUP4 ADD DUP5 PUSH2 0x35D JUMP JUMPDEST SWAP3 SWAP2 POP POP JUMP JUMPDEST PUSH0 DUP1 REVERT JUMPDEST PUSH1 0x4 DUP2 LT PUSH2 0x395 JUMPI PUSH0 DUP1 REVERT JUMPDEST POP JUMP JUMPDEST PUSH0 DUP2 CALLDATALOAD SWAP1 POP PUSH2 0x3A6 DUP2 PUSH2 0x389 JUMP JUMPDEST SWAP3 SWAP2 POP POP JUMP JUMPDEST PUSH0 PUSH1 0x20 DUP3 DUP5 SUB SLT ISZERO PUSH2 0x3C1 JUMPI PUSH2 0x3C0 PUSH2 0x385 JUMP JUMPDEST JUMPDEST PUSH0 PUSH2 0x3CE DUP5 DUP3 DUP6 ADD PUSH2 0x398 JUMP JUMPDEST SWAP2 POP POP SWAP3 SWAP2 POP POP JUMP JUMPDEST PUSH0 DUP2 SWAP1 POP SWAP2 SWAP1 POP JUMP JUMPDEST PUSH2 0x3E9 DUP2 PUSH2 0x3D7 JUMP JUMPDEST DUP3 MSTORE POP POP JUMP JUMPDEST PUSH0 PUSH1 0x20 DUP3 ADD SWAP1 POP PUSH2 0x402 PUSH0 DUP4 ADD DUP5 PUSH2 0x3E0 JUMP JUMPDEST SWAP3 SWAP2 POP POP JUMP JUMPDEST PUSH0 PUSH20 0xFFFFFFFFFFFFFFFFFFFFFFFFFFFFFFFFFFFFFFFF DUP3 AND SWAP1 POP SWAP2 SWAP1 POP JUMP JUMPDEST PUSH0 PUSH2 0x431 DUP3 PUSH2 0x408 JUMP JUMPDEST SWAP1 POP SWAP2 SWAP1 POP JUMP JUMPDEST PUSH2 0x441 DUP2 PUSH2 0x427 JUMP JUMPDEST DUP3 MSTORE POP POP JUMP JUMPDEST PUSH0 PUSH1 0x20 DUP3 ADD SWAP1 POP PUSH2 0x45A PUSH0 DUP4 ADD DUP5 PUSH2 0x438 JUMP JUMPDEST SWAP3 SWAP2 POP POP JUMP JUMPDEST PUSH0 DUP2 MLOAD SWAP1 POP SWAP2 SWAP1 POP JUMP JUMPDEST PUSH0 DUP3 DUP3 MSTORE PUSH1 0x20 DUP3 ADD SWAP1 POP SWAP3 SWAP2 POP POP JUMP JUMPDEST DUP3 DUP2 DUP4 MCOPY PUSH0 DUP4 DUP4 ADD MSTORE POP POP POP JUMP JUMPDEST PUSH0 PUSH1 0x1F NOT PUSH1 0x1F DUP4 ADD AND SWAP1 POP SWAP2 SWAP1 POP JUMP JUMPDEST PUSH0 PUSH2 0x4A2 DUP3 PUSH2 0x460 JUMP JUMPDEST PUSH2 0x4AC DUP2 DUP6 PUSH2 0x46A JUMP JUMPDEST SWAP4 POP PUSH2 0x4BC DUP2 DUP6 PUSH1 0x20 DUP7 ADD PUSH2 0x47A JUMP JUMPDEST PUSH2 0x4C5 DUP2 PUSH2 0x488 JUMP JUMPDEST DUP5 ADD SWAP2 POP POP SWAP3 SWAP2 POP POP JUMP JUMPDEST PUSH0 PUSH1 0x20 DUP3 ADD SWAP1 POP DUP2 DUP2 SUB PUSH0 DUP4 ADD MSTORE PUSH2 0x4E8 DUP2 DUP5 PUSH2 0x498 JUMP JUMPDEST SWAP1 POP SWAP3 SWAP2 POP POP JUMP JUMPDEST PUSH0 DUP2 SWAP1 POP SWAP2 SWAP1 POP JUMP JUMPDEST PUSH2 0x502 DUP2 PUSH2 0x4F0 JUMP JUMPDEST DUP3 MSTORE POP POP JUMP JUMPDEST PUSH0 PUSH1 0x20 DUP3 ADD SWAP1 POP PUSH2 0x51B PUSH0 DUP4 ADD DUP5 PUSH2 0x4F9 JUMP JUMPDEST SWAP3 SWAP2 POP POP JUMP JUMPDEST PUSH0 DUP2 SWAP1 POP SWAP2 SWAP1 POP JUMP JUMPDEST PUSH2 0x533 DUP2 PUSH2 0x521 JUMP JUMPDEST DUP3 MSTORE POP POP JUMP JUMPDEST PUSH0 PUSH1 0x20 DUP3 ADD SWAP1 POP PUSH2 0x54C PUSH0 DUP4 ADD DUP5 PUSH2 0x52A JUMP JUMPDEST SWAP3 SWAP2 POP POP JUMP JUMPDEST PUSH32 0x4E487B7100000000000000000000000000000000000000000000000000000000 PUSH0 MSTORE PUSH1 0x22 PUSH1 0x4 MSTORE PUSH1 0x24 PUSH0 REVERT JUMPDEST PUSH0 PUSH1 0x2 DUP3 DIV SWAP1 POP PUSH1 0x1 DUP3 AND DUP1 PUSH2 0x596 JUMPI PUSH1 0x7F DUP3 AND SWAP2 POP JUMPDEST PUSH1 0x20 DUP3 LT DUP2 SUB PUSH2 0x5A9 JUMPI PUSH2 0x5A8 PUSH2 0x552 JUMP JUMPDEST JUMPDEST POP SWAP2 SWAP1 POP JUMP INVALID LOG2 PUSH5 0x6970667358 0x22 SLT KECCAK256 PUSH18 0x96A3AEE0AD048DBB109EE3C1721B3878BED5 0xED SLT 0xE6 PUSH2 0x1350 SWAP14 CALLER 0xE6 PREVRANDAO 0xCE PUSH6 0x5364736F6C63 NUMBER STOP ADDMOD BYTE STOP CALLER "
				},
				"gasEstimates": {
					"creation": {
						"codeDepositCost": "301800",
						"executionCost": "infinite",
						"totalCost": "infinite"
					},
					"external": {
						"dynamicData()": "infinite",
						"fixedData()": "2492",
						"getStatus()": "2561",
						"isTrue()": "2464",
						"negativeNumber()": "2491",
						"positiveNumber()": "2513",
						"setStatus(uint8)": "24690",
						"status()": "2577",
						"wallet()": "2530"
					}
				},
				"methodIdentifiers": {
					"dynamicData()": "5a0a4a64",
					"fixedData()": "4b322b28",
					"getStatus()": "4e69d560",
					"isTrue()": "0074530a",
					"negativeNumber()": "aca20a5b",
					"positiveNumber()": "c148b074",
					"setStatus(uint8)": "2e49d78b",
					"status()": "200d2ed2",
					"wallet()": "521eb273"
				}
			},
			"storageLayout": {
				"storage": [
					{
						"astId": 4,
						"contract": "contracts/Practical_12.sol:ValueTypesExample",
						"label": "isTrue",
						"offset": 0,
						"slot": "0",
						"type": "t_bool"
					},
					{
						"astId": 7,
						"contract": "contracts/Practical_12.sol:ValueTypesExample",
						"label": "positiveNumber",
						"offset": 0,
						"slot": "1",
						"type": "t_uint256"
					},
					{
						"astId": 11,
						"contract": "contracts/Practical_12.sol:ValueTypesExample",
						"label": "negativeNumber",
						"offset": 0,
						"slot": "2",
						"type": "t_int256"
					},
					{
						"astId": 14,
						"contract": "contracts/Practical_12.sol:ValueTypesExample",
						"label": "wallet",
						"offset": 0,
						"slot": "3",
						"type": "t_address"
					},
					{
						"astId": 17,
						"contract": "contracts/Practical_12.sol:ValueTypesExample",
						"label": "fixedData",
						"offset": 0,
						"slot": "4",
						"type": "t_bytes32"
					},
					{
						"astId": 20,
						"contract": "contracts/Practical_12.sol:ValueTypesExample",
						"label": "dynamicData",
						"offset": 0,
						"slot": "5",
						"type": "t_bytes_storage"
					},
					{
						"astId": 28,
						"contract": "contracts/Practical_12.sol:ValueTypesExample",
						"label": "status",
						"offset": 0,
						"slot": "6",
						"type": "t_enum(Status)25"
					}
				],
				"types": {
					"t_address": {
						"encoding": "inplace",
						"label": "address",
						"numberOfBytes": "20"
					},
					"t_bool": {
						"encoding": "inplace",
						"label": "bool",
						"numberOfBytes": "1"
					},
					"t_bytes32": {
						"encoding": "inplace",
						"label": "bytes32",
						"numberOfBytes": "32"
					},
					"t_bytes_storage": {
						"encoding": "bytes",
						"label": "bytes",
						"numberOfBytes": "32"
					},
					"t_enum(Status)25": {
						"encoding": "inplace",
						"label": "enum ValueTypesExample.Status",
						"numberOfBytes": "1"
					},
					"t_int256": {
						"encoding": "inplace",
						"label": "int256",
						"numberOfBytes": "32"
					},
					"t_uint256": {
						"encoding": "inplace",
						"label": "uint256",
						"numberOfBytes": "32"
					}
				}
			},
			"userdoc": {
				"kind": "user",
				"methods": {},
				"version": 1
			}
		}
	}
}