{
	"contracts/Practical_8.sol": {
		"RevertExample": {
			"abi": [
				{
					"inputs": [],
					"name": "data",
					"outputs": [
						{
							"internalType": "uint256",
							"name": "",
							"type": "uint256"
						}
					],
					"stateMutability": "view",
					"type": "function"
				},
				{
					"inputs": [
						{
							"internalType": "uint256",
							"name": "_data",
							"type": "uint256"
						}
					],
					"name": "setData",
					"outputs": [],
					"stateMutability": "nonpayable",
					"type": "function"
				}
			],
			"devdoc": {
				"kind": "dev",
				"methods": {},
				"version": 1
			},
			"evm": {
				"assembly": "    /* \"contracts/Practical_8.sol\":60:340  contract RevertExample {... */\n  mstore(0x40, 0x80)\n  callvalue\n  dup1\n  iszero\n  tag_1\n  jumpi\n  0x00\n  dup1\n  revert\ntag_1:\n  pop\n  dataSize(sub_0)\n  dup1\n  dataOffset(sub_0)\n  0x00\n  codecopy\n  0x00\n  return\nstop\n\nsub_0: assembly {\n        /* \"contracts/Practical_8.sol\":60:340  contract RevertExample {... */\n      mstore(0x40, 0x80)\n      callvalue\n      dup1\n      iszero\n      tag_1\n      jumpi\n      0x00\n      dup1\n      revert\n    tag_1:\n      pop\n      jumpi(tag_2, lt(calldatasize, 0x04))\n      shr(0xe0, calldataload(0x00))\n      dup1\n      0x5b4b73a9\n      eq\n      tag_3\n      jumpi\n      dup1\n      0x73d4a13a\n      eq\n      tag_4\n      jumpi\n    tag_2:\n      0x00\n      dup1\n      revert\n        /* \"contracts/Practical_8.sol\":182:337  function setData(uint256 _data) public {... */\n    tag_3:\n      tag_5\n      0x04\n      dup1\n      calldatasize\n      sub\n      dup2\n      add\n      swap1\n      tag_6\n      swap2\n      swap1\n      tag_7\n      jump\t// in\n    tag_6:\n      tag_8\n      jump\t// in\n    tag_5:\n      stop\n        /* \"contracts/Practical_8.sol\":90:109  uint256 public data */\n    tag_4:\n      tag_9\n      tag_10\n      jump\t// in\n    tag_9:\n      mload(0x40)\n      tag_11\n      swap2\n      swap1\n      tag_12\n      jump\t// in\n    tag_11:\n      mload(0x40)\n      dup1\n      swap2\n      sub\n      swap1\n      return\n        /* \"contracts/Practical_8.sol\":182:337  function setData(uint256 _data) public {... */\n    tag_8:\n        /* \"contracts/Practical_8.sol\":245:246  0 */\n      0x00\n        /* \"contracts/Practical_8.sol\":236:241  _data */\n      dup2\n        /* \"contracts/Practical_8.sol\":236:246  _data <= 0 */\n      gt\n        /* \"contracts/Practical_8.sol\":232:307  if (_data <= 0) {... */\n      tag_14\n      jumpi\n        /* \"contracts/Practical_8.sol\":263:295  revert(\"Value must be positive\") */\n      mload(0x40)\n      0x08c379a000000000000000000000000000000000000000000000000000000000\n      dup2\n      mstore\n      0x04\n      add\n      tag_15\n      swap1\n      tag_16\n      jump\t// in\n    tag_15:\n      mload(0x40)\n      dup1\n      swap2\n      sub\n      swap1\n      revert\n        /* \"contracts/Practical_8.sol\":232:307  if (_data <= 0) {... */\n    tag_14:\n        /* \"contracts/Practical_8.sol\":324:329  _data */\n      dup1\n        /* \"contracts/Practical_8.sol\":317:321  data */\n      0x00\n        /* \"contracts/Practical_8.sol\":317:329  data = _data */\n      dup2\n      swap1\n      sstore\n      pop\n        /* \"contracts/Practical_8.sol\":182:337  function setData(uint256 _data) public {... */\n      pop\n      jump\t// out\n        /* \"contracts/Practical_8.sol\":90:109  uint256 public data */\n    tag_10:\n      sload(0x00)\n      dup2\n      jump\t// out\n        /* \"#utility.yul\":88:205   */\n    tag_18:\n        /* \"#utility.yul\":197:198   */\n      0x00\n        /* \"#utility.yul\":194:195   */\n      dup1\n        /* \"#utility.yul\":187:199   */\n      revert\n        /* \"#utility.yul\":334:411   */\n    tag_20:\n        /* \"#utility.yul\":371:378   */\n      0x00\n        /* \"#utility.yul\":400:405   */\n      dup2\n        /* \"#utility.yul\":389:405   */\n      swap1\n      pop\n        /* \"#utility.yul\":334:411   */\n      swap2\n      swap1\n      pop\n      jump\t// out\n        /* \"#utility.yul\":417:539   */\n    tag_21:\n        /* \"#utility.yul\":490:514   */\n      tag_33\n        /* \"#utility.yul\":508:513   */\n      dup2\n        /* \"#utility.yul\":490:514   */\n      tag_20\n      jump\t// in\n    tag_33:\n        /* \"#utility.yul\":483:488   */\n      dup2\n        /* \"#utility.yul\":480:515   */\n      eq\n        /* \"#utility.yul\":470:533   */\n      tag_34\n      jumpi\n        /* \"#utility.yul\":529:530   */\n      0x00\n        /* \"#utility.yul\":526:527   */\n      dup1\n        /* \"#utility.yul\":519:531   */\n      revert\n        /* \"#utility.yul\":470:533   */\n    tag_34:\n        /* \"#utility.yul\":417:539   */\n      pop\n      jump\t// out\n        /* \"#utility.yul\":545:684   */\n    tag_22:\n        /* \"#utility.yul\":591:596   */\n      0x00\n        /* \"#utility.yul\":629:635   */\n      dup2\n        /* \"#utility.yul\":616:636   */\n      calldataload\n        /* \"#utility.yul\":607:636   */\n      swap1\n      pop\n        /* \"#utility.yul\":645:678   */\n      tag_36\n        /* \"#utility.yul\":672:677   */\n      dup2\n        /* \"#utility.yul\":645:678   */\n      tag_21\n      jump\t// in\n    tag_36:\n        /* \"#utility.yul\":545:684   */\n      swap3\n      swap2\n      pop\n      pop\n      jump\t// out\n        /* \"#utility.yul\":690:1019   */\n    tag_7:\n        /* \"#utility.yul\":749:755   */\n      0x00\n        /* \"#utility.yul\":798:800   */\n      0x20\n        /* \"#utility.yul\":786:795   */\n      dup3\n        /* \"#utility.yul\":777:784   */\n      dup5\n        /* \"#utility.yul\":773:796   */\n      sub\n        /* \"#utility.yul\":769:801   */\n      slt\n        /* \"#utility.yul\":766:885   */\n      iszero\n      tag_38\n      jumpi\n        /* \"#utility.yul\":804:883   */\n      tag_39\n      tag_18\n      jump\t// in\n    tag_39:\n        /* \"#utility.yul\":766:885   */\n    tag_38:\n        /* \"#utility.yul\":924:925   */\n      0x00\n        /* \"#utility.yul\":949:1002   */\n      tag_40\n        /* \"#utility.yul\":994:1001   */\n      dup5\n        /* \"#utility.yul\":985:991   */\n      dup3\n        /* \"#utility.yul\":974:983   */\n      dup6\n        /* \"#utility.yul\":970:992   */\n      add\n        /* \"#utility.yul\":949:1002   */\n      tag_22\n      jump\t// in\n    tag_40:\n        /* \"#utility.yul\":939:1002   */\n      swap2\n      pop\n        /* \"#utility.yul\":895:1012   */\n      pop\n        /* \"#utility.yul\":690:1019   */\n      swap3\n      swap2\n      pop\n      pop\n      jump\t// out\n        /* \"#utility.yul\":1025:1143   */\n    tag_23:\n        /* \"#utility.yul\":1112:1136   */\n      tag_42\n        /* \"#utility.yul\":1130:1135   */\n      dup2\n        /* \"#utility.yul\":1112:1136   */\n      tag_20\n      jump\t// in\n    tag_42:\n        /* \"#utility.yul\":1107:1110   */\n      dup3\n        /* \"#utility.yul\":1100:1137   */\n      mstore\n        /* \"#utility.yul\":1025:1143   */\n      pop\n      pop\n      jump\t// out\n        /* \"#utility.yul\":1149:1371   */\n    tag_12:\n        /* \"#utility.yul\":1242:1246   */\n      0x00\n        /* \"#utility.yul\":1280:1282   */\n      0x20\n        /* \"#utility.yul\":1269:1278   */\n      dup3\n        /* \"#utility.yul\":1265:1283   */\n      add\n        /* \"#utility.yul\":1257:1283   */\n      swap1\n      pop\n        /* \"#utility.yul\":1293:1364   */\n      tag_44\n        /* \"#utility.yul\":1361:1362   */\n      0x00\n        /* \"#utility.yul\":1350:1359   */\n      dup4\n        /* \"#utility.yul\":1346:1363   */\n      add\n        /* \"#utility.yul\":1337:1343   */\n      dup5\n        /* \"#utility.yul\":1293:1364   */\n      tag_23\n      jump\t// in\n    tag_44:\n        /* \"#utility.yul\":1149:1371   */\n      swap3\n      swap2\n      pop\n      pop\n      jump\t// out\n        /* \"#utility.yul\":1377:1546   */\n    tag_24:\n        /* \"#utility.yul\":1461:1472   */\n      0x00\n        /* \"#utility.yul\":1495:1501   */\n      dup3\n        /* \"#utility.yul\":1490:1493   */\n      dup3\n        /* \"#utility.yul\":1483:1502   */\n      mstore\n        /* \"#utility.yul\":1535:1539   */\n      0x20\n        /* \"#utility.yul\":1530:1533   */\n      dup3\n        /* \"#utility.yul\":1526:1540   */\n      add\n        /* \"#utility.yul\":1511:1540   */\n      swap1\n      pop\n        /* \"#utility.yul\":1377:1546   */\n      swap3\n      swap2\n      pop\n      pop\n      jump\t// out\n        /* \"#utility.yul\":1552:1724   */\n    tag_25:\n        /* \"#utility.yul\":1692:1716   */\n      0x56616c7565206d75737420626520706f73697469766500000000000000000000\n        /* \"#utility.yul\":1688:1689   */\n      0x00\n        /* \"#utility.yul\":1680:1686   */\n      dup3\n        /* \"#utility.yul\":1676:1690   */\n      add\n        /* \"#utility.yul\":1669:1717   */\n      mstore\n        /* \"#utility.yul\":1552:1724   */\n      pop\n      jump\t// out\n        /* \"#utility.yul\":1730:2096   */\n    tag_26:\n        /* \"#utility.yul\":1872:1875   */\n      0x00\n        /* \"#utility.yul\":1893:1960   */\n      tag_48\n        /* \"#utility.yul\":1957:1959   */\n      0x16\n        /* \"#utility.yul\":1952:1955   */\n      dup4\n        /* \"#utility.yul\":1893:1960   */\n      tag_24\n      jump\t// in\n    tag_48:\n        /* \"#utility.yul\":1886:1960   */\n      swap2\n      pop\n        /* \"#utility.yul\":1969:2062   */\n      tag_49\n        /* \"#utility.yul\":2058:2061   */\n      dup3\n        /* \"#utility.yul\":1969:2062   */\n      tag_25\n      jump\t// in\n    tag_49:\n        /* \"#utility.yul\":2087:2089   */\n      0x20\n        /* \"#utility.yul\":2082:2085   */\n      dup3\n        /* \"#utility.yul\":2078:2090   */\n      add\n        /* \"#utility.yul\":2071:2090   */\n      swap1\n      pop\n        /* \"#utility.yul\":1730:2096   */\n      swap2\n      swap1\n      pop\n      jump\t// out\n        /* \"#utility.yul\":2102:2521   */\n    tag_16:\n        /* \"#utility.yul\":2268:2272   */\n      0x00\n        /* \"#utility.yul\":2306:2308   */\n      0x20\n        /* \"#utility.yul\":2295:2304   */\n      dup3\n        /* \"#utility.yul\":2291:2309   */\n      add\n        /* \"#utility.yul\":2283:2309   */\n      swap1\n      pop\n        /* \"#utility.yul\":2355:2364   */\n      dup2\n        /* \"#utility.yul\":2349:2353   */\n      dup2\n        /* \"#utility.yul\":2345:2365   */\n      sub\n        /* \"#utility.yul\":2341:2342   */\n      0x00\n        /* \"#utility.yul\":2330:2339   */\n      dup4\n        /* \"#utility.yul\":2326:2343   */\n      add\n        /* \"#utility.yul\":2319:2366   */\n      mstore\n        /* \"#utility.yul\":2383:2514   */\n      tag_51\n        /* \"#utility.yul\":2509:2513   */\n      dup2\n        /* \"#utility.yul\":2383:2514   */\n      tag_26\n      jump\t// in\n    tag_51:\n        /* \"#utility.yul\":2375:2514   */\n      swap1\n      pop\n        /* \"#utility.yul\":2102:2521   */\n      swap2\n      swap1\n      pop\n      jump\t// out\n\n    auxdata: 0xa2646970667358221220bd6fb16676be55244a63883b3cb17f0f7681255690e0fd08dfca764954906dac64736f6c634300081a0033\n}\n",
				"bytecode": {
					"linkReferences": {},
					"object": "6080604052348015600e575f80fd5b506101fa8061001c5f395ff3fe608060405234801561000f575f80fd5b5060043610610034575f3560e01c80635b4b73a91461003857806373d4a13a14610054575b5f80fd5b610052600480360381019061004d91906100f9565b610072565b005b61005c6100bd565b6040516100699190610133565b60405180910390f35b5f81116100b4576040517f08c379a00000000000000000000000000000000000000000000000000000000081526004016100ab906101a6565b60405180910390fd5b805f8190555050565b5f5481565b5f80fd5b5f819050919050565b6100d8816100c6565b81146100e2575f80fd5b50565b5f813590506100f3816100cf565b92915050565b5f6020828403121561010e5761010d6100c2565b5b5f61011b848285016100e5565b91505092915050565b61012d816100c6565b82525050565b5f6020820190506101465f830184610124565b92915050565b5f82825260208201905092915050565b7f56616c7565206d75737420626520706f736974697665000000000000000000005f82015250565b5f61019060168361014c565b915061019b8261015c565b602082019050919050565b5f6020820190508181035f8301526101bd81610184565b905091905056fea2646970667358221220bd6fb16676be55244a63883b3cb17f0f7681255690e0fd08dfca764954906dac64736f6c634300081a0033",
					"opcodes": "PUSH1 0x80 PUSH1 0x40 MSTORE CALLVALUE DUP1 ISZERO PUSH1 0xE JUMPI PUSH0 DUP1 REVERT JUMPDEST POP PUSH2 0x1FA DUP1 PUSH2 0x1C PUSH0 CODECOPY PUSH0 RETURN INVALID PUSH1 0x80 PUSH1 0x40 MSTORE CALLVALUE DUP1 ISZERO PUSH2 0xF JUMPI PUSH0 DUP1 REVERT JUMPDEST POP PUSH1 0x4 CALLDATASIZE LT PUSH2 0x34 JUMPI PUSH0 CALLDATALOAD PUSH1 0xE0 SHR DUP1 PUSH4 0x5B4B73A9 EQ PUSH2 0x38 JUMPI DUP1 PUSH4 0x73D4A13A EQ PUSH2 0x54 JUMPI JUMPDEST PUSH0 DUP1 REVERT JUMPDEST PUSH2 0x52 PUSH1 0x4 DUP1 CALLDATASIZE SUB DUP2 ADD SWAP1 PUSH2 0x4D SWAP2 SWAP1 PUSH2 0xF9 JUMP JUMPDEST PUSH2 0x72 JUMP JUMPDEST STOP JUMPDEST PUSH2 0x5C PUSH2 0xBD JUMP JUMPDEST PUSH1 0x40 MLOAD PUSH2 0x69 SWAP2 SWAP1 PUSH2 0x133 JUMP JUMPDEST PUSH1 0x40 MLOAD DUP1 SWAP2 SUB SWAP1 RETURN JUMPDEST PUSH0 DUP2 GT PUSH2 0xB4 JUMPI PUSH1 0x40 MLOAD PUSH32 0x8C379A000000000000000000000000000000000000000000000000000000000 DUP2 MSTORE PUSH1 0x4 ADD PUSH2 0xAB SWAP1 PUSH2 0x1A6 JUMP JUMPDEST PUSH1 0x40 MLOAD DUP1 SWAP2 SUB SWAP1 REVERT JUMPDEST DUP1 PUSH0 DUP2 SWAP1 SSTORE POP POP JUMP JUMPDEST PUSH0 SLOAD DUP2 JUMP JUMPDEST PUSH0 DUP1 REVERT JUMPDEST PUSH0 DUP2 SWAP1 POP SWAP2 SWAP1 POP JUMP JUMPDEST PUSH2 0xD8 DUP2 PUSH2 0xC6 JUMP JUMPDEST DUP2 EQ PUSH2 0xE2 JUMPI PUSH0 DUP1 REVERT JUMPDEST POP JUMP JUMPDEST PUSH0 DUP2 CALLDATALOAD SWAP1 POP PUSH2 0xF3 DUP2 PUSH2 0xCF JUMP JUMPDEST SWAP3 SWAP2 POP POP JUMP JUMPDEST PUSH0 PUSH1 0x20 DUP3 DUP5 SUB SLT ISZERO PUSH2 0x10E JUMPI PUSH2 0x10D PUSH2 0xC2 JUMP JUMPDEST JUMPDEST PUSH0 PUSH2 0x11B DUP5 DUP3 DUP6 ADD PUSH2 0xE5 JUMP JUMPDEST SWAP2 POP POP SWAP3 SWAP2 POP POP JUMP JUMPDEST PUSH2 0x12D DUP2 PUSH2 0xC6 JUMP JUMPDEST DUP3 MSTORE POP POP JUMP JUMPDEST PUSH0 PUSH1 0x20 DUP3 ADD SWAP1 POP PUSH2 0x146 PUSH0 DUP4 ADD DUP5 PUSH2 0x124 JUMP JUMPDEST SWAP3 SWAP2 POP POP JUMP JUMPDEST PUSH0 DUP3 DUP3 MSTORE PUSH1 0x20 DUP3 ADD SWAP1 POP SWAP3 SWAP2 POP POP JUMP JUMPDEST PUSH32 0x56616C7565206D75737420626520706F73697469766500000000000000000000 PUSH0 DUP3 ADD MSTORE POP JUMP JUMPDEST PUSH0 PUSH2 0x190 PUSH1 0x16 DUP4 PUSH2 0x14C JUMP JUMPDEST SWAP2 POP PUSH2 0x19B DUP3 PUSH2 0x15C JUMP JUMPDEST PUSH1 0x20 DUP3 ADD SWAP1 POP SWAP2 SWAP1 POP JUMP JUMPDEST PUSH0 PUSH1 0x20 DUP3 ADD SWAP1 POP DUP2 DUP2 SUB PUSH0 DUP4 ADD MSTORE PUSH2 0x1BD DUP2 PUSH2 0x184 JUMP JUMPDEST SWAP1 POP SWAP2 SWAP1 POP JUMP INVALID LOG2 PUSH5 0x6970667358 0x22 SLT KECCAK256 0xBD PUSH16 0xB16676BE55244A63883B3CB17F0F7681 0x25 JUMP SWAP1 0xE0 REVERT ADDMOD 0xDF 0xCA PUSH23 0x4954906DAC64736F6C634300081A003300000000000000 "
				},
				"gasEstimates": {
					"creation": {
						"codeDepositCost": "101200",
						"executionCost": "145",
						"totalCost": "101345"
					},
					"external": {
						"data()": "2424",
						"setData(uint256)": "22514"
					}
				},
				"methodIdentifiers": {
					"data()": "73d4a13a",
					"setData(uint256)": "5b4b73a9"
				}
			},
			"storageLayout": {
				"storage": [
					{
						"astId": 3,
						"contract": "contracts/Practical_8.sol:RevertExample",
						"label": "data",
						"offset": 0,
						"slot": "0",
						"type": "t_uint256"
					}
				],
				"types": {
					"t_uint256": {
						"encoding": "inplace",
						"label": "uint256",
						"numberOfBytes": "32"
					}
				}
			},
			"userdoc": {
				"kind": "user",
				"methods": {},
				"version": 1
			}
		}
	}
}