{
	"data": {
		"bytecode": {
			"linkReferences": {},
			"object": "6080604052348015600e575f80fd5b505f80819055506114c4806100225f395ff3fe608060405234801561000f575f80fd5b506004361061007b575f3560e01c80636352211e116100595780636352211e146100fd57806370a082311461012d578063a542c02c1461015d578063d082e381146101795761007b565b806323b872dd1461007f5780633477ee2e1461009b57806335b8e820146100cc575b5f80fd5b61009960048036038101906100949190610b34565b610197565b005b6100b560048036038101906100b09190610b84565b610468565b6040516100c3929190610c1f565b60405180910390f35b6100e660048036038101906100e19190610b84565b610594565b6040516100f4929190610c1f565b60405180910390f35b61011760048036038101906101129190610b84565b610786565b6040516101249190610c63565b60405180910390f35b61014760048036038101906101429190610c7c565b610832565b6040516101549190610cb6565b60405180910390f35b61017760048036038101906101729190610dfb565b6108e6565b005b610181610a91565b60405161018e9190610cb6565b60405180910390f35b3373ffffffffffffffffffffffffffffffffffffffff168373ffffffffffffffffffffffffffffffffffffffff1614610205576040517f08c379a00000000000000000000000000000000000000000000000000000000081526004016101fc90610ee1565b60405180910390fd5b60015f8281526020019081526020015f205f9054906101000a900473ffffffffffffffffffffffffffffffffffffffff1673ffffffffffffffffffffffffffffffffffffffff168373ffffffffffffffffffffffffffffffffffffffff16146102a3576040517f08c379a000000000000000000000000000000000000000000000000000000000815260040161029a90610f49565b60405180910390fd5b5f73ffffffffffffffffffffffffffffffffffffffff168273ffffffffffffffffffffffffffffffffffffffff1603610311576040517f08c379a000000000000000000000000000000000000000000000000000000000815260040161030890610fd7565b60405180910390fd5b600160025f8573ffffffffffffffffffffffffffffffffffffffff1673ffffffffffffffffffffffffffffffffffffffff1681526020019081526020015f205f82825461035e9190611022565b92505081905550600160025f8473ffffffffffffffffffffffffffffffffffffffff1673ffffffffffffffffffffffffffffffffffffffff1681526020019081526020015f205f8282546103b29190611055565b925050819055508160015f8381526020019081526020015f205f6101000a81548173ffffffffffffffffffffffffffffffffffffffff021916908373ffffffffffffffffffffffffffffffffffffffff160217905550808273ffffffffffffffffffffffffffffffffffffffff168473ffffffffffffffffffffffffffffffffffffffff167fddf252ad1be2c89b69c2b068fc378daa952ba7f163c4a11628f55a4df523b3ef60405160405180910390a4505050565b6003602052805f5260405f205f91509050805f018054610487906110b5565b80601f01602080910402602001604051908101604052809291908181526020018280546104b3906110b5565b80156104fe5780601f106104d5576101008083540402835291602001916104fe565b820191905f5260205f20905b8154815290600101906020018083116104e157829003601f168201915b505050505090806001018054610513906110b5565b80601f016020809104026020016040519081016040528092919081815260200182805461053f906110b5565b801561058a5780601f106105615761010080835404028352916020019161058a565b820191905f5260205f20905b81548152906001019060200180831161056d57829003601f168201915b5050505050905082565b6060805f73ffffffffffffffffffffffffffffffffffffffff1660015f8581526020019081526020015f205f9054906101000a900473ffffffffffffffffffffffffffffffffffffffff1673ffffffffffffffffffffffffffffffffffffffff1603610635576040517f08c379a000000000000000000000000000000000000000000000000000000000815260040161062c9061112f565b60405180910390fd5b5f60035f8581526020019081526020015f206040518060400160405290815f82018054610661906110b5565b80601f016020809104026020016040519081016040528092919081815260200182805461068d906110b5565b80156106d85780601f106106af576101008083540402835291602001916106d8565b820191905f5260205f20905b8154815290600101906020018083116106bb57829003601f168201915b505050505081526020016001820180546106f1906110b5565b80601f016020809104026020016040519081016040528092919081815260200182805461071d906110b5565b80156107685780601f1061073f57610100808354040283529160200191610768565b820191905f5260205f20905b81548152906001019060200180831161074b57829003601f168201915b5050505050815250509050805f015181602001519250925050915091565b5f8060015f8481526020019081526020015f205f9054906101000a900473ffffffffffffffffffffffffffffffffffffffff1690505f73ffffffffffffffffffffffffffffffffffffffff168173ffffffffffffffffffffffffffffffffffffffff1603610829576040517f08c379a00000000000000000000000000000000000000000000000000000000081526004016108209061112f565b60405180910390fd5b80915050919050565b5f8073ffffffffffffffffffffffffffffffffffffffff168273ffffffffffffffffffffffffffffffffffffffff16036108a1576040517f08c379a0000000000000000000000000000000000000000000000000000000008152600401610898906111bd565b60405180910390fd5b60025f8373ffffffffffffffffffffffffffffffffffffffff1673ffffffffffffffffffffffffffffffffffffffff1681526020019081526020015f20549050919050565b5f8054905060405180604001604052808481526020018381525060035f8381526020019081526020015f205f820151815f0190816109249190611378565b50602082015181600101908161093a9190611378565b509050503360015f8381526020019081526020015f205f6101000a81548173ffffffffffffffffffffffffffffffffffffffff021916908373ffffffffffffffffffffffffffffffffffffffff160217905550600160025f3373ffffffffffffffffffffffffffffffffffffffff1673ffffffffffffffffffffffffffffffffffffffff1681526020019081526020015f205f8282546109da9190611055565b92505081905550803373ffffffffffffffffffffffffffffffffffffffff165f73ffffffffffffffffffffffffffffffffffffffff167fddf252ad1be2c89b69c2b068fc378daa952ba7f163c4a11628f55a4df523b3ef60405160405180910390a4807f79a88b6468d1e3f95c59d11058423d18a29e8cf0d8bf659d98a49ba2370ad8488484604051610a6e929190610c1f565b60405180910390a25f80815480929190610a8790611447565b9190505550505050565b5f5481565b5f604051905090565b5f80fd5b5f80fd5b5f73ffffffffffffffffffffffffffffffffffffffff82169050919050565b5f610ad082610aa7565b9050919050565b610ae081610ac6565b8114610aea575f80fd5b50565b5f81359050610afb81610ad7565b92915050565b5f819050919050565b610b1381610b01565b8114610b1d575f80fd5b50565b5f81359050610b2e81610b0a565b92915050565b5f805f60608486031215610b4b57610b4a610a9f565b5b5f610b5886828701610aed565b9350506020610b6986828701610aed565b9250506040610b7a86828701610b20565b9150509250925092565b5f60208284031215610b9957610b98610a9f565b5b5f610ba684828501610b20565b91505092915050565b5f81519050919050565b5f82825260208201905092915050565b8281835e5f83830152505050565b5f601f19601f8301169050919050565b5f610bf182610baf565b610bfb8185610bb9565b9350610c0b818560208601610bc9565b610c1481610bd7565b840191505092915050565b5f6040820190508181035f830152610c378185610be7565b90508181036020830152610c4b8184610be7565b90509392505050565b610c5d81610ac6565b82525050565b5f602082019050610c765f830184610c54565b92915050565b5f60208284031215610c9157610c90610a9f565b5b5f610c9e84828501610aed565b91505092915050565b610cb081610b01565b82525050565b5f602082019050610cc95f830184610ca7565b92915050565b5f80fd5b5f80fd5b7f4e487b71000000000000000000000000000000000000000000000000000000005f52604160045260245ffd5b610d0d82610bd7565b810181811067ffffffffffffffff82111715610d2c57610d2b610cd7565b5b80604052505050565b5f610d3e610a96565b9050610d4a8282610d04565b919050565b5f67ffffffffffffffff821115610d6957610d68610cd7565b5b610d7282610bd7565b9050602081019050919050565b828183375f83830152505050565b5f610d9f610d9a84610d4f565b610d35565b905082815260208101848484011115610dbb57610dba610cd3565b5b610dc6848285610d7f565b509392505050565b5f82601f830112610de257610de1610ccf565b5b8135610df2848260208601610d8d565b91505092915050565b5f8060408385031215610e1157610e10610a9f565b5b5f83013567ffffffffffffffff811115610e2e57610e2d610aa3565b5b610e3a85828601610dce565b925050602083013567ffffffffffffffff811115610e5b57610e5a610aa3565b5b610e6785828601610dce565b9150509250929050565b7f596f7520617265206e6f7420746865206f776e6572206f66207468697320746f5f8201527f6b656e0000000000000000000000000000000000000000000000000000000000602082015250565b5f610ecb602383610bb9565b9150610ed682610e71565b604082019050919050565b5f6020820190508181035f830152610ef881610ebf565b9050919050565b7f46726f6d2061646472657373206973206e6f7420746865206f776e65720000005f82015250565b5f610f33601d83610bb9565b9150610f3e82610eff565b602082019050919050565b5f6020820190508181035f830152610f6081610f27565b9050919050565b7f43616e6e6f74207472616e7366657220746f20746865207a65726f20616464725f8201527f6573730000000000000000000000000000000000000000000000000000000000602082015250565b5f610fc1602383610bb9565b9150610fcc82610f67565b604082019050919050565b5f6020820190508181035f830152610fee81610fb5565b9050919050565b7f4e487b71000000000000000000000000000000000000000000000000000000005f52601160045260245ffd5b5f61102c82610b01565b915061103783610b01565b925082820390508181111561104f5761104e610ff5565b5b92915050565b5f61105f82610b01565b915061106a83610b01565b925082820190508082111561108257611081610ff5565b5b92915050565b7f4e487b71000000000000000000000000000000000000000000000000000000005f52602260045260245ffd5b5f60028204905060018216806110cc57607f821691505b6020821081036110df576110de611088565b5b50919050565b7f546f6b656e20494420646f6573206e6f742065786973740000000000000000005f82015250565b5f611119601783610bb9565b9150611124826110e5565b602082019050919050565b5f6020820190508181035f8301526111468161110d565b9050919050565b7f41646472657373207a65726f206973206e6f7420612076616c6964206f776e655f8201527f7200000000000000000000000000000000000000000000000000000000000000602082015250565b5f6111a7602183610bb9565b91506111b28261114d565b604082019050919050565b5f6020820190508181035f8301526111d48161119b565b9050919050565b5f819050815f5260205f209050919050565b5f6020601f8301049050919050565b5f82821b905092915050565b5f600883026112377fffffffffffffffffffffffffffffffffffffffffffffffffffffffffffffffff826111fc565b61124186836111fc565b95508019841693508086168417925050509392505050565b5f819050919050565b5f61127c61127761127284610b01565b611259565b610b01565b9050919050565b5f819050919050565b61129583611262565b6112a96112a182611283565b848454611208565b825550505050565b5f90565b6112bd6112b1565b6112c881848461128c565b505050565b5b818110156112eb576112e05f826112b5565b6001810190506112ce565b5050565b601f82111561133057611301816111db565b61130a846111ed565b81016020851015611319578190505b61132d611325856111ed565b8301826112cd565b50505b505050565b5f82821c905092915050565b5f6113505f1984600802611335565b1980831691505092915050565b5f6113688383611341565b9150826002028217905092915050565b61138182610baf565b67ffffffffffffffff81111561139a57611399610cd7565b5b6113a482546110b5565b6113af8282856112ef565b5f60209050601f8311600181146113e0575f84156113ce578287015190505b6113d8858261135d565b86555061143f565b601f1984166113ee866111db565b5f5b82811015611415578489015182556001820191506020850194506020810190506113f0565b86831015611432578489015161142e601f891682611341565b8355505b6001600288020188555050505b505050505050565b5f61145182610b01565b91507fffffffffffffffffffffffffffffffffffffffffffffffffffffffffffffffff820361148357611482610ff5565b5b60018201905091905056fea2646970667358221220849cb8782e38baf9d7e85eeb9f28d561e100f40c6d59203485c902e1e603b20a64736f6c634300081a0033",
			"opcodes": "PUSH1 0x80 PUSH1 0x40 MSTORE CALLVALUE DUP1 ISZERO PUSH1 0xE JUMPI PUSH0 DUP1 REVERT JUMPDEST POP PUSH0 DUP1 DUP2 SWAP1 SSTORE POP PUSH2 0x14C4 DUP1 PUSH2 0x22 PUSH0 CODECOPY PUSH0 RETURN INVALID PUSH1 0x80 PUSH1 0x40 MSTORE CALLVALUE DUP1 ISZERO PUSH2 0xF JUMPI PUSH0 DUP1 REVERT JUMPDEST POP PUSH1 0x4 CALLDATASIZE LT PUSH2 0x7B JUMPI PUSH0 CALLDATALOAD PUSH1 0xE0 SHR DUP1 PUSH4 0x6352211E GT PUSH2 0x59 JUMPI DUP1 PUSH4 0x6352211E EQ PUSH2 0xFD JUMPI DUP1 PUSH4 0x70A08231 EQ PUSH2 0x12D JUMPI DUP1 PUSH4 0xA542C02C EQ PUSH2 0x15D JUMPI DUP1 PUSH4 0xD082E381 EQ PUSH2 0x179 JUMPI PUSH2 0x7B JUMP JUMPDEST DUP1 PUSH4 0x23B872DD EQ PUSH2 0x7F JUMPI DUP1 PUSH4 0x3477EE2E EQ PUSH2 0x9B JUMPI DUP1 PUSH4 0x35B8E820 EQ PUSH2 0xCC JUMPI JUMPDEST PUSH0 DUP1 REVERT JUMPDEST PUSH2 0x99 PUSH1 0x4 DUP1 CALLDATASIZE SUB DUP2 ADD SWAP1 PUSH2 0x94 SWAP2 SWAP1 PUSH2 0xB34 JUMP JUMPDEST PUSH2 0x197 JUMP JUMPDEST STOP JUMPDEST PUSH2 0xB5 PUSH1 0x4 DUP1 CALLDATASIZE SUB DUP2 ADD SWAP1 PUSH2 0xB0 SWAP2 SWAP1 PUSH2 0xB84 JUMP JUMPDEST PUSH2 0x468 JUMP JUMPDEST PUSH1 0x40 MLOAD PUSH2 0xC3 SWAP3 SWAP2 SWAP1 PUSH2 0xC1F JUMP JUMPDEST PUSH1 0x40 MLOAD DUP1 SWAP2 SUB SWAP1 RETURN JUMPDEST PUSH2 0xE6 PUSH1 0x4 DUP1 CALLDATASIZE SUB DUP2 ADD SWAP1 PUSH2 0xE1 SWAP2 SWAP1 PUSH2 0xB84 JUMP JUMPDEST PUSH2 0x594 JUMP JUMPDEST PUSH1 0x40 MLOAD PUSH2 0xF4 SWAP3 SWAP2 SWAP1 PUSH2 0xC1F JUMP JUMPDEST PUSH1 0x40 MLOAD DUP1 SWAP2 SUB SWAP1 RETURN JUMPDEST PUSH2 0x117 PUSH1 0x4 DUP1 CALLDATASIZE SUB DUP2 ADD SWAP1 PUSH2 0x112 SWAP2 SWAP1 PUSH2 0xB84 JUMP JUMPDEST PUSH2 0x786 JUMP JUMPDEST PUSH1 0x40 MLOAD PUSH2 0x124 SWAP2 SWAP1 PUSH2 0xC63 JUMP JUMPDEST PUSH1 0x40 MLOAD DUP1 SWAP2 SUB SWAP1 RETURN JUMPDEST PUSH2 0x147 PUSH1 0x4 DUP1 CALLDATASIZE SUB DUP2 ADD SWAP1 PUSH2 0x142 SWAP2 SWAP1 PUSH2 0xC7C JUMP JUMPDEST PUSH2 0x832 JUMP JUMPDEST PUSH1 0x40 MLOAD PUSH2 0x154 SWAP2 SWAP1 PUSH2 0xCB6 JUMP JUMPDEST PUSH1 0x40 MLOAD DUP1 SWAP2 SUB SWAP1 RETURN JUMPDEST PUSH2 0x177 PUSH1 0x4 DUP1 CALLDATASIZE SUB DUP2 ADD SWAP1 PUSH2 0x172 SWAP2 SWAP1 PUSH2 0xDFB JUMP JUMPDEST PUSH2 0x8E6 JUMP JUMPDEST STOP JUMPDEST PUSH2 0x181 PUSH2 0xA91 JUMP JUMPDEST PUSH1 0x40 MLOAD PUSH2 0x18E SWAP2 SWAP1 PUSH2 0xCB6 JUMP JUMPDEST PUSH1 0x40 MLOAD DUP1 SWAP2 SUB SWAP1 RETURN JUMPDEST CALLER PUSH20 0xFFFFFFFFFFFFFFFFFFFFFFFFFFFFFFFFFFFFFFFF AND DUP4 PUSH20 0xFFFFFFFFFFFFFFFFFFFFFFFFFFFFFFFFFFFFFFFF AND EQ PUSH2 0x205 JUMPI PUSH1 0x40 MLOAD PUSH32 0x8C379A000000000000000000000000000000000000000000000000000000000 DUP2 MSTORE PUSH1 0x4 ADD PUSH2 0x1FC SWAP1 PUSH2 0xEE1 JUMP JUMPDEST PUSH1 0x40 MLOAD DUP1 SWAP2 SUB SWAP1 REVERT JUMPDEST PUSH1 0x1 PUSH0 DUP3 DUP2 MSTORE PUSH1 0x20 ADD SWAP1 DUP2 MSTORE PUSH1 0x20 ADD PUSH0 KECCAK256 PUSH0 SWAP1 SLOAD SWAP1 PUSH2 0x100 EXP SWAP1 DIV PUSH20 0xFFFFFFFFFFFFFFFFFFFFFFFFFFFFFFFFFFFFFFFF AND PUSH20 0xFFFFFFFFFFFFFFFFFFFFFFFFFFFFFFFFFFFFFFFF AND DUP4 PUSH20 0xFFFFFFFFFFFFFFFFFFFFFFFFFFFFFFFFFFFFFFFF AND EQ PUSH2 0x2A3 JUMPI PUSH1 0x40 MLOAD PUSH32 0x8C379A000000000000000000000000000000000000000000000000000000000 DUP2 MSTORE PUSH1 0x4 ADD PUSH2 0x29A SWAP1 PUSH2 0xF49 JUMP JUMPDEST PUSH1 0x40 MLOAD DUP1 SWAP2 SUB SWAP1 REVERT JUMPDEST PUSH0 PUSH20 0xFFFFFFFFFFFFFFFFFFFFFFFFFFFFFFFFFFFFFFFF AND DUP3 PUSH20 0xFFFFFFFFFFFFFFFFFFFFFFFFFFFFFFFFFFFFFFFF AND SUB PUSH2 0x311 JUMPI PUSH1 0x40 MLOAD PUSH32 0x8C379A000000000000000000000000000000000000000000000000000000000 DUP2 MSTORE PUSH1 0x4 ADD PUSH2 0x308 SWAP1 PUSH2 0xFD7 JUMP JUMPDEST PUSH1 0x40 MLOAD DUP1 SWAP2 SUB SWAP1 REVERT JUMPDEST PUSH1 0x1 PUSH1 0x2 PUSH0 DUP6 PUSH20 0xFFFFFFFFFFFFFFFFFFFFFFFFFFFFFFFFFFFFFFFF AND PUSH20 0xFFFFFFFFFFFFFFFFFFFFFFFFFFFFFFFFFFFFFFFF AND DUP2 MSTORE PUSH1 0x20 ADD SWAP1 DUP2 MSTORE PUSH1 0x20 ADD PUSH0 KECCAK256 PUSH0 DUP3 DUP3 SLOAD PUSH2 0x35E SWAP2 SWAP1 PUSH2 0x1022 JUMP JUMPDEST SWAP3 POP POP DUP2 SWAP1 SSTORE POP PUSH1 0x1 PUSH1 0x2 PUSH0 DUP5 PUSH20 0xFFFFFFFFFFFFFFFFFFFFFFFFFFFFFFFFFFFFFFFF AND PUSH20 0xFFFFFFFFFFFFFFFFFFFFFFFFFFFFFFFFFFFFFFFF AND DUP2 MSTORE PUSH1 0x20 ADD SWAP1 DUP2 MSTORE PUSH1 0x20 ADD PUSH0 KECCAK256 PUSH0 DUP3 DUP3 SLOAD PUSH2 0x3B2 SWAP2 SWAP1 PUSH2 0x1055 JUMP JUMPDEST SWAP3 POP POP DUP2 SWAP1 SSTORE POP DUP2 PUSH1 0x1 PUSH0 DUP4 DUP2 MSTORE PUSH1 0x20 ADD SWAP1 DUP2 MSTORE PUSH1 0x20 ADD PUSH0 KECCAK256 PUSH0 PUSH2 0x100 EXP DUP2 SLOAD DUP2 PUSH20 0xFFFFFFFFFFFFFFFFFFFFFFFFFFFFFFFFFFFFFFFF MUL NOT AND SWAP1 DUP4 PUSH20 0xFFFFFFFFFFFFFFFFFFFFFFFFFFFFFFFFFFFFFFFF AND MUL OR SWAP1 SSTORE POP DUP1 DUP3 PUSH20 0xFFFFFFFFFFFFFFFFFFFFFFFFFFFFFFFFFFFFFFFF AND DUP5 PUSH20 0xFFFFFFFFFFFFFFFFFFFFFFFFFFFFFFFFFFFFFFFF AND PUSH32 0xDDF252AD1BE2C89B69C2B068FC378DAA952BA7F163C4A11628F55A4DF523B3EF PUSH1 0x40 MLOAD PUSH1 0x40 MLOAD DUP1 SWAP2 SUB SWAP1 LOG4 POP POP POP JUMP JUMPDEST PUSH1 0x3 PUSH1 0x20 MSTORE DUP1 PUSH0 MSTORE PUSH1 0x40 PUSH0 KECCAK256 PUSH0 SWAP2 POP SWAP1 POP DUP1 PUSH0 ADD DUP1 SLOAD PUSH2 0x487 SWAP1 PUSH2 0x10B5 JUMP JUMPDEST DUP1 PUSH1 0x1F ADD PUSH1 0x20 DUP1 SWAP2 DIV MUL PUSH1 0x20 ADD PUSH1 0x40 MLOAD SWAP1 DUP2 ADD PUSH1 0x40 MSTORE DUP1 SWAP3 SWAP2 SWAP1 DUP2 DUP2 MSTORE PUSH1 0x20 ADD DUP3 DUP1 SLOAD PUSH2 0x4B3 SWAP1 PUSH2 0x10B5 JUMP JUMPDEST DUP1 ISZERO PUSH2 0x4FE JUMPI DUP1 PUSH1 0x1F LT PUSH2 0x4D5 JUMPI PUSH2 0x100 DUP1 DUP4 SLOAD DIV MUL DUP4 MSTORE SWAP2 PUSH1 0x20 ADD SWAP2 PUSH2 0x4FE JUMP JUMPDEST DUP3 ADD SWAP2 SWAP1 PUSH0 MSTORE PUSH1 0x20 PUSH0 KECCAK256 SWAP1 JUMPDEST DUP2 SLOAD DUP2 MSTORE SWAP1 PUSH1 0x1 ADD SWAP1 PUSH1 0x20 ADD DUP1 DUP4 GT PUSH2 0x4E1 JUMPI DUP3 SWAP1 SUB PUSH1 0x1F AND DUP3 ADD SWAP2 JUMPDEST POP POP POP POP POP SWAP1 DUP1 PUSH1 0x1 ADD DUP1 SLOAD PUSH2 0x513 SWAP1 PUSH2 0x10B5 JUMP JUMPDEST DUP1 PUSH1 0x1F ADD PUSH1 0x20 DUP1 SWAP2 DIV MUL PUSH1 0x20 ADD PUSH1 0x40 MLOAD SWAP1 DUP2 ADD PUSH1 0x40 MSTORE DUP1 SWAP3 SWAP2 SWAP1 DUP2 DUP2 MSTORE PUSH1 0x20 ADD DUP3 DUP1 SLOAD PUSH2 0x53F SWAP1 PUSH2 0x10B5 JUMP JUMPDEST DUP1 ISZERO PUSH2 0x58A JUMPI DUP1 PUSH1 0x1F LT PUSH2 0x561 JUMPI PUSH2 0x100 DUP1 DUP4 SLOAD DIV MUL DUP4 MSTORE SWAP2 PUSH1 0x20 ADD SWAP2 PUSH2 0x58A JUMP JUMPDEST DUP3 ADD SWAP2 SWAP1 PUSH0 MSTORE PUSH1 0x20 PUSH0 KECCAK256 SWAP1 JUMPDEST DUP2 SLOAD DUP2 MSTORE SWAP1 PUSH1 0x1 ADD SWAP1 PUSH1 0x20 ADD DUP1 DUP4 GT PUSH2 0x56D JUMPI DUP3 SWAP1 SUB PUSH1 0x1F AND DUP3 ADD SWAP2 JUMPDEST POP POP POP POP POP SWAP1 POP DUP3 JUMP JUMPDEST PUSH1 0x60 DUP1 PUSH0 PUSH20 0xFFFFFFFFFFFFFFFFFFFFFFFFFFFFFFFFFFFFFFFF AND PUSH1 0x1 PUSH0 DUP6 DUP2 MSTORE PUSH1 0x20 ADD SWAP1 DUP2 MSTORE PUSH1 0x20 ADD PUSH0 KECCAK256 PUSH0 SWAP1 SLOAD SWAP1 PUSH2 0x100 EXP SWAP1 DIV PUSH20 0xFFFFFFFFFFFFFFFFFFFFFFFFFFFFFFFFFFFFFFFF AND PUSH20 0xFFFFFFFFFFFFFFFFFFFFFFFFFFFFFFFFFFFFFFFF AND SUB PUSH2 0x635 JUMPI PUSH1 0x40 MLOAD PUSH32 0x8C379A000000000000000000000000000000000000000000000000000000000 DUP2 MSTORE PUSH1 0x4 ADD PUSH2 0x62C SWAP1 PUSH2 0x112F JUMP JUMPDEST PUSH1 0x40 MLOAD DUP1 SWAP2 SUB SWAP1 REVERT JUMPDEST PUSH0 PUSH1 0x3 PUSH0 DUP6 DUP2 MSTORE PUSH1 0x20 ADD SWAP1 DUP2 MSTORE PUSH1 0x20 ADD PUSH0 KECCAK256 PUSH1 0x40 MLOAD DUP1 PUSH1 0x40 ADD PUSH1 0x40 MSTORE SWAP1 DUP2 PUSH0 DUP3 ADD DUP1 SLOAD PUSH2 0x661 SWAP1 PUSH2 0x10B5 JUMP JUMPDEST DUP1 PUSH1 0x1F ADD PUSH1 0x20 DUP1 SWAP2 DIV MUL PUSH1 0x20 ADD PUSH1 0x40 MLOAD SWAP1 DUP2 ADD PUSH1 0x40 MSTORE DUP1 SWAP3 SWAP2 SWAP1 DUP2 DUP2 MSTORE PUSH1 0x20 ADD DUP3 DUP1 SLOAD PUSH2 0x68D SWAP1 PUSH2 0x10B5 JUMP JUMPDEST DUP1 ISZERO PUSH2 0x6D8 JUMPI DUP1 PUSH1 0x1F LT PUSH2 0x6AF JUMPI PUSH2 0x100 DUP1 DUP4 SLOAD DIV MUL DUP4 MSTORE SWAP2 PUSH1 0x20 ADD SWAP2 PUSH2 0x6D8 JUMP JUMPDEST DUP3 ADD SWAP2 SWAP1 PUSH0 MSTORE PUSH1 0x20 PUSH0 KECCAK256 SWAP1 JUMPDEST DUP2 SLOAD DUP2 MSTORE SWAP1 PUSH1 0x1 ADD SWAP1 PUSH1 0x20 ADD DUP1 DUP4 GT PUSH2 0x6BB JUMPI DUP3 SWAP1 SUB PUSH1 0x1F AND DUP3 ADD SWAP2 JUMPDEST POP POP POP POP POP DUP2 MSTORE PUSH1 0x20 ADD PUSH1 0x1 DUP3 ADD DUP1 SLOAD PUSH2 0x6F1 SWAP1 PUSH2 0x10B5 JUMP JUMPDEST DUP1 PUSH1 0x1F ADD PUSH1 0x20 DUP1 SWAP2 DIV MUL PUSH1 0x20 ADD PUSH1 0x40 MLOAD SWAP1 DUP2 ADD PUSH1 0x40 MSTORE DUP1 SWAP3 SWAP2 SWAP1 DUP2 DUP2 MSTORE PUSH1 0x20 ADD DUP3 DUP1 SLOAD PUSH2 0x71D SWAP1 PUSH2 0x10B5 JUMP JUMPDEST DUP1 ISZERO PUSH2 0x768 JUMPI DUP1 PUSH1 0x1F LT PUSH2 0x73F JUMPI PUSH2 0x100 DUP1 DUP4 SLOAD DIV MUL DUP4 MSTORE SWAP2 PUSH1 0x20 ADD SWAP2 PUSH2 0x768 JUMP JUMPDEST DUP3 ADD SWAP2 SWAP1 PUSH0 MSTORE PUSH1 0x20 PUSH0 KECCAK256 SWAP1 JUMPDEST DUP2 SLOAD DUP2 MSTORE SWAP1 PUSH1 0x1 ADD SWAP1 PUSH1 0x20 ADD DUP1 DUP4 GT PUSH2 0x74B JUMPI DUP3 SWAP1 SUB PUSH1 0x1F AND DUP3 ADD SWAP2 JUMPDEST POP POP POP POP POP DUP2 MSTORE POP POP SWAP1 POP DUP1 PUSH0 ADD MLOAD DUP2 PUSH1 0x20 ADD MLOAD SWAP3 POP SWAP3 POP POP SWAP2 POP SWAP2 JUMP JUMPDEST PUSH0 DUP1 PUSH1 0x1 PUSH0 DUP5 DUP2 MSTORE PUSH1 0x20 ADD SWAP1 DUP2 MSTORE PUSH1 0x20 ADD PUSH0 KECCAK256 PUSH0 SWAP1 SLOAD SWAP1 PUSH2 0x100 EXP SWAP1 DIV PUSH20 0xFFFFFFFFFFFFFFFFFFFFFFFFFFFFFFFFFFFFFFFF AND SWAP1 POP PUSH0 PUSH20 0xFFFFFFFFFFFFFFFFFFFFFFFFFFFFFFFFFFFFFFFF AND DUP2 PUSH20 0xFFFFFFFFFFFFFFFFFFFFFFFFFFFFFFFFFFFFFFFF AND SUB PUSH2 0x829 JUMPI PUSH1 0x40 MLOAD PUSH32 0x8C379A000000000000000000000000000000000000000000000000000000000 DUP2 MSTORE PUSH1 0x4 ADD PUSH2 0x820 SWAP1 PUSH2 0x112F JUMP JUMPDEST PUSH1 0x40 MLOAD DUP1 SWAP2 SUB SWAP1 REVERT JUMPDEST DUP1 SWAP2 POP POP SWAP2 SWAP1 POP JUMP JUMPDEST PUSH0 DUP1 PUSH20 0xFFFFFFFFFFFFFFFFFFFFFFFFFFFFFFFFFFFFFFFF AND DUP3 PUSH20 0xFFFFFFFFFFFFFFFFFFFFFFFFFFFFFFFFFFFFFFFF AND SUB PUSH2 0x8A1 JUMPI PUSH1 0x40 MLOAD PUSH32 0x8C379A000000000000000000000000000000000000000000000000000000000 DUP2 MSTORE PUSH1 0x4 ADD PUSH2 0x898 SWAP1 PUSH2 0x11BD JUMP JUMPDEST PUSH1 0x40 MLOAD DUP1 SWAP2 SUB SWAP1 REVERT JUMPDEST PUSH1 0x2 PUSH0 DUP4 PUSH20 0xFFFFFFFFFFFFFFFFFFFFFFFFFFFFFFFFFFFFFFFF AND PUSH20 0xFFFFFFFFFFFFFFFFFFFFFFFFFFFFFFFFFFFFFFFF AND DUP2 MSTORE PUSH1 0x20 ADD SWAP1 DUP2 MSTORE PUSH1 0x20 ADD PUSH0 KECCAK256 SLOAD SWAP1 POP SWAP2 SWAP1 POP JUMP JUMPDEST PUSH0 DUP1 SLOAD SWAP1 POP PUSH1 0x40 MLOAD DUP1 PUSH1 0x40 ADD PUSH1 0x40 MSTORE DUP1 DUP5 DUP2 MSTORE PUSH1 0x20 ADD DUP4 DUP2 MSTORE POP PUSH1 0x3 PUSH0 DUP4 DUP2 MSTORE PUSH1 0x20 ADD SWAP1 DUP2 MSTORE PUSH1 0x20 ADD PUSH0 KECCAK256 PUSH0 DUP3 ADD MLOAD DUP2 PUSH0 ADD SWAP1 DUP2 PUSH2 0x924 SWAP2 SWAP1 PUSH2 0x1378 JUMP JUMPDEST POP PUSH1 0x20 DUP3 ADD MLOAD DUP2 PUSH1 0x1 ADD SWAP1 DUP2 PUSH2 0x93A SWAP2 SWAP1 PUSH2 0x1378 JUMP JUMPDEST POP SWAP1 POP POP CALLER PUSH1 0x1 PUSH0 DUP4 DUP2 MSTORE PUSH1 0x20 ADD SWAP1 DUP2 MSTORE PUSH1 0x20 ADD PUSH0 KECCAK256 PUSH0 PUSH2 0x100 EXP DUP2 SLOAD DUP2 PUSH20 0xFFFFFFFFFFFFFFFFFFFFFFFFFFFFFFFFFFFFFFFF MUL NOT AND SWAP1 DUP4 PUSH20 0xFFFFFFFFFFFFFFFFFFFFFFFFFFFFFFFFFFFFFFFF AND MUL OR SWAP1 SSTORE POP PUSH1 0x1 PUSH1 0x2 PUSH0 CALLER PUSH20 0xFFFFFFFFFFFFFFFFFFFFFFFFFFFFFFFFFFFFFFFF AND PUSH20 0xFFFFFFFFFFFFFFFFFFFFFFFFFFFFFFFFFFFFFFFF AND DUP2 MSTORE PUSH1 0x20 ADD SWAP1 DUP2 MSTORE PUSH1 0x20 ADD PUSH0 KECCAK256 PUSH0 DUP3 DUP3 SLOAD PUSH2 0x9DA SWAP2 SWAP1 PUSH2 0x1055 JUMP JUMPDEST SWAP3 POP POP DUP2 SWAP1 SSTORE POP DUP1 CALLER PUSH20 0xFFFFFFFFFFFFFFFFFFFFFFFFFFFFFFFFFFFFFFFF AND PUSH0 PUSH20 0xFFFFFFFFFFFFFFFFFFFFFFFFFFFFFFFFFFFFFFFF AND PUSH32 0xDDF252AD1BE2C89B69C2B068FC378DAA952BA7F163C4A11628F55A4DF523B3EF PUSH1 0x40 MLOAD PUSH1 0x40 MLOAD DUP1 SWAP2 SUB SWAP1 LOG4 DUP1 PUSH32 0x79A88B6468D1E3F95C59D11058423D18A29E8CF0D8BF659D98A49BA2370AD848 DUP5 DUP5 PUSH1 0x40 MLOAD PUSH2 0xA6E SWAP3 SWAP2 SWAP1 PUSH2 0xC1F JUMP JUMPDEST PUSH1 0x40 MLOAD DUP1 SWAP2 SUB SWAP1 LOG2 PUSH0 DUP1 DUP2 SLOAD DUP1 SWAP3 SWAP2 SWAP1 PUSH2 0xA87 SWAP1 PUSH2 0x1447 JUMP JUMPDEST SWAP2 SWAP1 POP SSTORE POP POP POP POP JUMP JUMPDEST PUSH0 SLOAD DUP2 JUMP JUMPDEST PUSH0 PUSH1 0x40 MLOAD SWAP1 POP SWAP1 JUMP JUMPDEST PUSH0 DUP1 REVERT JUMPDEST PUSH0 DUP1 REVERT JUMPDEST PUSH0 PUSH20 0xFFFFFFFFFFFFFFFFFFFFFFFFFFFFFFFFFFFFFFFF DUP3 AND SWAP1 POP SWAP2 SWAP1 POP JUMP JUMPDEST PUSH0 PUSH2 0xAD0 DUP3 PUSH2 0xAA7 JUMP JUMPDEST SWAP1 POP SWAP2 SWAP1 POP JUMP JUMPDEST PUSH2 0xAE0 DUP2 PUSH2 0xAC6 JUMP JUMPDEST DUP2 EQ PUSH2 0xAEA JUMPI PUSH0 DUP1 REVERT JUMPDEST POP JUMP JUMPDEST PUSH0 DUP2 CALLDATALOAD SWAP1 POP PUSH2 0xAFB DUP2 PUSH2 0xAD7 JUMP JUMPDEST SWAP3 SWAP2 POP POP JUMP JUMPDEST PUSH0 DUP2 SWAP1 POP SWAP2 SWAP1 POP JUMP JUMPDEST PUSH2 0xB13 DUP2 PUSH2 0xB01 JUMP JUMPDEST DUP2 EQ PUSH2 0xB1D JUMPI PUSH0 DUP1 REVERT JUMPDEST POP JUMP JUMPDEST PUSH0 DUP2 CALLDATALOAD SWAP1 POP PUSH2 0xB2E DUP2 PUSH2 0xB0A JUMP JUMPDEST SWAP3 SWAP2 POP POP JUMP JUMPDEST PUSH0 DUP1 PUSH0 PUSH1 0x60 DUP5 DUP7 SUB SLT ISZERO PUSH2 0xB4B JUMPI PUSH2 0xB4A PUSH2 0xA9F JUMP JUMPDEST JUMPDEST PUSH0 PUSH2 0xB58 DUP7 DUP3 DUP8 ADD PUSH2 0xAED JUMP JUMPDEST SWAP4 POP POP PUSH1 0x20 PUSH2 0xB69 DUP7 DUP3 DUP8 ADD PUSH2 0xAED JUMP JUMPDEST SWAP3 POP POP PUSH1 0x40 PUSH2 0xB7A DUP7 DUP3 DUP8 ADD PUSH2 0xB20 JUMP JUMPDEST SWAP2 POP POP SWAP3 POP SWAP3 POP SWAP3 JUMP JUMPDEST PUSH0 PUSH1 0x20 DUP3 DUP5 SUB SLT ISZERO PUSH2 0xB99 JUMPI PUSH2 0xB98 PUSH2 0xA9F JUMP JUMPDEST JUMPDEST PUSH0 PUSH2 0xBA6 DUP5 DUP3 DUP6 ADD PUSH2 0xB20 JUMP JUMPDEST SWAP2 POP POP SWAP3 SWAP2 POP POP JUMP JUMPDEST PUSH0 DUP2 MLOAD SWAP1 POP SWAP2 SWAP1 POP JUMP JUMPDEST PUSH0 DUP3 DUP3 MSTORE PUSH1 0x20 DUP3 ADD SWAP1 POP SWAP3 SWAP2 POP POP JUMP JUMPDEST DUP3 DUP2 DUP4 MCOPY PUSH0 DUP4 DUP4 ADD MSTORE POP POP POP JUMP JUMPDEST PUSH0 PUSH1 0x1F NOT PUSH1 0x1F DUP4 ADD AND SWAP1 POP SWAP2 SWAP1 POP JUMP JUMPDEST PUSH0 PUSH2 0xBF1 DUP3 PUSH2 0xBAF JUMP JUMPDEST PUSH2 0xBFB DUP2 DUP6 PUSH2 0xBB9 JUMP JUMPDEST SWAP4 POP PUSH2 0xC0B DUP2 DUP6 PUSH1 0x20 DUP7 ADD PUSH2 0xBC9 JUMP JUMPDEST PUSH2 0xC14 DUP2 PUSH2 0xBD7 JUMP JUMPDEST DUP5 ADD SWAP2 POP POP SWAP3 SWAP2 POP POP JUMP JUMPDEST PUSH0 PUSH1 0x40 DUP3 ADD SWAP1 POP DUP2 DUP2 SUB PUSH0 DUP4 ADD MSTORE PUSH2 0xC37 DUP2 DUP6 PUSH2 0xBE7 JUMP JUMPDEST SWAP1 POP DUP2 DUP2 SUB PUSH1 0x20 DUP4 ADD MSTORE PUSH2 0xC4B DUP2 DUP5 PUSH2 0xBE7 JUMP JUMPDEST SWAP1 POP SWAP4 SWAP3 POP POP POP JUMP JUMPDEST PUSH2 0xC5D DUP2 PUSH2 0xAC6 JUMP JUMPDEST DUP3 MSTORE POP POP JUMP JUMPDEST PUSH0 PUSH1 0x20 DUP3 ADD SWAP1 POP PUSH2 0xC76 PUSH0 DUP4 ADD DUP5 PUSH2 0xC54 JUMP JUMPDEST SWAP3 SWAP2 POP POP JUMP JUMPDEST PUSH0 PUSH1 0x20 DUP3 DUP5 SUB SLT ISZERO PUSH2 0xC91 JUMPI PUSH2 0xC90 PUSH2 0xA9F JUMP JUMPDEST JUMPDEST PUSH0 PUSH2 0xC9E DUP5 DUP3 DUP6 ADD PUSH2 0xAED JUMP JUMPDEST SWAP2 POP POP SWAP3 SWAP2 POP POP JUMP JUMPDEST PUSH2 0xCB0 DUP2 PUSH2 0xB01 JUMP JUMPDEST DUP3 MSTORE POP POP JUMP JUMPDEST PUSH0 PUSH1 0x20 DUP3 ADD SWAP1 POP PUSH2 0xCC9 PUSH0 DUP4 ADD DUP5 PUSH2 0xCA7 JUMP JUMPDEST SWAP3 SWAP2 POP POP JUMP JUMPDEST PUSH0 DUP1 REVERT JUMPDEST PUSH0 DUP1 REVERT JUMPDEST PUSH32 0x4E487B7100000000000000000000000000000000000000000000000000000000 PUSH0 MSTORE PUSH1 0x41 PUSH1 0x4 MSTORE PUSH1 0x24 PUSH0 REVERT JUMPDEST PUSH2 0xD0D DUP3 PUSH2 0xBD7 JUMP JUMPDEST DUP2 ADD DUP2 DUP2 LT PUSH8 0xFFFFFFFFFFFFFFFF DUP3 GT OR ISZERO PUSH2 0xD2C JUMPI PUSH2 0xD2B PUSH2 0xCD7 JUMP JUMPDEST JUMPDEST DUP1 PUSH1 0x40 MSTORE POP POP POP JUMP JUMPDEST PUSH0 PUSH2 0xD3E PUSH2 0xA96 JUMP JUMPDEST SWAP1 POP PUSH2 0xD4A DUP3 DUP3 PUSH2 0xD04 JUMP JUMPDEST SWAP2 SWAP1 POP JUMP JUMPDEST PUSH0 PUSH8 0xFFFFFFFFFFFFFFFF DUP3 GT ISZERO PUSH2 0xD69 JUMPI PUSH2 0xD68 PUSH2 0xCD7 JUMP JUMPDEST JUMPDEST PUSH2 0xD72 DUP3 PUSH2 0xBD7 JUMP JUMPDEST SWAP1 POP PUSH1 0x20 DUP2 ADD SWAP1 POP SWAP2 SWAP1 POP JUMP JUMPDEST DUP3 DUP2 DUP4 CALLDATACOPY PUSH0 DUP4 DUP4 ADD MSTORE POP POP POP JUMP JUMPDEST PUSH0 PUSH2 0xD9F PUSH2 0xD9A DUP5 PUSH2 0xD4F JUMP JUMPDEST PUSH2 0xD35 JUMP JUMPDEST SWAP1 POP DUP3 DUP2 MSTORE PUSH1 0x20 DUP2 ADD DUP5 DUP5 DUP5 ADD GT ISZERO PUSH2 0xDBB JUMPI PUSH2 0xDBA PUSH2 0xCD3 JUMP JUMPDEST JUMPDEST PUSH2 0xDC6 DUP5 DUP3 DUP6 PUSH2 0xD7F JUMP JUMPDEST POP SWAP4 SWAP3 POP POP POP JUMP JUMPDEST PUSH0 DUP3 PUSH1 0x1F DUP4 ADD SLT PUSH2 0xDE2 JUMPI PUSH2 0xDE1 PUSH2 0xCCF JUMP JUMPDEST JUMPDEST DUP2 CALLDATALOAD PUSH2 0xDF2 DUP5 DUP3 PUSH1 0x20 DUP7 ADD PUSH2 0xD8D JUMP JUMPDEST SWAP2 POP POP SWAP3 SWAP2 POP POP JUMP JUMPDEST PUSH0 DUP1 PUSH1 0x40 DUP4 DUP6 SUB SLT ISZERO PUSH2 0xE11 JUMPI PUSH2 0xE10 PUSH2 0xA9F JUMP JUMPDEST JUMPDEST PUSH0 DUP4 ADD CALLDATALOAD PUSH8 0xFFFFFFFFFFFFFFFF DUP2 GT ISZERO PUSH2 0xE2E JUMPI PUSH2 0xE2D PUSH2 0xAA3 JUMP JUMPDEST JUMPDEST PUSH2 0xE3A DUP6 DUP3 DUP7 ADD PUSH2 0xDCE JUMP JUMPDEST SWAP3 POP POP PUSH1 0x20 DUP4 ADD CALLDATALOAD PUSH8 0xFFFFFFFFFFFFFFFF DUP2 GT ISZERO PUSH2 0xE5B JUMPI PUSH2 0xE5A PUSH2 0xAA3 JUMP JUMPDEST JUMPDEST PUSH2 0xE67 DUP6 DUP3 DUP7 ADD PUSH2 0xDCE JUMP JUMPDEST SWAP2 POP POP SWAP3 POP SWAP3 SWAP1 POP JUMP JUMPDEST PUSH32 0x596F7520617265206E6F7420746865206F776E6572206F66207468697320746F PUSH0 DUP3 ADD MSTORE PUSH32 0x6B656E0000000000000000000000000000000000000000000000000000000000 PUSH1 0x20 DUP3 ADD MSTORE POP JUMP JUMPDEST PUSH0 PUSH2 0xECB PUSH1 0x23 DUP4 PUSH2 0xBB9 JUMP JUMPDEST SWAP2 POP PUSH2 0xED6 DUP3 PUSH2 0xE71 JUMP JUMPDEST PUSH1 0x40 DUP3 ADD SWAP1 POP SWAP2 SWAP1 POP JUMP JUMPDEST PUSH0 PUSH1 0x20 DUP3 ADD SWAP1 POP DUP2 DUP2 SUB PUSH0 DUP4 ADD MSTORE PUSH2 0xEF8 DUP2 PUSH2 0xEBF JUMP JUMPDEST SWAP1 POP SWAP2 SWAP1 POP JUMP JUMPDEST PUSH32 0x46726F6D2061646472657373206973206E6F7420746865206F776E6572000000 PUSH0 DUP3 ADD MSTORE POP JUMP JUMPDEST PUSH0 PUSH2 0xF33 PUSH1 0x1D DUP4 PUSH2 0xBB9 JUMP JUMPDEST SWAP2 POP PUSH2 0xF3E DUP3 PUSH2 0xEFF JUMP JUMPDEST PUSH1 0x20 DUP3 ADD SWAP1 POP SWAP2 SWAP1 POP JUMP JUMPDEST PUSH0 PUSH1 0x20 DUP3 ADD SWAP1 POP DUP2 DUP2 SUB PUSH0 DUP4 ADD MSTORE PUSH2 0xF60 DUP2 PUSH2 0xF27 JUMP JUMPDEST SWAP1 POP SWAP2 SWAP1 POP JUMP JUMPDEST PUSH32 0x43616E6E6F74207472616E7366657220746F20746865207A65726F2061646472 PUSH0 DUP3 ADD MSTORE PUSH32 0x6573730000000000000000000000000000000000000000000000000000000000 PUSH1 0x20 DUP3 ADD MSTORE POP JUMP JUMPDEST PUSH0 PUSH2 0xFC1 PUSH1 0x23 DUP4 PUSH2 0xBB9 JUMP JUMPDEST SWAP2 POP PUSH2 0xFCC DUP3 PUSH2 0xF67 JUMP JUMPDEST PUSH1 0x40 DUP3 ADD SWAP1 POP SWAP2 SWAP1 POP JUMP JUMPDEST PUSH0 PUSH1 0x20 DUP3 ADD SWAP1 POP DUP2 DUP2 SUB PUSH0 DUP4 ADD MSTORE PUSH2 0xFEE DUP2 PUSH2 0xFB5 JUMP JUMPDEST SWAP1 POP SWAP2 SWAP1 POP JUMP JUMPDEST PUSH32 0x4E487B7100000000000000000000000000000000000000000000000000000000 PUSH0 MSTORE PUSH1 0x11 PUSH1 0x4 MSTORE PUSH1 0x24 PUSH0 REVERT JUMPDEST PUSH0 PUSH2 0x102C DUP3 PUSH2 0xB01 JUMP JUMPDEST SWAP2 POP PUSH2 0x1037 DUP4 PUSH2 0xB01 JUMP JUMPDEST SWAP3 POP DUP3 DUP3 SUB SWAP1 POP DUP2 DUP2 GT ISZERO PUSH2 0x104F JUMPI PUSH2 0x104E PUSH2 0xFF5 JUMP JUMPDEST JUMPDEST SWAP3 SWAP2 POP POP JUMP JUMPDEST PUSH0 PUSH2 0x105F DUP3 PUSH2 0xB01 JUMP JUMPDEST SWAP2 POP PUSH2 0x106A DUP4 PUSH2 0xB01 JUMP JUMPDEST SWAP3 POP DUP3 DUP3 ADD SWAP1 POP DUP1 DUP3 GT ISZERO PUSH2 0x1082 JUMPI PUSH2 0x1081 PUSH2 0xFF5 JUMP JUMPDEST JUMPDEST SWAP3 SWAP2 POP POP JUMP JUMPDEST PUSH32 0x4E487B7100000000000000000000000000000000000000000000000000000000 PUSH0 MSTORE PUSH1 0x22 PUSH1 0x4 MSTORE PUSH1 0x24 PUSH0 REVERT JUMPDEST PUSH0 PUSH1 0x2 DUP3 DIV SWAP1 POP PUSH1 0x1 DUP3 AND DUP1 PUSH2 0x10CC JUMPI PUSH1 0x7F DUP3 AND SWAP2 POP JUMPDEST PUSH1 0x20 DUP3 LT DUP2 SUB PUSH2 0x10DF JUMPI PUSH2 0x10DE PUSH2 0x1088 JUMP JUMPDEST JUMPDEST POP SWAP2 SWAP1 POP JUMP JUMPDEST PUSH32 0x546F6B656E20494420646F6573206E6F74206578697374000000000000000000 PUSH0 DUP3 ADD MSTORE POP JUMP JUMPDEST PUSH0 PUSH2 0x1119 PUSH1 0x17 DUP4 PUSH2 0xBB9 JUMP JUMPDEST SWAP2 POP PUSH2 0x1124 DUP3 PUSH2 0x10E5 JUMP JUMPDEST PUSH1 0x20 DUP3 ADD SWAP1 POP SWAP2 SWAP1 POP JUMP JUMPDEST PUSH0 PUSH1 0x20 DUP3 ADD SWAP1 POP DUP2 DUP2 SUB PUSH0 DUP4 ADD MSTORE PUSH2 0x1146 DUP2 PUSH2 0x110D JUMP JUMPDEST SWAP1 POP SWAP2 SWAP1 POP JUMP JUMPDEST PUSH32 0x41646472657373207A65726F206973206E6F7420612076616C6964206F776E65 PUSH0 DUP3 ADD MSTORE PUSH32 0x7200000000000000000000000000000000000000000000000000000000000000 PUSH1 0x20 DUP3 ADD MSTORE POP JUMP JUMPDEST PUSH0 PUSH2 0x11A7 PUSH1 0x21 DUP4 PUSH2 0xBB9 JUMP JUMPDEST SWAP2 POP PUSH2 0x11B2 DUP3 PUSH2 0x114D JUMP JUMPDEST PUSH1 0x40 DUP3 ADD SWAP1 POP SWAP2 SWAP1 POP JUMP JUMPDEST PUSH0 PUSH1 0x20 DUP3 ADD SWAP1 POP DUP2 DUP2 SUB PUSH0 DUP4 ADD MSTORE PUSH2 0x11D4 DUP2 PUSH2 0x119B JUMP JUMPDEST SWAP1 POP SWAP2 SWAP1 POP JUMP JUMPDEST PUSH0 DUP2 SWAP1 POP DUP2 PUSH0 MSTORE PUSH1 0x20 PUSH0 KECCAK256 SWAP1 POP SWAP2 SWAP1 POP JUMP JUMPDEST PUSH0 PUSH1 0x20 PUSH1 0x1F DUP4 ADD DIV SWAP1 POP SWAP2 SWAP1 POP JUMP JUMPDEST PUSH0 DUP3 DUP3 SHL SWAP1 POP SWAP3 SWAP2 POP POP JUMP JUMPDEST PUSH0 PUSH1 0x8 DUP4 MUL PUSH2 0x1237 PUSH32 0xFFFFFFFFFFFFFFFFFFFFFFFFFFFFFFFFFFFFFFFFFFFFFFFFFFFFFFFFFFFFFFFF DUP3 PUSH2 0x11FC JUMP JUMPDEST PUSH2 0x1241 DUP7 DUP4 PUSH2 0x11FC JUMP JUMPDEST SWAP6 POP DUP1 NOT DUP5 AND SWAP4 POP DUP1 DUP7 AND DUP5 OR SWAP3 POP POP POP SWAP4 SWAP3 POP POP POP JUMP JUMPDEST PUSH0 DUP2 SWAP1 POP SWAP2 SWAP1 POP JUMP JUMPDEST PUSH0 PUSH2 0x127C PUSH2 0x1277 PUSH2 0x1272 DUP5 PUSH2 0xB01 JUMP JUMPDEST PUSH2 0x1259 JUMP JUMPDEST PUSH2 0xB01 JUMP JUMPDEST SWAP1 POP SWAP2 SWAP1 POP JUMP JUMPDEST PUSH0 DUP2 SWAP1 POP SWAP2 SWAP1 POP JUMP JUMPDEST PUSH2 0x1295 DUP4 PUSH2 0x1262 JUMP JUMPDEST PUSH2 0x12A9 PUSH2 0x12A1 DUP3 PUSH2 0x1283 JUMP JUMPDEST DUP5 DUP5 SLOAD PUSH2 0x1208 JUMP JUMPDEST DUP3 SSTORE POP POP POP POP JUMP JUMPDEST PUSH0 SWAP1 JUMP JUMPDEST PUSH2 0x12BD PUSH2 0x12B1 JUMP JUMPDEST PUSH2 0x12C8 DUP2 DUP5 DUP5 PUSH2 0x128C JUMP JUMPDEST POP POP POP JUMP JUMPDEST JUMPDEST DUP2 DUP2 LT ISZERO PUSH2 0x12EB JUMPI PUSH2 0x12E0 PUSH0 DUP3 PUSH2 0x12B5 JUMP JUMPDEST PUSH1 0x1 DUP2 ADD SWAP1 POP PUSH2 0x12CE JUMP JUMPDEST POP POP JUMP JUMPDEST PUSH1 0x1F DUP3 GT ISZERO PUSH2 0x1330 JUMPI PUSH2 0x1301 DUP2 PUSH2 0x11DB JUMP JUMPDEST PUSH2 0x130A DUP5 PUSH2 0x11ED JUMP JUMPDEST DUP2 ADD PUSH1 0x20 DUP6 LT ISZERO PUSH2 0x1319 JUMPI DUP2 SWAP1 POP JUMPDEST PUSH2 0x132D PUSH2 0x1325 DUP6 PUSH2 0x11ED JUMP JUMPDEST DUP4 ADD DUP3 PUSH2 0x12CD JUMP JUMPDEST POP POP JUMPDEST POP POP POP JUMP JUMPDEST PUSH0 DUP3 DUP3 SHR SWAP1 POP SWAP3 SWAP2 POP POP JUMP JUMPDEST PUSH0 PUSH2 0x1350 PUSH0 NOT DUP5 PUSH1 0x8 MUL PUSH2 0x1335 JUMP JUMPDEST NOT DUP1 DUP4 AND SWAP2 POP POP SWAP3 SWAP2 POP POP JUMP JUMPDEST PUSH0 PUSH2 0x1368 DUP4 DUP4 PUSH2 0x1341 JUMP JUMPDEST SWAP2 POP DUP3 PUSH1 0x2 MUL DUP3 OR SWAP1 POP SWAP3 SWAP2 POP POP JUMP JUMPDEST PUSH2 0x1381 DUP3 PUSH2 0xBAF JUMP JUMPDEST PUSH8 0xFFFFFFFFFFFFFFFF DUP2 GT ISZERO PUSH2 0x139A JUMPI PUSH2 0x1399 PUSH2 0xCD7 JUMP JUMPDEST JUMPDEST PUSH2 0x13A4 DUP3 SLOAD PUSH2 0x10B5 JUMP JUMPDEST PUSH2 0x13AF DUP3 DUP3 DUP6 PUSH2 0x12EF JUMP JUMPDEST PUSH0 PUSH1 0x20 SWAP1 POP PUSH1 0x1F DUP4 GT PUSH1 0x1 DUP2 EQ PUSH2 0x13E0 JUMPI PUSH0 DUP5 ISZERO PUSH2 0x13CE JUMPI DUP3 DUP8 ADD MLOAD SWAP1 POP JUMPDEST PUSH2 0x13D8 DUP6 DUP3 PUSH2 0x135D JUMP JUMPDEST DUP7 SSTORE POP PUSH2 0x143F JUMP JUMPDEST PUSH1 0x1F NOT DUP5 AND PUSH2 0x13EE DUP7 PUSH2 0x11DB JUMP JUMPDEST PUSH0 JUMPDEST DUP3 DUP2 LT ISZERO PUSH2 0x1415 JUMPI DUP5 DUP10 ADD MLOAD DUP3 SSTORE PUSH1 0x1 DUP3 ADD SWAP2 POP PUSH1 0x20 DUP6 ADD SWAP5 POP PUSH1 0x20 DUP2 ADD SWAP1 POP PUSH2 0x13F0 JUMP JUMPDEST DUP7 DUP4 LT ISZERO PUSH2 0x1432 JUMPI DUP5 DUP10 ADD MLOAD PUSH2 0x142E PUSH1 0x1F DUP10 AND DUP3 PUSH2 0x1341 JUMP JUMPDEST DUP4 SSTORE POP JUMPDEST PUSH1 0x1 PUSH1 0x2 DUP9 MUL ADD DUP9 SSTORE POP POP POP JUMPDEST POP POP POP POP POP POP JUMP JUMPDEST PUSH0 PUSH2 0x1451 DUP3 PUSH2 0xB01 JUMP JUMPDEST SWAP2 POP PUSH32 0xFFFFFFFFFFFFFFFFFFFFFFFFFFFFFFFFFFFFFFFFFFFFFFFFFFFFFFFFFFFFFFFF DUP3 SUB PUSH2 0x1483 JUMPI PUSH2 0x1482 PUSH2 0xFF5 JUMP JUMPDEST JUMPDEST PUSH1 0x1 DUP3 ADD SWAP1 POP SWAP2 SWAP1 POP JUMP INVALID LOG2 PUSH5 0x6970667358 0x22 SLT KECCAK256 DUP5 SWAP13 0xB8 PUSH25 0x2E38BAF9D7E85EEB9F28D561E100F40C6D59203485C902E1E6 SUB 0xB2 EXP PUSH5 0x736F6C6343 STOP ADDMOD BYTE STOP CALLER "
		},
		"gasEstimates": {
			"creation": {
				"codeDepositCost": "1063200",
				"executionCost": "6118",
				"totalCost": "1069318"
			},
			"external": {
				"balanceOf(address)": "2886",
				"candidates(uint256)": "infinite",
				"createCandidateNFT(string,string)": "infinite",
				"getCandidate(uint256)": "infinite",
				"ownerOf(uint256)": "2941",
				"tokenCounter()": "2490",
				"transferFrom(address,address,uint256)": "infinite"
			}
		},
		"methodIdentifiers": {
			"balanceOf(address)": "70a08231",
			"candidates(uint256)": "3477ee2e",
			"createCandidateNFT(string,string)": "a542c02c",
			"getCandidate(uint256)": "35b8e820",
			"ownerOf(uint256)": "6352211e",
			"tokenCounter()": "d082e381",
			"transferFrom(address,address,uint256)": "23b872dd"
		}
	},
	"abi": [
		{
			"inputs": [],
			"stateMutability": "nonpayable",
			"type": "constructor"
		},
		{
			"anonymous": false,
			"inputs": [
				{
					"indexed": true,
					"internalType": "uint256",
					"name": "tokenId",
					"type": "uint256"
				},
				{
					"indexed": false,
					"internalType": "string",
					"name": "name",
					"type": "string"
				},
				{
					"indexed": false,
					"internalType": "string",
					"name": "party",
					"type": "string"
				}
			],
			"name": "CandidateCreated",
			"type": "event"
		},
		{
			"anonymous": false,
			"inputs": [
				{
					"indexed": true,
					"internalType": "address",
					"name": "from",
					"type": "address"
				},
				{
					"indexed": true,
					"internalType": "address",
					"name": "to",
					"type": "address"
				},
				{
					"indexed": true,
					"internalType": "uint256",
					"name": "tokenId",
					"type": "uint256"
				}
			],
			"name": "Transfer",
			"type": "event"
		},
		{
			"inputs": [
				{
					"internalType": "address",
					"name": "owner",
					"type": "address"
				}
			],
			"name": "balanceOf",
			"outputs": [
				{
					"internalType": "uint256",
					"name": "",
					"type": "uint256"
				}
			],
			"stateMutability": "view",
			"type": "function"
		},
		{
			"inputs": [
				{
					"internalType": "uint256",
					"name": "",
					"type": "uint256"
				}
			],
			"name": "candidates",
			"outputs": [
				{
					"internalType": "string",
					"name": "name",
					"type": "string"
				},
				{
					"internalType": "string",
					"name": "party",
					"type": "string"
				}
			],
			"stateMutability": "view",
			"type": "function"
		},
		{
			"inputs": [
				{
					"internalType": "string",
					"name": "name",
					"type": "string"
				},
				{
					"internalType": "string",
					"name": "party",
					"type": "string"
				}
			],
			"name": "createCandidateNFT",
			"outputs": [],
			"stateMutability": "nonpayable",
			"type": "function"
		},
		{
			"inputs": [
				{
					"internalType": "uint256",
					"name": "tokenId",
					"type": "uint256"
				}
			],
			"name": "getCandidate",
			"outputs": [
				{
					"internalType": "string",
					"name": "name",
					"type": "string"
				},
				{
					"internalType": "string",
					"name": "party",
					"type": "string"
				}
			],
			"stateMutability": "view",
			"type": "function"
		},
		{
			"inputs": [
				{
					"internalType": "uint256",
					"name": "tokenId",
					"type": "uint256"
				}
			],
			"name": "ownerOf",
			"outputs": [
				{
					"internalType": "address",
					"name": "",
					"type": "address"
				}
			],
			"stateMutability": "view",
			"type": "function"
		},
		{
			"inputs": [],
			"name": "tokenCounter",
			"outputs": [
				{
					"internalType": "uint256",
					"name": "",
					"type": "uint256"
				}
			],
			"stateMutability": "view",
			"type": "function"
		},
		{
			"inputs": [
				{
					"internalType": "address",
					"name": "from",
					"type": "address"
				},
				{
					"internalType": "address",
					"name": "to",
					"type": "address"
				},
				{
					"internalType": "uint256",
					"name": "tokenId",
					"type": "uint256"
				}
			],
			"name": "transferFrom",
			"outputs": [],
			"stateMutability": "nonpayable",
			"type": "function"
		}
	]
}