{
	"data": {
		"bytecode": {
			"linkReferences": {},
			"object": "6080604052348015600e575f80fd5b5061031f8061001c5f395ff3fe608060405234801561000f575f80fd5b5060043610610060575f3560e01c806301f0bbc61461006457806308ea9a801461006e5780631ab55fec1461008c578063395a6063146100aa578063a7e91ab7146100da578063afdd3d0b1461010a575b5f80fd5b61006c610128565b005b61007661014b565b60405161008391906101ac565b60405180910390f35b610094610150565b6040516100a191906101ac565b60405180910390f35b6100c460048036038101906100bf91906101f3565b610156565b6040516100d191906101ac565b60405180910390f35b6100f460048036038101906100ef91906101f3565b610172565b60405161010191906101ac565b60405180910390f35b61011261018e565b60405161011f91906101ac565b60405180910390f35b60015f81905550633b9aca00600181905550670de0b6b3a7640000600281905550565b5f5481565b60025481565b5f670de0b6b3a76400008261016b9190610278565b9050919050565b5f670de0b6b3a76400008261018791906102a8565b9050919050565b60015481565b5f819050919050565b6101a681610194565b82525050565b5f6020820190506101bf5f83018461019d565b92915050565b5f80fd5b6101d281610194565b81146101dc575f80fd5b50565b5f813590506101ed816101c9565b92915050565b5f60208284031215610208576102076101c5565b5b5f610215848285016101df565b91505092915050565b7f4e487b71000000000000000000000000000000000000000000000000000000005f52601260045260245ffd5b7f4e487b71000000000000000000000000000000000000000000000000000000005f52601160045260245ffd5b5f61028282610194565b915061028d83610194565b92508261029d5761029c61021e565b5b828204905092915050565b5f6102b282610194565b91506102bd83610194565b92508282026102cb81610194565b915082820484148315176102e2576102e161024b565b5b509291505056fea2646970667358221220f29c886a01ed37fef33d6f514484acebe24729458633854c73f7796bdafd3b0564736f6c634300081a0033",
			"opcodes": "PUSH1 0x80 PUSH1 0x40 MSTORE CALLVALUE DUP1 ISZERO PUSH1 0xE JUMPI PUSH0 DUP1 REVERT JUMPDEST POP PUSH2 0x31F DUP1 PUSH2 0x1C PUSH0 CODECOPY PUSH0 RETURN INVALID PUSH1 0x80 PUSH1 0x40 MSTORE CALLVALUE DUP1 ISZERO PUSH2 0xF JUMPI PUSH0 DUP1 REVERT JUMPDEST POP PUSH1 0x4 CALLDATASIZE LT PUSH2 0x60 JUMPI PUSH0 CALLDATALOAD PUSH1 0xE0 SHR DUP1 PUSH4 0x1F0BBC6 EQ PUSH2 0x64 JUMPI DUP1 PUSH4 0x8EA9A80 EQ PUSH2 0x6E JUMPI DUP1 PUSH4 0x1AB55FEC EQ PUSH2 0x8C JUMPI DUP1 PUSH4 0x395A6063 EQ PUSH2 0xAA JUMPI DUP1 PUSH4 0xA7E91AB7 EQ PUSH2 0xDA JUMPI DUP1 PUSH4 0xAFDD3D0B EQ PUSH2 0x10A JUMPI JUMPDEST PUSH0 DUP1 REVERT JUMPDEST PUSH2 0x6C PUSH2 0x128 JUMP JUMPDEST STOP JUMPDEST PUSH2 0x76 PUSH2 0x14B JUMP JUMPDEST PUSH1 0x40 MLOAD PUSH2 0x83 SWAP2 SWAP1 PUSH2 0x1AC JUMP JUMPDEST PUSH1 0x40 MLOAD DUP1 SWAP2 SUB SWAP1 RETURN JUMPDEST PUSH2 0x94 PUSH2 0x150 JUMP JUMPDEST PUSH1 0x40 MLOAD PUSH2 0xA1 SWAP2 SWAP1 PUSH2 0x1AC JUMP JUMPDEST PUSH1 0x40 MLOAD DUP1 SWAP2 SUB SWAP1 RETURN JUMPDEST PUSH2 0xC4 PUSH1 0x4 DUP1 CALLDATASIZE SUB DUP2 ADD SWAP1 PUSH2 0xBF SWAP2 SWAP1 PUSH2 0x1F3 JUMP JUMPDEST PUSH2 0x156 JUMP JUMPDEST PUSH1 0x40 MLOAD PUSH2 0xD1 SWAP2 SWAP1 PUSH2 0x1AC JUMP JUMPDEST PUSH1 0x40 MLOAD DUP1 SWAP2 SUB SWAP1 RETURN JUMPDEST PUSH2 0xF4 PUSH1 0x4 DUP1 CALLDATASIZE SUB DUP2 ADD SWAP1 PUSH2 0xEF SWAP2 SWAP1 PUSH2 0x1F3 JUMP JUMPDEST PUSH2 0x172 JUMP JUMPDEST PUSH1 0x40 MLOAD PUSH2 0x101 SWAP2 SWAP1 PUSH2 0x1AC JUMP JUMPDEST PUSH1 0x40 MLOAD DUP1 SWAP2 SUB SWAP1 RETURN JUMPDEST PUSH2 0x112 PUSH2 0x18E JUMP JUMPDEST PUSH1 0x40 MLOAD PUSH2 0x11F SWAP2 SWAP1 PUSH2 0x1AC JUMP JUMPDEST PUSH1 0x40 MLOAD DUP1 SWAP2 SUB SWAP1 RETURN JUMPDEST PUSH1 0x1 PUSH0 DUP2 SWAP1 SSTORE POP PUSH4 0x3B9ACA00 PUSH1 0x1 DUP2 SWAP1 SSTORE POP PUSH8 0xDE0B6B3A7640000 PUSH1 0x2 DUP2 SWAP1 SSTORE POP JUMP JUMPDEST PUSH0 SLOAD DUP2 JUMP JUMPDEST PUSH1 0x2 SLOAD DUP2 JUMP JUMPDEST PUSH0 PUSH8 0xDE0B6B3A7640000 DUP3 PUSH2 0x16B SWAP2 SWAP1 PUSH2 0x278 JUMP JUMPDEST SWAP1 POP SWAP2 SWAP1 POP JUMP JUMPDEST PUSH0 PUSH8 0xDE0B6B3A7640000 DUP3 PUSH2 0x187 SWAP2 SWAP1 PUSH2 0x2A8 JUMP JUMPDEST SWAP1 POP SWAP2 SWAP1 POP JUMP JUMPDEST PUSH1 0x1 SLOAD DUP2 JUMP JUMPDEST PUSH0 DUP2 SWAP1 POP SWAP2 SWAP1 POP JUMP JUMPDEST PUSH2 0x1A6 DUP2 PUSH2 0x194 JUMP JUMPDEST DUP3 MSTORE POP POP JUMP JUMPDEST PUSH0 PUSH1 0x20 DUP3 ADD SWAP1 POP PUSH2 0x1BF PUSH0 DUP4 ADD DUP5 PUSH2 0x19D JUMP JUMPDEST SWAP3 SWAP2 POP POP JUMP JUMPDEST PUSH0 DUP1 REVERT JUMPDEST PUSH2 0x1D2 DUP2 PUSH2 0x194 JUMP JUMPDEST DUP2 EQ PUSH2 0x1DC JUMPI PUSH0 DUP1 REVERT JUMPDEST POP JUMP JUMPDEST PUSH0 DUP2 CALLDATALOAD SWAP1 POP PUSH2 0x1ED DUP2 PUSH2 0x1C9 JUMP JUMPDEST SWAP3 SWAP2 POP POP JUMP JUMPDEST PUSH0 PUSH1 0x20 DUP3 DUP5 SUB SLT ISZERO PUSH2 0x208 JUMPI PUSH2 0x207 PUSH2 0x1C5 JUMP JUMPDEST JUMPDEST PUSH0 PUSH2 0x215 DUP5 DUP3 DUP6 ADD PUSH2 0x1DF JUMP JUMPDEST SWAP2 POP POP SWAP3 SWAP2 POP POP JUMP JUMPDEST PUSH32 0x4E487B7100000000000000000000000000000000000000000000000000000000 PUSH0 MSTORE PUSH1 0x12 PUSH1 0x4 MSTORE PUSH1 0x24 PUSH0 REVERT JUMPDEST PUSH32 0x4E487B7100000000000000000000000000000000000000000000000000000000 PUSH0 MSTORE PUSH1 0x11 PUSH1 0x4 MSTORE PUSH1 0x24 PUSH0 REVERT JUMPDEST PUSH0 PUSH2 0x282 DUP3 PUSH2 0x194 JUMP JUMPDEST SWAP2 POP PUSH2 0x28D DUP4 PUSH2 0x194 JUMP JUMPDEST SWAP3 POP DUP3 PUSH2 0x29D JUMPI PUSH2 0x29C PUSH2 0x21E JUMP JUMPDEST JUMPDEST DUP3 DUP3 DIV SWAP1 POP SWAP3 SWAP2 POP POP JUMP JUMPDEST PUSH0 PUSH2 0x2B2 DUP3 PUSH2 0x194 JUMP JUMPDEST SWAP2 POP PUSH2 0x2BD DUP4 PUSH2 0x194 JUMP JUMPDEST SWAP3 POP DUP3 DUP3 MUL PUSH2 0x2CB DUP2 PUSH2 0x194 JUMP JUMPDEST SWAP2 POP DUP3 DUP3 DIV DUP5 EQ DUP4 ISZERO OR PUSH2 0x2E2 JUMPI PUSH2 0x2E1 PUSH2 0x24B JUMP JUMPDEST JUMPDEST POP SWAP3 SWAP2 POP POP JUMP INVALID LOG2 PUSH5 0x6970667358 0x22 SLT KECCAK256 CALLCODE SWAP13 DUP9 PUSH11 0x1ED37FEF33D6F514484AC 0xEB 0xE2 SELFBALANCE 0x29 GASLIMIT DUP7 CALLER DUP6 0x4C PUSH20 0xF7796BDAFD3B0564736F6C634300081A00330000 "
		},
		"gasEstimates": {
			"creation": {
				"codeDepositCost": "159800",
				"executionCost": "200",
				"totalCost": "160000"
			},
			"external": {
				"amountInEther()": "2447",
				"amountInGwei()": "2513",
				"amountInWei()": "2424",
				"convertEtherToWei(uint256)": "infinite",
				"convertWeiToEther(uint256)": "infinite",
				"setAmounts()": "66462"
			}
		},
		"methodIdentifiers": {
			"amountInEther()": "1ab55fec",
			"amountInGwei()": "afdd3d0b",
			"amountInWei()": "08ea9a80",
			"convertEtherToWei(uint256)": "a7e91ab7",
			"convertWeiToEther(uint256)": "395a6063",
			"setAmounts()": "01f0bbc6"
		}
	},
	"abi": [
		{
			"inputs": [],
			"name": "amountInEther",
			"outputs": [
				{
					"internalType": "uint256",
					"name": "",
					"type": "uint256"
				}
			],
			"stateMutability": "view",
			"type": "function"
		},
		{
			"inputs": [],
			"name": "amountInGwei",
			"outputs": [
				{
					"internalType": "uint256",
					"name": "",
					"type": "uint256"
				}
			],
			"stateMutability": "view",
			"type": "function"
		},
		{
			"inputs": [],
			"name": "amountInWei",
			"outputs": [
				{
					"internalType": "uint256",
					"name": "",
					"type": "uint256"
				}
			],
			"stateMutability": "view",
			"type": "function"
		},
		{
			"inputs": [
				{
					"internalType": "uint256",
					"name": "etherAmount",
					"type": "uint256"
				}
			],
			"name": "convertEtherToWei",
			"outputs": [
				{
					"internalType": "uint256",
					"name": "",
					"type": "uint256"
				}
			],
			"stateMutability": "pure",
			"type": "function"
		},
		{
			"inputs": [
				{
					"internalType": "uint256",
					"name": "weiAmount",
					"type": "uint256"
				}
			],
			"name": "convertWeiToEther",
			"outputs": [
				{
					"internalType": "uint256",
					"name": "",
					"type": "uint256"
				}
			],
			"stateMutability": "pure",
			"type": "function"
		},
		{
			"inputs": [],
			"name": "setAmounts",
			"outputs": [],
			"stateMutability": "nonpayable",
			"type": "function"
		}
	]
}